:020000040800F2
:1000000000280020B1140008C1110008C711000821
:10001000CD110008D3110008D9110008000000001C
:10002000000000000000000000000000DF110008D8
:10003000EB11000800000000F7110008031200088F
:10004000F9140008F9140008F9140008F91400085C
:10005000F9140008F9140008F9140008F91400084C
:10006000F9140008F9140008F9140008F91400083C
:10007000F9140008F9140008F9140008F91400082C
:10008000F9140008F9140008F9140008F91400081C
:10009000F9140008F9140008F9140008F91400080C
:1000A000F9140008F9140008F9140008F9140008FC
:1000B00011120008F914000800000000F9140008EB
:1000C000F91400080000000000000000F914000806
:1000D00000000000F9140008F914000800000000F6
:1000E000F9140008F9140008F914000800000000D1
:1000F0000000000000000000000000000000000000
:0C01000000000000000000005FF808F1A3
:10010C0010B5054C237833B9044B13B10448AFF345
:10011C0000800123237010BDB000002000000000FF
:10012C00DC2C000808B5034B1BB103490348AFF3A3
:10013C00008008BD00000000B4000020DC2C00088A
:10014C0080B582B000AF78607B68032B72D801A2B7
:10015C0052F823F071010008A5010008D90100082C
:10016C000D020008364B1B78184600F0A9F8012246
:10017C000821344801F0BDFC00221021314801F067
:10018C00B8FC002220212F4801F0B3FC00224021B2
:10019C002C4801F0AEFC4EE0294B5B78184600F081
:1001AC008FF800220821274801F0A3FC012210211E
:1001BC00244801F09EFC00222021224801F099FCE9
:1001CC00002240211F4801F094FC34E01C4B9B782A
:1001DC00184600F075F8002208211A4801F089FC35
:1001EC0000221021174801F084FC0122202115481F
:1001FC0001F07FFC00224021124801F07AFC1AE049
:10020C000F4BDB78184600F05BF8002208210D48F4
:10021C0001F06FFC002210210A4801F06AFC002258
:10022C002021084801F065FC01224021054801F01D
:10023C0060FC00E000BF00BF0837BD4680BD00BFBA
:10024C009C0200200008014080B400AF184B5B7882
:10025C00184AA2FB0323DB08DAB2174B1A70144BB3
:10026C005A78144BA3FB0213D9080B469B000B4482
:10027C005B00D31ADAB2104B5A70104B5B780D4AF4
:10028C00A2FB0323DB08DAB20B4B9A700B4B5A78A8
:10029C00084BA3FB0213D9080B469B000B445B00D5
:1002AC00D31ADAB2044BDA7000BFBD4680BC70477B
:1002BC002C000020CDCCCCCC9C02002034000020A3
:1002CC0080B582B000AF78607B6801330A2B00F2F6
:1002DC008D8201A252F823F0110300088303000859
:1002EC00F503000867040008D90400085505000848
:1002FC00C705000839060008AB0600081D070008F2
:10030C007F0700088E4B1B688E4A11880122184605
:10031C0001F0EFFB8A4B5B688A4A51880122184630
:10032C0001F0E7FB864B9B68864A918801221846B0
:10033C0001F0DFFB824BDB68824AD1880122184630
:10034C0001F0D7FB7E4B1B697E4A118901221846AE
:10035C0001F0CFFB7A4B5B697A4A5189012218462E
:10036C0001F0C7FB764B9B69764A918901221846AE
:10037C0001F0BFFB73E2724B1B68724A11880022BA
:10038C00184601F0B6FB6E4B5B686E4A5188002232
:10039C00184601F0AEFB6A4B9B686A4A91880022B2
:1003AC00184601F0A6FB664BDB68664AD188002232
:1003BC00184601F09EFB624B1B69624A11890022B0
:1003CC00184601F096FB5E4B5B695E4A5189002230
:1003DC00184601F08EFB5A4B9B695A4A91890122AF
:1003EC00184601F086FB3AE2554B1B68554A1188BA
:1003FC000122184601F07DFB514B5B68514A518834
:10040C000022184601F075FB4D4B9B684D4A9188B4
:10041C000022184601F06DFB494BDB68494AD18834
:10042C000122184601F065FB454B1B69454A1189B1
:10043C000122184601F05DFB414B5B69414A518931
:10044C000122184601F055FB3D4B9B693D4A9189B1
:10045C000122184601F04DFB01E2394B1B68394A69
:10046C0011880022184601F044FB354B5B68354A75
:10047C0051880022184601F03CFB314B9B68314AF5
:10048C0091880122184601F034FB2D4BDB682D4A74
:10049C00D1880022184601F02CFB294B1B69294AF4
:1004AC0011890022184601F024FB254B5B69254A73
:1004BC0051890122184601F01CFB214B9B69214AF2
:1004CC0091890022184601F014FBC8E11C4B1B68F3
:1004DC001C4A11880022184601F00BFB184B5B6874
:1004EC00184A51880022184601F003FB144B9B68F4
:1004FC00144A91880022184601F0FBFA104BDB6875
:10050C00104AD1880022184601F0F3FA0C4B1B69F3
:10051C000C4A11890122184601F0EBFA084B5B6971
:10052C00084A51890122184601F0E3FA044B9B69F1
:10053C00044A91890022184601F0DBFA8FE100BFD2
:10054C00000000201C000020A64B1B68A64A118846
:10055C000122184601F0CDFAA24B5B68A24A5188E1
:10056C000022184601F0C5FA9E4B9B689E4A918862
:10057C000022184601F0BDFA9A4BDB689A4AD188E2
:10058C000122184601F0B5FA964B1B69964A11895F
:10059C000122184601F0ADFA924B5B69924A5189DF
:1005AC000022184601F0A5FA8E4B9B698E4A918960
:1005BC000022184601F09DFA51E18A4B1B688A4AC9
:1005CC0011880022184601F094FA864B5B68864A23
:1005DC0051880122184601F08CFA824B9B68824AA2
:1005EC0091880022184601F084FA7E4BDB687E4A23
:1005FC00D1880022184601F07CFA7A4B1B697A4AA2
:10060C0011890122184601F074FA764B5B69764A1F
:10061C0051890022184601F06CFA724B9B69724AA0
:10062C0091890022184601F064FA18E16D4B1B68A1
:10063C006D4A11880022184601F05BFA694B5B6821
:10064C00694A51880122184601F053FA654B9B68A0
:10065C00654A91880022184601F04BFA614BDB6821
:10066C00614AD1880022184601F043FA5D4B1B69A0
:10067C005D4A11890022184601F03BFA594B5B691F
:10068C00594A51890022184601F033FA554B9B699F
:10069C00554A91890022184601F02BFADFE0514BA4
:1006AC001B68514A11880022184601F022FA4D4B62
:1006BC005B684D4A51880022184601F01AFA494BE2
:1006CC009B68494A91880022184601F012FA454B62
:1006DC00DB68454AD1880122184601F00AFA414BE1
:1006EC001B69414A11890122184601F002FA3D4B5F
:1006FC005B693D4A51890122184601F0FAF9394BE0
:10070C009B69394A91890122184601F0F2F9A6E059
:10071C00344B5B68344A51880022184601F0E9F9E1
:10072C00304B9B68304A91880022184601F0E1F961
:10073C002C4BDB682C4AD1880022184601F0D9F9E1
:10074C00284B1B69284A11890022184601F0D1F95F
:10075C00244B5B69244A51890022184601F0C9F9DF
:10076C00204B9B69204A91890022184601F0C1F95F
:10077C0075E01C4B1B681C4A11880022184601F0BE
:10078C00B8F9184B5B68184A51880022184601F0DA
:10079C00B0F9144B9B68144A91880022184601F05A
:1007AC00A8F9104BDB68104AD1880022184601F0DA
:1007BC00A0F90C4B1B690C4A11890122184601F057
:1007CC0098F9084B5B69084A51890022184601F0D8
:1007DC0090F9044B9B69044A91890022184601F058
:1007EC0088F93CE0000000201C0000201E4B1B6818
:1007FC001E4A11880122184601F07BF91A4B5B68DE
:10080C001A4A51880122184601F073F9164B9B685D
:10081C00164A91880122184601F06BF9124BDB68DD
:10082C00124AD1880122184601F063F90E4B1B695C
:10083C000E4A11890122184601F05BF90A4B5B69DB
:10084C000A4A51890122184601F053F9064B9B695B
:10085C00064A91890022184601F04BF900BF00BFEF
:10086C000837BD4680BD00BF000000201C000020E2
:10087C0080B582B000AF0346FB71FB79032B4AD8DD
:10088C0001A252F823F000BFA508000823090008B4
:10089C002309000823090008224A2349234800F0B1
:1008AC00F7FC234A2349244800F0F2FC234B1B7924
:1008BC00012B15D11C4B5B78013BDAB21A4B5A70E9
:1008CC001C4B5B78013BDAB21A4B5A70FFF7BCFC3D
:1008DC001A4B00221A711A494FF47A7000F0CEFAB2
:1008EC00164B5B79012B18D1164B1B68032B02DDC1
:1008FC00144B00221A60134B1B685A1C11490A60D6
:10090C001846FFF71DFC0D4B00225A710E49C820EA
:10091C0000F0B4FA01E000BF00E000BF00BF0837F0
:10092C00BD4680BDCE0000202C000020FC00002025
:10093C00CF0000203400002040000020CC0000201C
:10094C00D0000020D4000020D100002080B500AFE2
:10095C001C4B1B78022B24D0022B31DC002B02D039
:10096C00012B0AD02CE0002000F020F90346002BCC
:10097C0021D0144B01221A701DE0002000F016F952
:10098C000346002B03D10F4B00221A7015E00020F8
:10099C0000F026F90346002B0FD00A4B02221A70E6
:1009AC000BE0002000F002F90346002B07D1054BA9
:1009BC0000221A7003E000BF02E000BF00E000BF9D
:1009CC0000BF80BDD900002080B582B000AF0346C7
:1009DC00FB71FB79022B12D0022B16DC002B02D000
:1009EC00012B06D011E001210B4801F06BF80346F6
:1009FC000DE00221084801F065F8034607E00421E8
:100A0C00054801F05FF8034601E000BF01231846DA
:100A1C000837BD4680BD00BF0008014090B583B0CB
:100A2C0000AF0023FB71A3E0FA79FB795549895C8F
:100A3C00554AD154FC79FB791846FFF7C5FF03469C
:100A4C001A46504B1A55FB794E4AD25CFB794E49EB
:100A5C00CB5C9A4205D1FA79FB794A49895C4B4ABD
:100A6C00D154FB79494AD35C002B13D1FB79484A0A
:100A7C00002122F81310FB79464A32F81330632B0D
:100A8C0008D8FB79434A32F81320013291B2414A1B
:100A9C0022F81310FB793D4AD35C012B13D1FB795F
:100AAC003C4A002122F81310FB79394A32F81330F2
:100ABC00072B08D8FB79364A32F81320013291B251
:100ACC00334A22F81310FB79304AD35C002B25D122
:100ADC00FB792F4A32F81330072B0FD9FB792D4AAB
:100AEC0032F81330632B04D8FB792B4A0121D154F3
:100AFC0024E0FB79294A0121D1541FE0FB79254AD6
:100B0C0032F81330632B04D8FB79254A0121D154D8
:100B1C0014E0FB79234A0121D1540FE0FB791E4AE2
:100B2C000021D154FB791D4A0021D154FB791C4A78
:100B3C000021D154FB791B4A0021D154FB79002BA5
:100B4C0002D1194B00221A70FB79104AD35C002B8E
:100B5C000CBF01230023DBB25AB2134B1B785BB2E0
:100B6C0013435BB2DAB2104B1A70FB790133FB7191
:100B7C00FB79022B7FF658AF00BF00BF0C37BD4688
:100B8C0090BD00BFE0000020E4000020DC0000204D
:100B9C00F0000020E8000020340400202C04002089
:100BAC000801002064040020DA00002080B483B027
:100BBC0000AF0346FB71FB79022B01D9002307E040
:100BCC00FB79064AD35C012B0CBF01230023DBB25B
:100BDC0018460C37BD4680BC704700BF340400205B
:100BEC0080B483B000AF0346FB71FB79022B01D9B3
:100BFC00002307E0FB79064AD35C012B0CBF0123D1
:100C0C000023DBB218460C37BD4680BC704700BFD2
:100C1C002C04002080B500AF00F06AFC00F040F816
:100C2C0000F0C6F800F078F8154801F0BFFB154944
:100C3C004FF47A7000F022F913494FF47A7000F0F7
:100C4C001DF912494FF47A7000F018F910494FF45D
:100C5C007A7000F013F90F494FF47A7000F00EF926
:100C6C000D494FF47A7000F009F900F033FAFFF7F0
:100C7C006DFE0A4B1B781846FFF7FAFDF5E700BF2F
:100C8C0068040020CC000020CD000020CE00002005
:100C9C00CF000020D0000020D1000020D800002080
:100CAC0080B590B000AF07F1180328220021184638
:100CBC0001F042FF3B1D00221A605A609A60DA6014
:100CCC001A610223BB610123BB621023FB62002368
:100CDC007B6307F11803184600F03CFF0346002B1A
:100CEC0001D000F0C5F80F237B600023BB6000230C
:100CFC00FB6000233B6100237B613B1D00211846F8
:100D0C0001F0A8F90346002B01D000F0B1F800BFA8
:100D1C004037BD4680BD000080B586B000AF07F1FE
:100D2C00080300221A605A609A60DA603B4600227F
:100D3C001A605A601D4B4FF080421A601B4B41F6F3
:100D4C003F725A60194B00229A60184B0922DA60E4
:100D5C00164B00221A61154B00229A61134801F0C0
:100D6C00D5FA0346002B01D000F082F84FF48053E3
:100D7C00BB6007F1080319460C4801F053FC03460D
:100D8C00002B01D000F074F800233B6000237B6043
:100D9C003B461946054801F02BFE0346002B01D0BB
:100DAC0000F066F800BF1837BD4680BD680400200F
:100DBC0080B586B000AF07F1080300221A605A60B4
:100DCC009A60DA60274B9B69264A43F004039361CF
:100DDC00244B9B6903F004037B607B68214B9B696C
:100DEC00204A43F0080393611E4B9B6903F00803F0
:100DFC003B603B6800224FF6F8711B4800F079FE0F
:100E0C0000223F21194800F074FE0723BB60002329
:100E1C00FB6001233B6107F108031946124800F0FF
:100E2C00D7FC4FF6F873BB600123FB6000233B61DA
:100E3C0002237B6107F1080319460B4800F0C8FC3C
:100E4C003F23BB600123FB6000233B6102237B61DA
:100E5C0007F108031946054800F0BAFC00BF183723
:100E6C00BD4680BD0010024000080140000C01404E
:100E7C0080B400AF72B600BFFEE7000080B584B04E
:100E8C0000AF786039600C2001F046FE0346FB6031
:100E9C00FB68002B49D07B689AB2FB681A80FB6810
:100EAC003A685A607B68B3F57A7F20D3214B1B7864
:100EBC0019467B68204AA2FB03239B0919441F4B4C
:100ECC00A3FB01239A0913465B0013445A011344F4
:100EDC00CA1A1346BB72BB7A194A52F82320FB6814
:100EEC009A60BB7A1649FA6841F823201EE0154B2C
:100EFC001B7819467B68144AA2FB0323DB08CA182B
:100F0C00124BA3FB02135B09642101FB03F3D31AFD
:100F1C00FB72FB7A0E4A52F82320FB689A60FB7A2C
:100F2C000B49FA6841F8232000E000BF1037BD469A
:100F3C0080BD00BFF7000020D34D621003B57EA525
:100F4C00A0020020F6000020CDCCCCCC1F85EB51AC
:100F5C000C01002080B586B000AF4D4B1B78002BE8
:100F6C0062D14C4B1B781A464B4B53F822307B61A9
:100F7C003DE07B691B88494AA2FB0323DB089BB23B
:100F8C00474AA2FB03125209642101FB02F29B1A8D
:100F9C009BB2FB730C2001F0BFFD0346BB60BB682A
:100FAC00002B70D07B691B883E4AA2FB031292096E
:100FBC004FF47A7101FB02F29B1A9AB2BB681A8049
:100FCC007B695A68BB685A60FB7B374A52F823200E
:100FDC00BB689A60FB7B3449BA6841F823207B6973
:100FEC007B607B699B687B61786801F09DFD7B6908
:100FFC00002BBED1274B1B781946274B002243F8F8
:10100C002120244B1B785A1C284B83FB02131344BE
:10101C009911D317C91A0B465B000B4459010B44A9
:10102C00D11ACAB21B4B1A70194B1B781A461E4B9D
:10103C0053F822303B610BE03B695B6801221A706C
:10104C003B693B603B699B683B61386801F06CFD18
:10105C003B69002BF0D10E4B1B781946124B00222A
:10106C0043F821200A4B1B7801330D4A82FB0312F3
:10107C005111DA178A1A642101FB02F29A1AD2B2C0
:10108C00034B1A7000E000BF1837BD4680BD00BF8F
:10109C00F6000020F7000020A0020020CDCCCCCC24
:1010AC001F85EB51D34D62100C01002003B57EA5BA
:1010BC0080B582B000AF78607B681B68B3F1804F5D
:1010CC0003D1FFF747FFFFF7A9FC00BF0837BD4668
:1010DC0080BD000080B500AF094B1B78002B0CD0F5
:1010EC004FF48041074800F01CFD054B00221A709C
:1010FC0003494FF47A70FFF7C1FE00BF80BD00BFFB
:10110C00CC0000200008014080B485B000AF154B26
:10111C009B69144A43F001039361124B9B6903F0E2
:10112C000103BB60BB680F4BDB690E4A43F0805375
:10113C00D3610C4BDB6903F080537B607B680A4BFB
:10114C005B68FB60FB6823F0E063FB60FB6843F0CB
:10115C008063FB60044AFB68536000BF1437BD46D4
:10116C0080BC7047001002400000014080B584B084
:10117C0000AF78607B681B68B3F1804F13D10C4BC8
:10118C00DB690B4A43F00103D361094BDB6903F0C4
:10119C000103FB60FB68002200211C2000F0E1FA37
:1011AC001C2000F0FAFA00BF1037BD4680BD00BF0E
:1011BC000010024080B400AFFEE780B400AFFEE741
:1011CC0080B400AFFEE780B400AFFEE780B400AFA0
:1011DC00FEE780B400AF00BFBD4680BC704780B452
:1011EC0000AF00BFBD4680BC704780B400AF00BFED
:1011FC00BD4680BC704780B500AF00F0BFF900BFA2
:10120C0080BD000080B500AF024801F01BF900BFA3
:10121C0080BD00BF6804002080B586B000AF786048
:10122C00144A154BD31A7B617B693B61134B1B68CA
:10123C00002B02D1114B124A1A60104B1A687B68B2
:10124C0013443A699A4207D201F03CFC03460C2243
:10125C001A604FF0FF3309E0084B1B68FB60074B2B
:10126C001A687B681344054A1360FB6818461837E4
:10127C00BD4680BD0028002000040000F8000020BE
:10128C00C804002080B400AF00BFBD4680BC7047CE
:10129C0080B584B000AFF860B9607A60FB681B78E9
:1012AC00022B44D0022B61DC002B02D0012B1FD06F
:1012BC005CE07B681B78012B5AD1FB6802221A7008
:1012CC00BB681B78184600F0BDF87B6800221A70CA
:1012DC00BB681B791A464FF47A7303FB02F37968E7
:1012EC001846FFF7CBFDBB681A79BB685A703FE014
:1012FC007B681B78012B3DD1FB6800221A70BB6800
:10130C001B78184600F03EF87B6800221A70BB6808
:10131C009B781A464FF47A7303FB02F379681846EC
:10132C00FFF7ACFDBB689A78BB685A7022E07B680B
:10133C001B78012B20D1FB6801221A70BB681B782B
:10134C00184600F04FF87B6800221A70BB68DB78F7
:10135C001A464FF47A7303FB02F379681846FFF7C9
:10136C008DFDBB68DA78BB685A7005E000BF04E0FD
:10137C0000BF02E000BF00E000BF00BF1037BD4659
:10138C0080BD000080B582B000AF0346FB71FB79D5
:10139C00002B0ED100220121114800F0AAFB0122E2
:1013AC0002210F4800F0A5FB012204210C4800F09B
:1013BC00A0FBFB79012B0ED100220821084800F07C
:1013CC0098FB01221021064800F093FB01222021FA
:1013DC00034800F08EFB00BF0837BD4680BD00BF40
:1013EC00000C014080B582B000AF0346FB71FB7965
:1013FC00002B0ED100220221114800F07AFB0122B1
:10140C0004210F4800F075FB012201210C4800F06B
:10141C0070FBFB79012B0ED100221021084800F043
:10142C0068FB01222021064800F063FB0122082101
:10143C00034800F05EFB00BF0837BD4680BD00BF0F
:10144C00000C014080B582B000AF0346FB71FB7904
:10145C00002B0ED100220421114800F04AFB01227E
:10146C0001210F4800F045FB012202210C4800F03D
:10147C0040FBFB79012B0ED100222021084800F003
:10148C0038FB01220821064800F033FB0122102111
:10149C00034800F02EFB00BF0837BD4680BD00BFDF
:1014AC00000C0140FFF7EEFE0B480C490C4A0023E0
:1014BC0002E0D458C4500433C4188C42F9D3094AFE
:1014CC00094C002301E013600432A242FBD301F06B
:1014DC00FFFAFFF79FFB704700000020B0000020D0
:1014EC00202D0008B0000020C4040020FEE70000FE
:1014FC0080B500AF084B1B68074A43F0100313601C
:10150C00032000F023F90F2000F008F8FFF7FCFD92
:10151C000023184680BD00BF0020024080B582B079
:10152C0000AF7860124B1A68124B1B7819464FF4B7
:10153C007A73B3FBF1F3B2FBF3F3184600F03BF90B
:10154C000346002B01D001230EE07B680F2B0AD839
:10155C00002279684FF0FF3000F003F9064A7B68EF
:10156C001360002300E0012318460837BD4680BDF8
:10157C003C000020480000204400002080B400AF54
:10158C00054B1B781A46054B1B681344034A136022
:10159C0000BFBD4680BC704748000020B00400204E
:1015AC0080B400AF024B1B681846BD4680BC704728
:1015BC00B004002080B485B000AF78607B6803F085
:1015CC000703FB600C4BDB68BB60BA684FF6FF038C
:1015DC001340BB60FB681A02BB68134343F0BF6344
:1015EC0043F40033BB60044ABB68D36000BF1437BC
:1015FC00BD4680BC704700BF00ED00E080B400AF7A
:10160C00044BDB681B0A03F007031846BD4680BC7D
:10161C00704700BF00ED00E080B483B000AF03461C
:10162C00FB7197F90730002B0BDBFB7903F01F02E2
:10163C00064997F907305B09012000FA02F241F8DC
:10164C00232000BF0C37BD4680BC704700E100E092
:10165C0080B483B000AF03463960FB7197F9073053
:10166C00002B0ADB3B68DAB20C4997F90730120100
:10167C00D2B20B4483F800230AE03B68DAB2084983
:10168C00FB7903F00F03043B1201D2B20B441A7620
:10169C0000BF0C37BD4680BC704700BF00E100E0C6
:1016AC0000ED00E080B489B000AFF860B9607A60FA
:1016BC00FB6803F00703FB61FB69C3F10703042B11
:1016CC0028BF0423BB61FB690433062B02D9FB69D9
:1016DC00033B00E000237B614FF0FF32BB6902FA51
:1016EC0003F3DA43BB681A407B699A404FF0FF3131
:1016FC007B6901FA03F3D9437B680B40134318460B
:10170C002437BD4680BC704780B582B000AF78608E
:10171C007B68013BB3F1807F01D301230FE00A4AC0
:10172C007B68013B53600F214FF0FF30FFF790FFB8
:10173C00054B00229A60044B07221A6000231846BE
:10174C000837BD4680BD00BF10E000E080B582B018
:10175C0000AF78607868FFF72DFF00BF0837BD46F3
:10176C0080BD80B586B000AF0346B9607A60FB736C
:10177C0000237B61FFF742FF78617A68B96878696A
:10178C00FFF790FF024697F90F3011461846FFF706
:10179C005FFF00BF1837BD4680BD80B582B000AF7B
:1017AC000346FB7197F907301846FFF735FF00BF6A
:1017BC000837BD4680BD80B582B000AF78607868D0
:1017CC00FFF7A2FF034618460837BD4680BD000050
:1017DC0080B48BB000AF7860396000237B6200234B
:1017EC003B6248E101227B6A02FA03F3FB613B682E
:1017FC001B68FA691340BB61BA69FB699A4240F0F5
:10180C0037813B685B68A34A93425ED0A14A9342FE
:10181C0075D8A14A934258D09F4A93426FD89F4A99
:10182C00934252D09D4A934269D89D4A93424CD0E0
:10183C009B4A934263D89B4A934246D0994A93421F
:10184C005DD8122B2AD8122B59D801A252F823F0AA
:10185C00D7180008B1180008C318000805190008AB
:10186C000B1900080B1900080B1900080B190008BC
:10187C000B1900080B1900080B1900080B190008AC
:10188C000B1900080B1900080B1900080B1900089C
:10189C000B190008B9180008CD180008824A9342A9
:1018AC0013D02CE03B68DB683B6229E03B68DB68CB
:1018BC0004333B6224E03B68DB6808333B621FE087
:1018CC003B68DB680C333B621AE03B689B68002B7F
:1018DC0002D104233B6213E03B689B68012B05D1CA
:1018EC0008233B627B68FA691A6109E008233B62B2
:1018FC007B68FA695A6103E000233B6200E000BF99
:10190C00BB69FF2B01D87B6801E07B6804337B61EA
:10191C00BB69FF2B02D87B6A9B0002E07B6A083B09
:10192C009B003B617B691A680F213B6901FA03F349
:10193C00DB431A40396A3B6901FA03F31A437B69AA
:10194C001A603B685B6803F08053002B00F09080BA
:10195C00564B9B69554A43F001039361534B9B696A
:10196C0003F00103BB60BB68514A7B6A9B080233DE
:10197C0052F82330FB607B6A03F003039B000F22B9
:10198C0002FA03F3DB43FA681340FB607B68494AB5
:10199C0093420DD07B68484A934207D07B68474AF4
:1019AC00934201D1022304E0032302E0012300E06F
:1019BC0000237A6A02F0030292009340FA68134300
:1019CC00FB603B497B6A9B080233FA6841F8232091
:1019DC003B685B6803F48013002B06D0384B9A6885
:1019EC003749BB6913438B6006E0354B9A68BB697A
:1019FC00DB43334913408B603B685B6803F4001393
:101A0C00002B06D02E4BDA682D49BB691343CB60F3
:101A1C0006E02B4BDA68BB69DB4329491340CB60EA
:101A2C003B685B6803F40033002B06D0244B5A68E8
:101A3C002349BB6913434B6006E0214B5A68BB69D1
:101A4C00DB431F4913404B603B685B6803F48033F6
:101A5C00002B06D01A4B1A681949BB6913430B604B
:101A6C0006E0174B1A68BB69DB43154913400B6042
:101A7C007B6A01337B623B681A687B6A22FA03F348
:101A8C00002B7FF4AFAE00BF00BF2C37BD4680BC2F
:101A9C00704700BF0000321000003110000022100F
:101AAC000000211000001210000011100010024064
:101ABC000000014000080140000C014000100140F2
:101ACC000004014080B485B000AF78600B467B8089
:101ADC007B689A687B881340002B02D00123FB7330
:101AEC0001E00023FB73FB7B18461437BD4680BC1A
:101AFC00704780B483B000AF78600B467B80134690
:101B0C007B707B78002B03D07A887B681A6103E0AA
:101B1C007B881A047B681A6100BF0C37BD4680BCF9
:101B2C00704780B485B000AF78600B467B807B68D3
:101B3C00DB68FB607A88FB6813401A04FB68D943A6
:101B4C007B880B401A437B681A6100BF1437BD4673
:101B5C0080BC704780B586B000AF78607B68002B86
:101B6C0001D101236CE27B681B6803F00103002B9D
:101B7C0000F08780924B5B6803F00C03042B0CD0B5
:101B8C008F4B5B6803F00C03082B12D18C4B5B68FA
:101B9C0003F48033B3F5803F0BD1894B1B6803F4FE
:101BAC000033002B6CD07B685B68002B68D1012361
:101BBC0046E27B685B68B3F5803F06D1804B1B68BF
:101BCC007F4A43F4803313602EE07B685B68002B04
:101BDC000CD17B4B1B687A4A23F480331360784B0F
:101BEC001B68774A23F4802313601DE07B685B68D5
:101BFC00B3F5A02F0CD1724B1B68714A43F48023B0
:101C0C0013606F4B1B686E4A43F4803313600BE018
:101C1C006B4B1B686A4A23F480331360684B1B6858
:101C2C00674A23F4802313607B685B68002B13D016
:101C3C00FFF7B6FC386108E0FFF7B2FC02463B69DF
:101C4C00D31A642B01D90323FAE15D4B1B6803F40F
:101C5C000033002BF0D014E0FFF7A2FC386108E051
:101C6C00FFF79EFC02463B69D31A642B01D9032370
:101C7C00E6E1534B1B6803F40033002BF0D100E07A
:101C8C0000BF7B681B6803F00203002B63D04C4B36
:101C9C005B6803F00C03002B0BD0494B5B6803F023
:101CAC000C03082B1CD1464B5B6803F48033002BD0
:101CBC0016D1434B1B6803F00203002B05D07B6845
:101CCC001B69012B01D00123BAE13D4B1B6823F0AA
:101CDC00F8027B685B69DB00394913430B603AE01F
:101CEC007B681B69002B20D0364B01221A60FFF752
:101CFC0057FC386108E0FFF753FC02463B69D31AE6
:101D0C00022B01D903239BE12D4B1B6803F002032B
:101D1C00002BF0D02A4B1B6823F0F8027B685B6920
:101D2C00DB00274913430B6015E0264B00221A6099
:101D3C00FFF736FC386108E0FFF732FC02463B69DE
:101D4C00D31A022B01D903237AE11D4B1B6803F034
:101D5C000203002BF0D17B681B6803F00803002BF7
:101D6C003AD07B689B69002B19D0174B01221A6063
:101D7C00FFF716FC386108E0FFF712FC02463B69DE
:101D8C00D31A022B01D903235AE10D4B5B6A03F0E2
:101D9C000203002BF0D0012000F09AFA1CE00A4B51
:101DAC0000221A60FFF7FCFB38610FE0FFF7F8FB2D
:101DBC0002463B69D31A022B08D9032340E100BF2A
:101DCC000010024000004242800442429E4B5B6A7B
:101DDC0003F00203002BE9D17B681B6803F00403BA
:101DEC00002B00F0A6800023FB75974BDB6903F0FA
:101DFC008053002B0DD1944BDB69934A43F08053F5
:101E0C00D361914BDB6903F08053BB60BB6801234A
:101E1C00FB758E4B1B6803F48073002B18D18B4B16
:101E2C001B688A4A43F480731360FFF7B9FB38616F
:101E3C0008E0FFF7B5FB02463B69D31A642B01D9C6
:101E4C000323FDE0814B1B6803F48073002BF0D05F
:101E5C007B68DB68012B06D17B4B1B6A7A4A43F00B
:101E6C00010313622DE07B68DB68002B0CD1764BF1
:101E7C001B6A754A23F001031362734B1B6A724A87
:101E8C0023F0040313621CE07B68DB68052B0CD188
:101E9C006D4B1B6A6C4A43F0040313626A4B1B6A5A
:101EAC00694A43F0010313620BE0674B1B6A664AF5
:101EBC0023F001031362644B1B6A634A23F004038F
:101ECC0013627B68DB68002B15D0FFF769FB386168
:101EDC000AE0FFF765FB02463B69D31A41F28832F0
:101EEC00934201D90323ABE0574B1B6A03F0020367
:101EFC00002BEED014E0FFF753FB38610AE0FFF73C
:101F0C004FFB02463B69D31A41F28832934201D906
:101F1C00032395E04C4B1B6A03F00203002BEED11C
:101F2C00FB7D012B05D1484BDB69474A23F08053DD
:101F3C00D3617B68DB69002B00F08180424B5B68CE
:101F4C0003F00C03082B61D07B68DB69022B46D1B4
:101F5C003F4B00221A60FFF723FB386108E0FFF7C4
:101F6C001FFB02463B69D31A022B01D9032367E0FE
:101F7C00354B1B6803F00073002BF0D17B681B6A98
:101F8C00B3F5803F08D1304B5B6823F400327B689B
:101F9C009B682D4913434B602B4B5B6823F47412E5
:101FAC007B68196A7B685B6A0B43274913434B6058
:101FBC00274B01221A60FFF7F3FA386108E0FFF7AC
:101FCC00EFFA02463B69D31A022B01D9032337E0FF
:101FDC001D4B1B6803F00073002BF0D02FE01C4B43
:101FEC0000221A60FFF7DCFA386108E0FFF7D8FA34
:101FFC0002463B69D31A022B01D9032320E0124B72
:10200C001B6803F00073002BF0D118E07B68DB69D0
:10201C00012B01D1012313E00B4B5B68FB60FB68C8
:10202C0003F480327B681B6A9A4206D1FB6803F486
:10203C0070127B685B6A9A4201D0012300E0002396
:10204C0018461837BD4680BD001002400070004095
:10205C006000424280B584B000AF786039607B6824
:10206C00002B01D10123D0E06A4B1B6803F007035E
:10207C003A689A4210D9674B1B6823F007026549EE
:10208C003B6813430B60634B1B6803F007033A6810
:10209C009A4201D00123B8E07B681B6803F002036D
:1020AC00002B20D07B681B6803F00403002B05D0A9
:1020BC00594B5B68584A43F4E06353607B681B6878
:1020CC0003F00803002B05D0534B5B68524A43F4D2
:1020DC0060535360504B5B6823F0F0027B689B6845
:1020EC004D4913434B607B681B6803F00103002BC5
:1020FC0040D07B685B68012B07D1474B1B6803F40E
:10210C000033002B15D101237FE07B685B68022B29
:10211C0007D1414B1B6803F00073002B09D101233D
:10212C0073E03D4B1B6803F00203002B01D101232C
:10213C006BE0394B5B6823F003027B685B683649C4
:10214C0013434B60FFF72CFAF8600AE0FFF728FA0C
:10215C000246FB68D31A41F28832934201D9032319
:10216C0053E02D4B5B6803F00C027B685B689B00B3
:10217C009A42EBD1274B1B6803F007033A689A424B
:10218C0010D2244B1B6823F0070222493B681343EF
:10219C000B60204B1B6803F007033A689A4201D08E
:1021AC00012332E07B681B6803F00403002B08D08A
:1021BC00194B5B6823F4E0627B68DB6816491343B8
:1021CC004B607B681B6803F00803002B09D0124B93
:1021DC005B6823F460527B681B69DB000E49134378
:1021EC004B6000F021F802460B4B5B681B0903F0B7
:1021FC000F030A49CB5C22FA03F3094A1360094B1B
:10220C001B681846FFF78AF9002318461037BD469D
:10221C0080BD00BF0020024000100240F42C0008DA
:10222C003C0000204400002080B487B000AF0023A5
:10223C00FB600023BB6000237B6100237B600023D9
:10224C003B611E4B5B68FB60FB6803F00C03042BCB
:10225C0002D0082B03D027E0194B3B6127E0FB6829
:10226C009B0C03F00F03174AD35C7B60FB6803F4F1
:10227C008033002B10D0114B5B685B0C03F0010317
:10228C00114AD35CBB607B680D4A02FB03F2BB684E
:10229C00B2FBF3F37B6104E07B680C4A02FB03F3B3
:1022AC007B617B693B6102E0054B3B6100BF3B6995
:1022BC0018461C37BD4680BC704700BF001002405A
:1022CC0000127A00042D0008142D000800093D00AE
:1022DC0080B485B000AF78600A4B1B680A4AA2FB39
:1022EC0003235B0A7A6802FB03F3FB6000BFFB6805
:1022FC005A1EFA60002BF9D100BF00BF1437BD463F
:10230C0080BC70473C000020D34D621080B582B079
:10231C0000AF78607B68002B01D1012341E07B6822
:10232C0093F83D30DBB2002B06D17B68002283F89A
:10233C003C207868FEF71AFF7B68022283F83D2068
:10234C007B681A687B6804331946104600F056FA0D
:10235C007B68012283F846207B68012283F83E20AB
:10236C007B68012283F83F207B68012283F84020A0
:10237C007B68012283F841207B68012283F842208C
:10238C007B68012283F843207B68012283F8442078
:10239C007B68012283F845207B68012283F83D206D
:1023AC00002318460837BD4680BD000080B485B0B8
:1023BC0000AF78607B6893F83D30DBB2012B01D025
:1023CC00012335E07B68022283F83D207B681B6883
:1023DC00DA687B681B6842F00102DA607B681B6874
:1023EC00164A934209D07B681B68B3F1804F04D026
:1023FC007B681B68124A934211D17B681B689B68EF
:10240C0003F00703FB60FB68062B10D07B681B688E
:10241C001A687B681B6842F001021A6007E07B684F
:10242C001B681A687B681B6842F001021A60002363
:10243C0018461437BD4680BC704700BF002C0140C5
:10244C000004004080B584B000AF78607B681B68E6
:10245C00DB68FB607B681B681B69BB60BB6803F0B7
:10246C000203002B20D0FB6803F00203002B1BD0CF
:10247C007B681B686FF002021A617B6801221A7775
:10248C007B681B689B6903F00303002B03D07868FF
:10249C0000F098F905E0786800F08BF9786800F0A6
:1024AC009AF97B6800221A77BB6803F00403002BAF
:1024BC0020D0FB6803F00403002B1BD07B681B6847
:1024CC006FF004021A617B6802221A777B681B6822
:1024DC009B6903F44073002B03D0786800F072F909
:1024EC0005E0786800F065F9786800F074F97B68AD
:1024FC0000221A77BB6803F00803002B20D0FB687E
:10250C0003F00803002B1BD07B681B686FF00802DC
:10251C001A617B6804221A777B681B68DB6903F0FD
:10252C000303002B03D0786800F04CF905E07868C1
:10253C0000F03FF9786800F04EF97B6800221A77BA
:10254C00BB6803F01003002B20D0FB6803F01003D2
:10255C00002B1BD07B681B686FF010021A617B6824
:10256C0008221A777B681B68DB6903F44073002B25
:10257C0003D0786800F026F905E0786800F019F9C6
:10258C00786800F028F97B6800221A77BB6803F0A2
:10259C000103002B0CD0FB6803F00103002B07D0C8
:1025AC007B681B686FF001021A617868FEF780FD8A
:1025BC00BB6803F08003002B0CD0FB6803F0800396
:1025CC00002B07D07B681B686FF080021A6178685B
:1025DC0000F06FFABB6803F04003002B0CD0FB68D3
:1025EC0003F04003002B07D07B681B686FF04002A0
:1025FC001A61786800F0F8F8BB6803F02003002B30
:10260C000CD0FB6803F02003002B07D07B681B6801
:10261C006FF020021A61786800F042FA00BF1037A0
:10262C00BD4680BD80B584B000AF786039600023B2
:10263C00FB737B6893F83C30012B01D10223B4E08F
:10264C007B68012283F83C207B68022283F83D20C2
:10265C007B681B689B68BB60BB6823F07703BB601F
:10266C00BB6823F47F43BB607B681B68BA689A60C5
:10267C003B681B68B3F5005F3ED0B3F5005F00F21A
:10268C008780B3F5805F00F08680B3F5805F7FD8DC
:10269C00702B1AD0702B7BD8602B50D0602B77D836
:1026AC00502B3CD0502B73D8402B58D0402B6FD88C
:1026BC00302B64D0302B6BD8202B60D0202B67D8DC
:1026CC00002B5CD0102B5AD062E07B6818683B68FA
:1026DC0099683B685A683B68DB6800F06AF97B686C
:1026EC001B689B68BB60BB6843F07703BB607B686F
:1026FC001B68BA689A604FE07B6818683B689968F9
:10270C003B685A683B68DB6800F053F97B681B68D0
:10271C009A687B681B6842F480429A603CE07B6854
:10272C0018683B6859683B68DB681A4600F0CAF8C1
:10273C007B681B685021184600F021F92CE07B685F
:10274C0018683B6859683B68DB681A4600F0E8F883
:10275C007B681B686021184600F011F91CE07B684F
:10276C0018683B6859683B68DB681A4600F0AAF8A1
:10277C007B681B684021184600F001F90CE07B686F
:10278C001A683B681B681946104600F0F8F803E01D
:10279C000123FB7300E000BF7B68012283F83D201E
:1027AC007B68002283F83C20FB7B18461037BD4623
:1027BC0080BD80B483B000AF786000BF0C37BD46DD
:1027CC0080BC704780B483B000AF786000BF0C371A
:1027DC00BD4680BC704780B483B000AF786000BF4A
:1027EC000C37BD4680BC704780B483B000AF7860B6
:1027FC0000BF0C37BD4680BC7047000080B485B06C
:10280C0000AF786039607B681B68FB607B682B4A83
:10281C00934207D07B68B3F1804F03D07B68284A82
:10282C00934208D1FB6823F07003FB603B685B6844
:10283C00FA681343FB607B68204A934207D07B689D
:10284C00B3F1804F03D07B681D4A934208D1FB68DB
:10285C0023F44073FB603B68DB68FA681343FB604E
:10286C00FB6823F080023B685B691343FB607B6869
:10287C00FA681A603B689A687B68DA623B681A6887
:10288C007B689A627B680D4A934203D13B681A6954
:10289C007B681A637B6801225A617B681B6903F0B1
:1028AC000103002B05D07B681B6923F001027B68B8
:1028BC001A6100BF1437BD4680BC7047002C014024
:1028CC000004004080B487B000AFF860B9607A6053
:1028DC00FB681B6A7B61FB681B6A23F00102FB68C7
:1028EC001A62FB689B693B613B6923F0F0033B6117
:1028FC007B681B013A6913433B617B6923F00A0334
:10290C007B617A69BB6813437B61FB683A699A61A6
:10291C00FB687A691A6200BF1C37BD4680BC7047E1
:10292C0080B487B000AFF860B9607A60FB681B6A4E
:10293C007B61FB681B6A23F01002FB681A62FB6860
:10294C009B693B613B6923F470433B617B681B03D0
:10295C003A6913433B617B6923F0A0037B61BB683D
:10296C001B017A6913437B61FB683A699A61FB68C6
:10297C007A691A6200BF1C37BD4680BC704780B4B0
:10298C0085B000AF786039607B689B68FB60FB6842
:10299C0023F07003FB603A68FB68134343F00703B2
:1029AC00FB607B68FA689A6000BF1437BD4680BC38
:1029BC00704780B487B000AFF860B9607A603B6054
:1029CC00FB689B687B617B6923F47F437B613B687D
:1029DC001A027B681A43BB6813437A6913437B6101
:1029EC00FB687A699A6000BF1C37BD4680BC704793
:1029FC0080B485B000AF786039607B6893F83C3068
:102A0C00012B01D1022341E07B68012283F83C2099
:102A1C007B68022283F83D207B681B685B68FB6047
:102A2C007B681B689B68BB60FB6823F07003FB60D2
:102A3C003B681B68FA681343FB607B681B68FA6889
:102A4C005A607B681B68144A934209D07B681B68E8
:102A5C00B3F1804F04D07B681B68104A93420CD1B1
:102A6C00BB6823F08003BB603B685B68BA681343A8
:102A7C00BB607B681B68BA689A607B68012283F82C
:102A8C003D207B68002283F83C2000231846143735
:102A9C00BD4680BC704700BF002C014000040040C4
:102AAC0080B483B000AF786000BF0C37BD4680BCEB
:102ABC00704780B483B000AF786000BF0C37BD4660
:102ACC0080BC7047014B1868704700BF4C00002059
:102ADC0070B500260C4D0D4C641BA410A64209D1F8
:102AEC0000F0F6F800260A4D0A4C641BA410A6420E
:102AFC0005D170BD55F8043B98470136EEE755F803
:102B0C00043B98470136F2E7182D0008182D0008F1
:102B1C00182D00081C2D0008024B0146186800F007
:102B2C005FB800BF4C000020024B0146186800F053
:102B3C000BB800BF4C00002003460244934200D166
:102B4C00704703F8011BF9E738B50546002943D057
:102B5C0051F8043C0C1F002BB8BFE41800F0AAF885
:102B6C001E4A1368104633B9636014602846BDE8EA
:102B7C00384000F0A5B8A3420AD9216862189342E4
:102B8C0001BF1A685B685218226063600460EDE74D
:102B9C001A465B680BB1A342FAD911685018A042CF
:102BAC000BD120680144501883421160DED11868A3
:102BBC005B68014411605360D8E702D90C232B6089
:102BCC00D4E7206821188B4201BF19685B6809188B
:102BDC00216063605460C9E738BD00BF000100206C
:102BEC00F8B5CD1C25F0030508350C2D38BF0C2588
:102BFC00002D064601DBA94203D90C2333600020CB
:102C0C00F8BD00F057F821490A6814469CB9204FCA
:102C1C003B6823B92146304600F03CF83860294621
:102C2C00304600F037F8431C23D10C233046336078
:102C3C0000F046F8E3E723685B1B17D40B2B03D992
:102C4C0023601C44256004E06368A2420CBF0B6047
:102C5C005360304600F034F804F10B00231D20F0D3
:102C6C000700C21ACCD01B1AA350C9E722466468CD
:102C7C00CCE7C41C24F00304A042E3D0211A304654
:102C8C0000F008F80130DDD1CFE700BF00010020D3
:102C9C000401002038B50023054D044608462B607E
:102CAC00FEF7BAFA431C02D12B6803B1236038BD7E
:102CBC00B4040020014800F009B800BFBC04002097
:102CCC00014800F004B800BFBC04002070477047F6
:102CDC00F8B500BFF8BC08BC9E467047F8B500BFFD
:082CEC00F8BC08BC9E467047CD
:102CF40000000000000000000102030406070809A8
:102D040002030405060708090A0B0C0D0E0F101028
:042D140001020000B8
:042D1800310100087D
:042D1C000D0100089D
:102D2000000801400008014000080140000801407F
:102D30000008014000080140000801408000000137
:102D400000020004000800100020000000630A03D5
:102D500014000000016317020800000000127A004E
:102D600002000000100000000100000050000020E0
:102D70000000000000000000000000000000000053
:102D80000000000000000000000000000000000043
:102D90000000000000000000000000000000000033
:102DA0000000000000000000000000000000000023
:102DB0000000000000000000000000000000000013
:102DC0000000000000000000000000000000000003
:04000005080014B12A
:00000001FF
