:020000040800F2
:1000000000280020C1150008D9120008DF120008DE
:10001000E5120008EB120008F112000800000000D1
:10002000000000000000000000000000F7120008BF
:1000300003130008000000000F1300081B13000842
:100040000916000809160008091600080916000814
:100050000916000809160008091600080916000804
:1000600009160008091600080916000809160008F4
:1000700009160008091600080916000809160008E4
:1000800009160008091600080916000809160008D4
:1000900009160008091600080916000809160008C4
:1000A00009160008091600080916000809160008B4
:1000B00029130008091600080000000009160008AE
:1000C00009160008000000000000000009160008E2
:1000D00000000000091600080916000800000000D2
:1000E000091600080916000809160008000000009B
:1000F0000000000000000000000000000000000000
:0C01000000000000000000005FF808F1A3
:10010C0010B5054C237833B9044B13B10448AFF345
:10011C0000800123237010BDB000002000000000FF
:10012C00EC2D000808B5034B1BB103490348AFF392
:10013C00008008BD00000000B4000020EC2D000879
:10014C0080B582B000AF0346FB71FB79032B73D8EB
:10015C0001A252F823F000BF75010008A9010008A4
:10016C00DD01000811020008364B1B78184600F020
:10017C00CDF801220821344801F043FD0022102162
:10018C00314801F03EFD002220212F4801F039FDBD
:10019C00002240212C4801F034FD4EE0294B5B78C5
:1001AC00184600F0B3F800220821274801F029FD79
:1001BC0001221021244801F024FD00222021224894
:1001CC0001F01FFD002240211F4801F01AFD34E010
:1001DC001C4B9B78184600F099F8002208211A480D
:1001EC0001F00FFD00221021174801F00AFD012239
:1001FC002021154801F005FD00224021124801F094
:10020C0000FD1AE00F4BDB78184600F07FF8002257
:10021C0008210D4801F0F5FC002210210A4801F0DC
:10022C00F0FC00222021084801F0EBFC01224021C7
:10023C00054801F0E6FC00E000BF00BF0837BD46F2
:10024C0080BD00BF980200200008014080B400AFC0
:10025C001F4B5B781F4AA2FB0323DB08DAB21E4B51
:10026C001A701D4B1B78002B02D11B4B0A221A70E3
:10027C00174B5A78174BA3FB0213D9080B469B005C
:10028C000B445B00D31ADAB2134B5A70134B5B78E6
:10029C00104AA2FB0323DB08DAB20F4B9A700E4B09
:1002AC009B78002B02D10C4B0A229A700B4B5A787C
:1002BC00084BA3FB0213D9080B469B000B445B00B5
:1002CC00D31ADAB2044BDA7000BFBD4680BC70475B
:1002DC002C000020CDCCCCCC980200203400002087
:1002EC0080B500AF074B5B78013BDAB2054B5A7017
:1002FC00054B5B78013BDAB2034B5A70FFF7A6FF54
:10030C0000BF80BD2C0000203400002080B582B0DE
:10031C0000AF0346FB71FB790A2B00F28D8201A220
:10032C0052F823F0CF03000841040008B30400087E
:10033C0025050008A105000813060008850600081D
:10034C00F706000869070008CB0700085D030008E2
:10035C008E4B1B688E4A11880122184601F051FC05
:10036C008A4B5B688A4A51880122184601F049FC85
:10037C00864B9B68864A91880122184601F041FC05
:10038C00824BDB68824AD1880122184601F039FC85
:10039C007E4B1B697E4A11890122184601F031FC03
:1003AC007A4B5B697A4A51890122184601F029FC83
:1003BC00764B9B69764A91890122184601F021FC03
:1003CC0073E2724B1B68724A11880022184601F0C6
:1003DC0018FC6E4B5B686E4A51880022184601F07F
:1003EC0010FC6A4B9B686A4A91880022184601F0FF
:1003FC0008FC664BDB68664AD1880022184601F07F
:10040C0000FC624B1B69624A11890022184601F0FC
:10041C00F8FB5E4B5B695E4A51890022184601F07D
:10042C00F0FB5A4B9B695A4A91890122184601F0FC
:10043C00E8FB3AE2554B1B68554A118801221846D5
:10044C0001F0DFFB514B5B68514A51880022184682
:10045C0001F0D7FB4D4B9B684D4A91880022184602
:10046C0001F0CFFB494BDB68494AD1880122184681
:10047C0001F0C7FB454B1B69454A118901221846FF
:10048C0001F0BFFB414B5B69414A5189012218467F
:10049C0001F0B7FB3D4B9B693D4A918901221846FF
:1004AC0001F0AFFB01E2394B1B68394A118800227D
:1004BC00184601F0A6FB354B5B68354A5188002283
:1004CC00184601F09EFB314B9B68314A9188012202
:1004DC00184601F096FB2D4BDB682D4AD188002283
:1004EC00184601F08EFB294B1B69294A1189002201
:1004FC00184601F086FB254B5B69254A5189012280
:10050C00184601F07EFB214B9B69214A9189002200
:10051C00184601F076FBC8E11C4B1B681C4A11887D
:10052C000022184601F06DFB184B5B68184A518885
:10053C000022184601F065FB144B9B68144A918805
:10054C000022184601F05DFB104BDB68104AD18885
:10055C000022184601F055FB0C4B1B690C4A118903
:10056C000122184601F04DFB084B5B69084A518982
:10057C000122184601F045FB044B9B69044A918902
:10058C000022184601F03DFB8FE100BF0000002067
:10059C001C000020A64B1B68A64A11880122184695
:1005AC0001F02FFBA24B5B68A24A5188002218462F
:1005BC0001F027FB9E4B9B689E4A918800221846AF
:1005CC0001F01FFB9A4BDB689A4AD188012218462E
:1005DC0001F017FB964B1B69964A118901221846AC
:1005EC0001F00FFB924B5B69924A5189002218462D
:1005FC0001F007FB8E4B9B698E4A918900221846AD
:10060C0001F0FFFA51E18A4B1B688A4A11880022DB
:10061C00184601F0F6FA864B5B68864A518801222F
:10062C00184601F0EEFA824B9B68824A91880022B0
:10063C00184601F0E6FA7E4BDB687E4AD188002230
:10064C00184601F0DEFA7A4B1B697A4A11890122AD
:10065C00184601F0D6FA764B5B69764A518900222E
:10066C00184601F0CEFA724B9B69724A91890022AE
:10067C00184601F0C6FA18E16D4B1B686D4A1188DB
:10068C000022184601F0BDFA694B5B68694A518833
:10069C000122184601F0B5FA654B9B68654A9188B2
:1006AC000022184601F0ADFA614BDB68614AD18833
:1006BC000022184601F0A5FA5D4B1B695D4A1189B1
:1006CC000022184601F09DFA594B5B69594A518931
:1006DC000022184601F095FA554B9B69554A9189B1
:1006EC000022184601F08DFADFE0514B1B68514A8D
:1006FC0011880022184601F084FA4D4B5B684D4A74
:10070C0051880022184601F07CFA494B9B68494AF3
:10071C0091880022184601F074FA454BDB68454A73
:10072C00D1880122184601F06CFA414B1B69414AF1
:10073C0011890122184601F064FA3D4B5B693D4A70
:10074C0051890122184601F05CFA394B9B69394AF0
:10075C0091890122184601F054FAA6E0344B5B68EB
:10076C00344A51880022184601F04BFA304B9B68F2
:10077C00304A91880022184601F043FA2C4BDB6872
:10078C002C4AD1880022184601F03BFA284B1B69F1
:10079C00284A11890022184601F033FA244B5B6970
:1007AC00244A51890022184601F02BFA204B9B69F0
:1007BC00204A91890022184601F023FA75E01C4B5F
:1007CC001B681C4A11880022184601F01AFA184BB3
:1007DC005B68184A51880022184601F012FA144B33
:1007EC009B68144A91880022184601F00AFA104BB3
:1007FC00DB68104AD1880022184601F002FA0C4B33
:10080C001B690C4A11890122184601F0FAF9084BB0
:10081C005B69084A51890022184601F0F2F9044B31
:10082C009B69044A91890022184601F0EAF93CE0E0
:10083C00000000201C0000201E4B1B681E4A118863
:10084C000122184601F0DDF91A4B5B681A4A5188EF
:10085C000122184601F0D5F9164B9B68164A91886F
:10086C000122184601F0CDF9124BDB68124AD188EF
:10087C000122184601F0C5F90E4B1B690E4A11896D
:10088C000122184601F0BDF90A4B5B690A4A5189ED
:10089C000122184601F0B5F9064B9B69064A91896D
:1008AC000022184601F0ADF900BF00BF0837BD4665
:1008BC0080BD00BF000000201C00002080B582B06D
:1008CC0000AF0346FB71FB79032B39D801A252F818
:1008DC0023F000BFF10800084D0900084D0900087D
:1008EC004D0900081A4A1B491B4800F05DFD1B4AC4
:1008FC001B491C4800F058FD1B4BDB78012B06D123
:10090C00FFF7EEFC19494FF47A7000F03FFB164BE1
:10091C001B79012B16D1164B1B78032B02D9144BC8
:10092C0000221A70124B1B785A1CD1B2104A11704B
:10093C001846FFF705FC0F49C82000F027FB01E023
:10094C0000BF00E000BF00BF0837BD4680BD00BF40
:10095C00310400202C000020F8000020320400207C
:10096C00340000204000002030040020330400201C
:10097C00D40000203404002080B483B000AF786031
:10098C00084B00221A607B68074A82FB0312921004
:10099C00DB17D31A054A136000BF0C37BD4680BC69
:1009AC00704700BFCC00002067666666D000002050
:1009BC0080B400AF074B1B68013B064A1360054B24
:1009CC001B68002B02D1044B01221A6000BFBD46EC
:1009DC0080BC7047D0000020CC00002080B500AF58
:1009EC001C4B1B78022B24D0022B31DC002B02D0A9
:1009FC00012B0AD02CE0002000F020F90346002B3C
:100A0C0021D0144B01221A701DE0002000F016F9C1
:100A1C000346002B03D10F4B00221A7015E0002067
:100A2C0000F026F90346002B0FD00A4B02221A7055
:100A3C000BE0002000F002F90346002B07D1054B18
:100A4C0000221A7003E000BF02E000BF00E000BF0C
:100A5C0000BF80BDD600002080B582B000AF034639
:100A6C00FB71FB79022B12D0022B16DC002B02D06F
:100A7C00012B06D011E001210B4801F0ABF8034625
:100A8C000DE00221084801F0A5F8034607E0042117
:100A9C00054801F09FF8034601E000BF012318460A
:100AAC000837BD4680BD00BF0008014090B583B03B
:100ABC0000AF0023FB71A3E0FA79FB795549895CFF
:100ACC00554AD154FC79FB791846FFF7C5FF03460C
:100ADC001A46504B1A55FB794E4AD25CFB794E495B
:100AEC00CB5C9A4205D1FA79FB794A49895C4B4A2D
:100AFC00D154FB79494AD35C002B13D1FB79484A7A
:100B0C00002122F81310FB79464A32F81330632B7C
:100B1C0008D8FB79434A32F81320013291B2414A8A
:100B2C0022F81310FB793D4AD35C012B13D1FB79CE
:100B3C003C4A002122F81310FB79394A32F8133061
:100B4C00072B08D8FB79364A32F81320013291B2C0
:100B5C00334A22F81310FB79304AD35C002B25D191
:100B6C00FB792F4A32F81330072B0FD9FB792D4A1A
:100B7C0032F81330632B04D8FB792B4A0121D15462
:100B8C0024E0FB79294A0121D1541FE0FB79254A45
:100B9C0032F81330632B04D8FB79254A0121D15448
:100BAC0014E0FB79234A0121D1540FE0FB791E4A52
:100BBC000021D154FB791D4A0021D154FB791C4AE8
:100BCC000021D154FB791B4A0021D154FB79002B15
:100BDC0002D1194B00221A70FB79104AD35C002BFE
:100BEC000CBF01230023DBB25AB2134B1B785BB250
:100BFC0013435BB2DAB2104B1A70FB790133FB7101
:100C0C00FB79022B7FF658AF00BF00BF0C37BD46F7
:100C1C0090BD00BFDC000020E0000020D8000020C8
:100C2C00EC000020E4000020380400202804002000
:100C3C000401002068040020D700002080B483B099
:100C4C0000AF0346FB71FB79022B01D9002307E0AF
:100C5C00FB79064AD35C012B0CBF01230023DBB2CA
:100C6C0018460C37BD4680BC704700BF38040020C6
:100C7C0080B483B000AF0346FB71FB79022B01D922
:100C8C00002307E0FB79064AD35C012B0CBF012340
:100C9C000023DBB218460C37BD4680BC704700BF42
:100CAC002804002080B500AF0A4B1B78012B05D11E
:100CBC0000224FF40041084800F0A3FF054B1B78BD
:100CCC00002B05D101224FF40041034800F099FF9D
:100CDC0000BF80BDD70000200008014080B500AFE8
:100CEC0000F08EFC00F062F800F0EAF800F09CF8DE
:100CFC00234801F0E3FB4FF47A70FFF73DFE01222D
:100D0C004021204800F07DFF01224FF480411E4815
:100D1C0000F077FF1D494FF47A7000F037F91C4949
:100D2C004FF47A7000F032F91A494FF47A7000F0EF
:100D3C002DF919494FF47A7000F028F917494FF43E
:100D4C007A7000F023F916494FF47A7000F01EF90E
:100D5C00144B1B68012B07D140210A4800F069FF96
:100D6C004FF47A70FFF708FE00F044FAFFF79AFF91
:100D7C00FFF734FE0C4B1B781846FFF79FFDE7E797
:100D8C006C040020000C01400008014030040020DD
:100D9C0031040020320400203304002034040020ED
:100DAC0035040020CC000020D500002080B590B088
:100DBC0000AF07F1180328220021184601F044FF68
:100DCC003B1D00221A605A609A60DA601A61022395
:100DDC00BB610123BB621023FB6200237B6307F121
:100DEC001803184600F03EFF0346002B01D000F01C
:100DFC00C7F80F237B600023BB600023FB604FF41C
:100E0C0080633B614FF480637B613B1D002118467E
:100E1C0001F0A8F90346002B01D000F0B1F800BF97
:100E2C004037BD4680BD000080B586B000AF07F1ED
:100E3C00080300221A605A609A60DA603B4600226E
:100E4C001A605A601D4B4FF080421A601B4B41F6E2
:100E5C003F725A60194B00229A60184B0922DA60D3
:100E6C00164B00221A61154B00229A61134801F0AF
:100E7C00D5FA0346002B01D000F082F84FF48053D2
:100E8C00BB6007F1080319460C4801F053FC0346FC
:100E9C00002B01D000F074F800233B6000237B6032
:100EAC003B461946054801F02BFE0346002B01D0AA
:100EBC0000F066F800BF1837BD4680BD6C040020FA
:100ECC0080B586B000AF07F1080300221A605A60A3
:100EDC009A60DA60274B9B69264A43F004039361BE
:100EEC00244B9B6903F004037B607B68214B9B695B
:100EFC00204A43F0080393611E4B9B6903F00803DF
:100F0C003B603B6800224FF6F8711B4800F079FEFD
:100F1C0000227F21194800F074FE0723BB600023D8
:100F2C00FB6001233B6107F108031946124800F0EE
:100F3C00D7FC4FF6F873BB600123FB6000233B61C9
:100F4C0002237B6107F1080319460B4800F0C8FC2B
:100F5C007F23BB600123FB6000233B6102237B6189
:100F6C0007F108031946054800F0BAFC00BF183712
:100F7C00BD4680BD0010024000080140000C01403D
:100F8C0080B400AF72B600BFFEE7000080B584B03D
:100F9C0000AF786039603B6800221A700C2001F0B9
:100FAC0043FE0346FB60FB68002B49D07B689AB27A
:100FBC00FB681A80FB683A685A607B68B3F57A7FE5
:100FCC0020D3214B1B7819467B68204AA2FB0323B4
:100FDC009B0919441E4BA3FB01239A0913465B0082
:100FEC0013445A011344CA1A1346BB72BB7A194AEA
:100FFC0052F82320FB689A60BB7A1649FA6841F8CC
:10100C0023201EE0144B1B7819467B68134AA2FB65
:10101C000323DB08CA18124BA3FB02135B096421E0
:10102C0001FB03F3D31AFB72FB7A0E4A52F823200E
:10103C00FB689A60FB7A0B49FA6841F8232000E0C0
:10104C0000BF1037BD4680BDF3000020D34D6210A9
:10105C0003B57EA59C020020F2000020CDCCCCCCA8
:10106C001F85EB510801002080B586B000AF4F4BB7
:10107C001B78002B4FD14E4B1B781A464D4B53F817
:10108C0022307B613DE07B691B884B4AA2FB03232A
:10109C00DB089BB2494AA2FB03125209642101FBF3
:1010AC0002F29B1A9BB2FB730C2001F0BDFD0346B0
:1010BC00BB60BB68002B74D07B691B88404AA2FBC9
:1010CC00031292094FF47A7101FB02F29B1A9AB245
:1010DC00BB681A807B695A68BB685A60FB7B394ACB
:1010EC0052F82320BB689A60FB7B3649BA6841F8FA
:1010FC0023207B697B607B699B687B61786801F04E
:10110C009BFD7B69002BBED1294B1B781946294BC3
:10111C00002243F82120254B1B781A46294B53F803
:10112C0022303B610BE03B695B6801221A703B6922
:10113C003B603B699B683B61386801F07DFD3B6916
:10114C00002BF0D1194B1B7819461E4B002243F88B
:10115C002120164B1B780133184A82FB03125111C4
:10116C00DA178A1A642101FB02F29A1AD2B20F4BD7
:10117C001A700E4B1B78622B14D90D4B1B785A1C12
:10118C00114B83FB021313449911D317C91A0B4645
:10119C005B000B4459010B44D11ACAB2044B1A70B0
:1011AC0000E000BF1837BD4680BD00BFF200002034
:1011BC00F30000209C020020CDCCCCCC1F85EB5141
:1011CC00D34D62100801002003B57EA580B582B016
:1011DC0000AF78607B681B68B3F1804F05D1FFF7D7
:1011EC0043FFFFF763FCFFF7E3FB00BF0837BD4687
:1011FC0080BD000080B500AF074B1B78012B09D1D7
:10120C004FF48041054800F014FD03494FF47A7007
:10121C00FFF7BCFE00BF80BD300400200008014079
:10122C0080B485B000AF154B9B69144A43F00103A1
:10123C009361124B9B6903F00103BB60BB680F4BBE
:10124C00DB690E4A43F08053D3610C4BDB6903F02E
:10125C0080537B607B680A4B5B68FB60FB6823F008
:10126C00E063FB60FB6843F08063FB60044AFB684F
:10127C00536000BF1437BD4680BC7047001002405D
:10128C000000014080B584B000AF78607B681B68BB
:10129C00B3F1804F13D10C4BDB690B4A43F00103C4
:1012AC00D361094BDB6903F00103FB60FB6800228F
:1012BC0000211C2000F0DDFA1C2000F0F6FA00BF23
:1012CC001037BD4680BD00BF0010024080B400AF97
:1012DC00FEE780B400AFFEE780B400AFFEE780B459
:1012EC0000AFFEE780B400AFFEE780B400AF00BFF4
:1012FC00BD4680BC704780B400AF00BFBD4680BC0B
:10130C00704780B400AF00BFBD4680BC704780B54D
:10131C0000AF00F0BBF900BF80BD000080B500AF8E
:10132C00024801F017F900BF80BD00BF6C0400201B
:10133C0080B586B000AF7860144A154BD31A7B6128
:10134C007B693B61134B1B68002B02D1114B124A7A
:10135C001A60104B1A687B6813443A699A4207D298
:10136C0001F038FC03460C221A604FF0FF3309E001
:10137C00084B1B68FB60074B1A687B681344054AD3
:10138C001360FB6818461837BD4680BD0028002046
:10139C0000040000F4000020C804002080B400AF5A
:1013AC0000BFBD4680BC704780B584B000AFF8600C
:1013BC00B9607A60FB681B78022B42D0022B5EDC92
:1013CC00002B02D0012B1ED059E07B681B78012B1F
:1013DC0057D1FB6802221A70BB681B78184600F0C4
:1013EC00B9F8BB681B791A464FF47A7303FB02F306
:1013FC0079681846FFF7CAFDBB681B790133DAB26E
:10140C00BB685A703DE07B681B78012B3BD1FB68B5
:10141C0000221A70BB681B78184600F03BF8BB68BA
:10142C009B781A464FF47A7303FB02F379681846DB
:10143C00FFF7ACFDBB689B780133DAB2BB685A701E
:10144C0021E07B681B78012B1FD1FB6801221A70ED
:10145C00BB681B78184600F04DF8BB68DB781A4661
:10146C004FF47A7303FB02F379681846FFF78EFD8D
:10147C00BB68DB780133DAB2BB685A7005E000BF99
:10148C0004E000BF02E000BF00E000BF00BF103767
:10149C00BD4680BD80B582B000AF0346FB71FB79C1
:1014AC00002B0ED100220121114800F0AAFB0122D1
:1014BC0002210F4800F0A5FB012204210C4800F08A
:1014CC00A0FBFB79012B0ED100220821084800F06B
:1014DC0098FB01221021064800F093FB01222021E9
:1014EC00034800F08EFB00BF0837BD4680BD00BF2F
:1014FC00000C014080B582B000AF0346FB71FB7954
:10150C00002B0ED100220221114800F07AFB01229F
:10151C0004210F4800F075FB012201210C4800F05A
:10152C0070FBFB79012B0ED100221021084800F032
:10153C0068FB01222021064800F063FB01220821F0
:10154C00034800F05EFB00BF0837BD4680BD00BFFE
:10155C00000C014080B582B000AF0346FB71FB79F3
:10156C00002B0ED100220421114800F04AFB01226D
:10157C0001210F4800F045FB012202210C4800F02C
:10158C0040FBFB79012B0ED100222021084800F0F2
:10159C0038FB01220821064800F033FB0122102100
:1015AC00034800F02EFB00BF0837BD4680BD00BFCE
:1015BC00000C0140FFF7F2FE0B480C490C4A0023CB
:1015CC0002E0D458C4500433C4188C42F9D3094AED
:1015DC00094C002301E013600432A242FBD301F05A
:1015EC00FFFAFFF77BFB704700000020B0000020E3
:1015FC00302E0008B0000020C8040020FEE70000D8
:10160C0080B500AF084B1B68074A43F0100313600A
:10161C00032000F023F90F2000F008F8FFF700FE7C
:10162C000023184680BD00BF0020024080B582B068
:10163C0000AF7860124B1A68124B1B7819464FF4A6
:10164C007A73B3FBF1F3B2FBF3F3184600F03BF9FA
:10165C000346002B01D001230EE07B680F2B0AD828
:10166C00002279684FF0FF3000F003F9064A7B68DE
:10167C001360002300E0012318460837BD4680BDE7
:10168C003C000020480000204400002080B400AF43
:10169C00054B1B781A46054B1B681344034A136011
:1016AC0000BFBD4680BC704748000020B404002039
:1016BC0080B400AF024B1B681846BD4680BC704717
:1016CC00B404002080B485B000AF78607B6803F070
:1016DC000703FB600C4BDB68BB60BA684FF6FF037B
:1016EC001340BB60FB681A02BB68134343F0BF6333
:1016FC0043F40033BB60044ABB68D36000BF1437AB
:10170C00BD4680BC704700BF00ED00E080B400AF68
:10171C00044BDB681B0A03F007031846BD4680BC6C
:10172C00704700BF00ED00E080B483B000AF03460B
:10173C00FB7197F90730002B0BDBFB7903F01F02D1
:10174C00064997F907305B09012000FA02F241F8CB
:10175C00232000BF0C37BD4680BC704700E100E081
:10176C0080B483B000AF03463960FB7197F9073042
:10177C00002B0ADB3B68DAB20C4997F907301201EF
:10178C00D2B20B4483F800230AE03B68DAB2084972
:10179C00FB7903F00F03043B1201D2B20B441A760F
:1017AC0000BF0C37BD4680BC704700BF00E100E0B5
:1017BC0000ED00E080B489B000AFF860B9607A60E9
:1017CC00FB6803F00703FB61FB69C3F10703042B00
:1017DC0028BF0423BB61FB690433062B02D9FB69C8
:1017EC00033B00E000237B614FF0FF32BB6902FA40
:1017FC0003F3DA43BB681A407B699A404FF0FF3120
:10180C007B6901FA03F3D9437B680B4013431846F9
:10181C002437BD4680BC704780B582B000AF78607D
:10182C007B68013BB3F1807F01D301230FE00A4AAF
:10183C007B68013B53600F214FF0FF30FFF790FFA7
:10184C00054B00229A60044B07221A6000231846AD
:10185C000837BD4680BD00BF10E000E080B582B007
:10186C0000AF78607868FFF72DFF00BF0837BD46E2
:10187C0080BD80B586B000AF0346B9607A60FB735B
:10188C0000237B61FFF742FF78617A68B968786959
:10189C00FFF790FF024697F90F3011461846FFF7F5
:1018AC005FFF00BF1837BD4680BD80B582B000AF6A
:1018BC000346FB7197F907301846FFF735FF00BF59
:1018CC000837BD4680BD80B582B000AF78607868BF
:1018DC00FFF7A2FF034618460837BD4680BD00003F
:1018EC0080B48BB000AF7860396000237B6200233A
:1018FC003B6248E101227B6A02FA03F3FB613B681D
:10190C001B68FA691340BB61BA69FB699A4240F0E3
:10191C0037813B685B68A34A93425ED0A14A9342ED
:10192C0075D8A14A934258D09F4A93426FD89F4A88
:10193C00934252D09D4A934269D89D4A93424CD0CF
:10194C009B4A934263D89B4A934246D0994A93420E
:10195C005DD8122B2AD8122B59D801A252F823F099
:10196C00E7190008C1190008D3190008151A000856
:10197C001B1A00081B1A00081B1A00081B1A000867
:10198C001B1A00081B1A00081B1A00081B1A000857
:10199C001B1A00081B1A00081B1A00081B1A000847
:1019AC001B1A0008C9190008DD190008824A934265
:1019BC0013D02CE03B68DB683B6229E03B68DB68BA
:1019CC0004333B6224E03B68DB6808333B621FE076
:1019DC003B68DB680C333B621AE03B689B68002B6E
:1019EC0002D104233B6213E03B689B68012B05D1B9
:1019FC0008233B627B68FA691A6109E008233B62A1
:101A0C007B68FA695A6103E000233B6200E000BF87
:101A1C00BB69FF2B01D87B6801E07B6804337B61D9
:101A2C00BB69FF2B02D87B6A9B0002E07B6A083BF8
:101A3C009B003B617B691A680F213B6901FA03F338
:101A4C00DB431A40396A3B6901FA03F31A437B6999
:101A5C001A603B685B6803F08053002B00F09080A9
:101A6C00564B9B69554A43F001039361534B9B6959
:101A7C0003F00103BB60BB68514A7B6A9B080233CD
:101A8C0052F82330FB607B6A03F003039B000F22A8
:101A9C0002FA03F3DB43FA681340FB607B68494AA4
:101AAC0093420DD07B68484A934207D07B68474AE3
:101ABC00934201D1022304E0032302E0012300E05E
:101ACC0000237A6A02F0030292009340FA681343EF
:101ADC00FB603B497B6A9B080233FA6841F8232080
:101AEC003B685B6803F48013002B06D0384B9A6874
:101AFC003749BB6913438B6006E0354B9A68BB6969
:101B0C00DB43334913408B603B685B6803F4001381
:101B1C00002B06D02E4BDA682D49BB691343CB60E2
:101B2C0006E02B4BDA68BB69DB4329491340CB60D9
:101B3C003B685B6803F40033002B06D0244B5A68D7
:101B4C002349BB6913434B6006E0214B5A68BB69C0
:101B5C00DB431F4913404B603B685B6803F48033E5
:101B6C00002B06D01A4B1A681949BB6913430B603A
:101B7C0006E0174B1A68BB69DB43154913400B6031
:101B8C007B6A01337B623B681A687B6A22FA03F337
:101B9C00002B7FF4AFAE00BF00BF2C37BD4680BC1E
:101BAC00704700BF000032100000311000002210FE
:101BBC000000211000001210000011100010024053
:101BCC000000014000080140000C014000100140E1
:101BDC000004014080B485B000AF78600B467B8078
:101BEC007B689A687B881340002B02D00123FB731F
:101BFC0001E00023FB73FB7B18461437BD4680BC09
:101C0C00704780B483B000AF78600B467B8013467E
:101C1C007B707B78002B03D07A887B681A6103E099
:101C2C007B881A047B681A6100BF0C37BD4680BCE8
:101C3C00704780B485B000AF78600B467B807B68C2
:101C4C00DB68FB607A88FB6813401A04FB68D94395
:101C5C007B880B401A437B681A6100BF1437BD4662
:101C6C0080BC704780B586B000AF78607B68002B75
:101C7C0001D101236CE27B681B6803F00103002B8C
:101C8C0000F08780924B5B6803F00C03042B0CD0A4
:101C9C008F4B5B6803F00C03082B12D18C4B5B68E9
:101CAC0003F48033B3F5803F0BD1894B1B6803F4ED
:101CBC000033002B6CD07B685B68002B68D1012350
:101CCC0046E27B685B68B3F5803F06D1804B1B68AE
:101CDC007F4A43F4803313602EE07B685B68002BF3
:101CEC000CD17B4B1B687A4A23F480331360784BFE
:101CFC001B68774A23F4802313601DE07B685B68C4
:101D0C00B3F5A02F0CD1724B1B68714A43F480239E
:101D1C0013606F4B1B686E4A43F4803313600BE007
:101D2C006B4B1B686A4A23F480331360684B1B6847
:101D3C00674A23F4802313607B685B68002B13D005
:101D4C00FFF7B6FC386108E0FFF7B2FC02463B69CE
:101D5C00D31A642B01D90323FAE15D4B1B6803F4FE
:101D6C000033002BF0D014E0FFF7A2FC386108E040
:101D7C00FFF79EFC02463B69D31A642B01D903235F
:101D8C00E6E1534B1B6803F40033002BF0D100E069
:101D9C0000BF7B681B6803F00203002B63D04C4B25
:101DAC005B6803F00C03002B0BD0494B5B6803F012
:101DBC000C03082B1CD1464B5B6803F48033002BBF
:101DCC0016D1434B1B6803F00203002B05D07B6834
:101DDC001B69012B01D00123BAE13D4B1B6823F099
:101DEC00F8027B685B69DB00394913430B603AE00E
:101DFC007B681B69002B20D0364B01221A60FFF741
:101E0C0057FC386108E0FFF753FC02463B69D31AD4
:101E1C00022B01D903239BE12D4B1B6803F002031A
:101E2C00002BF0D02A4B1B6823F0F8027B685B690F
:101E3C00DB00274913430B6015E0264B00221A6088
:101E4C00FFF736FC386108E0FFF732FC02463B69CD
:101E5C00D31A022B01D903237AE11D4B1B6803F023
:101E6C000203002BF0D17B681B6803F00803002BE6
:101E7C003AD07B689B69002B19D0174B01221A6052
:101E8C00FFF716FC386108E0FFF712FC02463B69CD
:101E9C00D31A022B01D903235AE10D4B5B6A03F0D1
:101EAC000203002BF0D0012000F09AFA1CE00A4B40
:101EBC0000221A60FFF7FCFB38610FE0FFF7F8FB1C
:101ECC0002463B69D31A022B08D9032340E100BF19
:101EDC000010024000004242800442429E4B5B6A6A
:101EEC0003F00203002BE9D17B681B6803F00403A9
:101EFC00002B00F0A6800023FB75974BDB6903F0E9
:101F0C008053002B0DD1944BDB69934A43F08053E3
:101F1C00D361914BDB6903F08053BB60BB68012339
:101F2C00FB758E4B1B6803F48073002B18D18B4B05
:101F3C001B688A4A43F480731360FFF7B9FB38615E
:101F4C0008E0FFF7B5FB02463B69D31A642B01D9B5
:101F5C000323FDE0814B1B6803F48073002BF0D04E
:101F6C007B68DB68012B06D17B4B1B6A7A4A43F0FA
:101F7C00010313622DE07B68DB68002B0CD1764BE0
:101F8C001B6A754A23F001031362734B1B6A724A76
:101F9C0023F0040313621CE07B68DB68052B0CD177
:101FAC006D4B1B6A6C4A43F0040313626A4B1B6A49
:101FBC00694A43F0010313620BE0674B1B6A664AE4
:101FCC0023F001031362644B1B6A634A23F004037E
:101FDC0013627B68DB68002B15D0FFF769FB386157
:101FEC000AE0FFF765FB02463B69D31A41F28832DF
:101FFC00934201D90323ABE0574B1B6A03F0020356
:10200C00002BEED014E0FFF753FB38610AE0FFF72A
:10201C004FFB02463B69D31A41F28832934201D9F5
:10202C00032395E04C4B1B6A03F00203002BEED10B
:10203C00FB7D012B05D1484BDB69474A23F08053CC
:10204C00D3617B68DB69002B00F08180424B5B68BD
:10205C0003F00C03082B61D07B68DB69022B46D1A3
:10206C003F4B00221A60FFF723FB386108E0FFF7B3
:10207C001FFB02463B69D31A022B01D9032367E0ED
:10208C00354B1B6803F00073002BF0D17B681B6A87
:10209C00B3F5803F08D1304B5B6823F400327B688A
:1020AC009B682D4913434B602B4B5B6823F47412D4
:1020BC007B68196A7B685B6A0B43274913434B6047
:1020CC00274B01221A60FFF7F3FA386108E0FFF79B
:1020DC00EFFA02463B69D31A022B01D9032337E0EE
:1020EC001D4B1B6803F00073002BF0D02FE01C4B32
:1020FC0000221A60FFF7DCFA386108E0FFF7D8FA23
:10210C0002463B69D31A022B01D9032320E0124B60
:10211C001B6803F00073002BF0D118E07B68DB69BF
:10212C00012B01D1012313E00B4B5B68FB60FB68B7
:10213C0003F480327B681B6A9A4206D1FB6803F475
:10214C0070127B685B6A9A4201D0012300E0002385
:10215C0018461837BD4680BD001002400070004084
:10216C006000424280B584B000AF786039607B6813
:10217C00002B01D10123D0E06A4B1B6803F007034D
:10218C003A689A4210D9674B1B6823F007026549DD
:10219C003B6813430B60634B1B6803F007033A68FF
:1021AC009A4201D00123B8E07B681B6803F002035C
:1021BC00002B20D07B681B6803F00403002B05D098
:1021CC00594B5B68584A43F4E06353607B681B6867
:1021DC0003F00803002B05D0534B5B68524A43F4C1
:1021EC0060535360504B5B6823F0F0027B689B6834
:1021FC004D4913434B607B681B6803F00103002BB4
:10220C0040D07B685B68012B07D1474B1B6803F4FC
:10221C000033002B15D101237FE07B685B68022B18
:10222C0007D1414B1B6803F00073002B09D101232C
:10223C0073E03D4B1B6803F00203002B01D101231B
:10224C006BE0394B5B6823F003027B685B683649B3
:10225C0013434B60FFF72CFAF8600AE0FFF728FAFB
:10226C000246FB68D31A41F28832934201D9032308
:10227C0053E02D4B5B6803F00C027B685B689B00A2
:10228C009A42EBD1274B1B6803F007033A689A423A
:10229C0010D2244B1B6823F0070222493B681343DE
:1022AC000B60204B1B6803F007033A689A4201D07D
:1022BC00012332E07B681B6803F00403002B08D079
:1022CC00194B5B6823F4E0627B68DB6816491343A7
:1022DC004B607B681B6803F00803002B09D0124B82
:1022EC005B6823F460527B681B69DB000E49134367
:1022FC004B6000F021F802460B4B5B681B0903F0A6
:10230C000F030A49CB5C22FA03F3094A1360094B09
:10231C001B681846FFF78AF9002318461037BD468C
:10232C0080BD00BF0020024000100240042E0008B7
:10233C003C0000204400002080B487B000AF002394
:10234C00FB600023BB6000237B6100237B600023C8
:10235C003B611E4B5B68FB60FB6803F00C03042BBA
:10236C0002D0082B03D027E0194B3B6127E0FB6818
:10237C009B0C03F00F03174AD35C7B60FB6803F4E0
:10238C008033002B10D0114B5B685B0C03F0010306
:10239C00114AD35CBB607B680D4A02FB03F2BB683D
:1023AC00B2FBF3F37B6104E07B680C4A02FB03F3A2
:1023BC007B617B693B6102E0054B3B6100BF3B6984
:1023CC0018461C37BD4680BC704700BF0010024049
:1023DC0000127A00142E0008242E000800093D007B
:1023EC0080B485B000AF78600A4B1B680A4AA2FB28
:1023FC0003235B0A7A6802FB03F3FB6000BFFB68F4
:10240C005A1EFA60002BF9D100BF00BF1437BD462D
:10241C0080BC70473C000020D34D621080B582B068
:10242C0000AF78607B68002B01D1012341E07B6811
:10243C0093F83D30DBB2002B06D17B68002283F889
:10244C003C207868FEF71EFF7B68022283F83D2053
:10245C007B681A687B6804331946104600F056FAFC
:10246C007B68012283F846207B68012283F83E209A
:10247C007B68012283F83F207B68012283F840208F
:10248C007B68012283F841207B68012283F842207B
:10249C007B68012283F843207B68012283F8442067
:1024AC007B68012283F845207B68012283F83D205C
:1024BC00002318460837BD4680BD000080B485B0A7
:1024CC0000AF78607B6893F83D30DBB2012B01D014
:1024DC00012335E07B68022283F83D207B681B6872
:1024EC00DA687B681B6842F00102DA607B681B6863
:1024FC00164A934209D07B681B68B3F1804F04D015
:10250C007B681B68124A934211D17B681B689B68DD
:10251C0003F00703FB60FB68062B10D07B681B687D
:10252C001A687B681B6842F001021A6007E07B683E
:10253C001B681A687B681B6842F001021A60002352
:10254C0018461437BD4680BC704700BF002C0140B4
:10255C000004004080B584B000AF78607B681B68D5
:10256C00DB68FB607B681B681B69BB60BB6803F0A6
:10257C000203002B20D0FB6803F00203002B1BD0BE
:10258C007B681B686FF002021A617B6801221A7764
:10259C007B681B689B6903F00303002B03D07868EE
:1025AC0000F098F905E0786800F08BF9786800F095
:1025BC009AF97B6800221A77BB6803F00403002B9E
:1025CC0020D0FB6803F00403002B1BD07B681B6836
:1025DC006FF004021A617B6802221A777B681B6811
:1025EC009B6903F44073002B03D0786800F072F9F8
:1025FC0005E0786800F065F9786800F074F97B689C
:10260C0000221A77BB6803F00803002B20D0FB686C
:10261C0003F00803002B1BD07B681B686FF00802CB
:10262C001A617B6804221A777B681B68DB6903F0EC
:10263C000303002B03D0786800F04CF905E07868B0
:10264C0000F03FF9786800F04EF97B6800221A77A9
:10265C00BB6803F01003002B20D0FB6803F01003C1
:10266C00002B1BD07B681B686FF010021A617B6813
:10267C0008221A777B681B68DB6903F44073002B14
:10268C0003D0786800F026F905E0786800F019F9B5
:10269C00786800F028F97B6800221A77BB6803F091
:1026AC000103002B0CD0FB6803F00103002B07D0B7
:1026BC007B681B686FF001021A617868FEF786FD73
:1026CC00BB6803F08003002B0CD0FB6803F0800385
:1026DC00002B07D07B681B686FF080021A6178684A
:1026EC0000F06FFABB6803F04003002B0CD0FB68C2
:1026FC0003F04003002B07D07B681B686FF040028F
:10270C001A61786800F0F8F8BB6803F02003002B1E
:10271C000CD0FB6803F02003002B07D07B681B68F0
:10272C006FF020021A61786800F042FA00BF10378F
:10273C00BD4680BD80B584B000AF786039600023A1
:10274C00FB737B6893F83C30012B01D10223B4E07E
:10275C007B68012283F83C207B68022283F83D20B1
:10276C007B681B689B68BB60BB6823F07703BB600E
:10277C00BB6823F47F43BB607B681B68BA689A60B4
:10278C003B681B68B3F5005F3ED0B3F5005F00F209
:10279C008780B3F5805F00F08680B3F5805F7FD8CB
:1027AC00702B1AD0702B7BD8602B50D0602B77D825
:1027BC00502B3CD0502B73D8402B58D0402B6FD87B
:1027CC00302B64D0302B6BD8202B60D0202B67D8CB
:1027DC00002B5CD0102B5AD062E07B6818683B68E9
:1027EC0099683B685A683B68DB6800F06AF97B685B
:1027FC001B689B68BB60BB6843F07703BB607B685E
:10280C001B68BA689A604FE07B6818683B689968E7
:10281C003B685A683B68DB6800F053F97B681B68BF
:10282C009A687B681B6842F480429A603CE07B6843
:10283C0018683B6859683B68DB681A4600F0CAF8B0
:10284C007B681B685021184600F021F92CE07B684E
:10285C0018683B6859683B68DB681A4600F0E8F872
:10286C007B681B686021184600F011F91CE07B683E
:10287C0018683B6859683B68DB681A4600F0AAF890
:10288C007B681B684021184600F001F90CE07B685E
:10289C001A683B681B681946104600F0F8F803E00C
:1028AC000123FB7300E000BF7B68012283F83D200D
:1028BC007B68002283F83C20FB7B18461037BD4612
:1028CC0080BD80B483B000AF786000BF0C37BD46CC
:1028DC0080BC704780B483B000AF786000BF0C3709
:1028EC00BD4680BC704780B483B000AF786000BF39
:1028FC000C37BD4680BC704780B483B000AF7860A5
:10290C0000BF0C37BD4680BC7047000080B485B05A
:10291C0000AF786039607B681B68FB607B682B4A72
:10292C00934207D07B68B3F1804F03D07B68284A71
:10293C00934208D1FB6823F07003FB603B685B6833
:10294C00FA681343FB607B68204A934207D07B688C
:10295C00B3F1804F03D07B681D4A934208D1FB68CA
:10296C0023F44073FB603B68DB68FA681343FB603D
:10297C00FB6823F080023B685B691343FB607B6858
:10298C00FA681A603B689A687B68DA623B681A6876
:10299C007B689A627B680D4A934203D13B681A6943
:1029AC007B681A637B6801225A617B681B6903F0A0
:1029BC000103002B05D07B681B6923F001027B68A7
:1029CC001A6100BF1437BD4680BC7047002C014013
:1029DC000004004080B487B000AFF860B9607A6042
:1029EC00FB681B6A7B61FB681B6A23F00102FB68B6
:1029FC001A62FB689B693B613B6923F0F0033B6106
:102A0C007B681B013A6913433B617B6923F00A0322
:102A1C007B617A69BB6813437B61FB683A699A6195
:102A2C00FB687A691A6200BF1C37BD4680BC7047D0
:102A3C0080B487B000AFF860B9607A60FB681B6A3D
:102A4C007B61FB681B6A23F01002FB681A62FB684F
:102A5C009B693B613B6923F470433B617B681B03BF
:102A6C003A6913433B617B6923F0A0037B61BB682C
:102A7C001B017A6913437B61FB683A699A61FB68B5
:102A8C007A691A6200BF1C37BD4680BC704780B49F
:102A9C0085B000AF786039607B689B68FB60FB6831
:102AAC0023F07003FB603A68FB68134343F00703A1
:102ABC00FB607B68FA689A6000BF1437BD4680BC27
:102ACC00704780B487B000AFF860B9607A603B6043
:102ADC00FB689B687B617B6923F47F437B613B686C
:102AEC001A027B681A43BB6813437A6913437B61F0
:102AFC00FB687A699A6000BF1C37BD4680BC704782
:102B0C0080B485B000AF786039607B6893F83C3056
:102B1C00012B01D1022341E07B68012283F83C2088
:102B2C007B68022283F83D207B681B685B68FB6036
:102B3C007B681B689B68BB60FB6823F07003FB60C1
:102B4C003B681B68FA681343FB607B681B68FA6878
:102B5C005A607B681B68144A934209D07B681B68D7
:102B6C00B3F1804F04D07B681B68104A93420CD1A0
:102B7C00BB6823F08003BB603B685B68BA68134397
:102B8C00BB607B681B68BA689A607B68012283F81B
:102B9C003D207B68002283F83C2000231846143724
:102BAC00BD4680BC704700BF002C014000040040B3
:102BBC0080B483B000AF786000BF0C37BD4680BCDA
:102BCC00704780B483B000AF786000BF0C37BD464F
:102BDC0080BC7047014B1868704700BF4C00002048
:102BEC0070B500260C4D0D4C641BA410A64209D1E7
:102BFC0000F0F6F800260A4D0A4C641BA410A642FD
:102C0C0005D170BD55F8043B98470136EEE755F8F1
:102C1C00043B98470136F2E7282E0008282E0008BE
:102C2C00282E00082C2E0008024B0146186800F0D4
:102C3C005FB800BF4C000020024B0146186800F042
:102C4C000BB800BF4C00002003460244934200D155
:102C5C00704703F8011BF9E738B50546002943D046
:102C6C0051F8043C0C1F002BB8BFE41800F0AAF874
:102C7C001E4A1368104633B9636014602846BDE8D9
:102C8C00384000F0A5B8A3420AD9216862189342D3
:102C9C0001BF1A685B685218226063600460EDE73C
:102CAC001A465B680BB1A342FAD911685018A042BE
:102CBC000BD120680144501883421160DED1186892
:102CCC005B68014411605360D8E702D90C232B6078
:102CDC00D4E7206821188B4201BF19685B6809187A
:102CEC00216063605460C9E738BD00BFFC00002060
:102CFC00F8B5CD1C25F0030508350C2D38BF0C2577
:102D0C00002D064601DBA94203D90C2333600020B9
:102D1C00F8BD00F057F821490A6814469CB9204FB9
:102D2C003B6823B92146304600F03CF83860294610
:102D3C00304600F037F8431C23D10C233046336067
:102D4C0000F046F8E3E723685B1B17D40B2B03D981
:102D5C0023601C44256004E06368A2420CBF0B6036
:102D6C005360304600F034F804F10B00231D20F0C2
:102D7C000700C21ACCD01B1AA350C9E722466468BC
:102D8C00CCE7C41C24F00304A042E3D0211A304643
:102D9C0000F008F80130DDD1CFE700BFFC000020C7
:102DAC000001002038B50023054D044608462B6071
:102DBC00FEF7BEFA431C02D12B6803B1236038BD69
:102DCC00B8040020014800F009B800BFC00400207E
:102DDC00014800F004B800BFC004002070477047E1
:102DEC00F8B500BFF8BC08BC9E467047F8B500BFEC
:082DFC00F8BC08BC9E467047BC
:102E04000000000000000000010203040607080996
:102E140002030405060708090A0B0C0D0E0F101017
:042E240001020000A7
:042E2800310100086C
:042E2C000D0100088C
:102E3000000801400008014000080140000801406E
:102E40000008014000080140000801408000000126
:102E5000000200040008001000200000000104022D
:102E600004000000010106010300000000127A00C6
:102E700002000000100000000100000050000020CF
:102E80000000000000000000000000000000000042
:102E90000000000000000000000000000000000032
:102EA0000000000000000000000000000000000022
:102EB0000000000000000000000000000000000012
:102EC0000000000000000000000000000000000002
:102ED00000000000000000000000000000000000F2
:04000005080015C119
:00000001FF
