:020000040800F2
:100000000028002055160008491300084F13000867
:10001000551300085B13000861130008000000007E
:10002000000000000000000000000000671300084E
:1000300073130008000000007F1300088B130008F2
:100040009D1600089D1600089D1600089D160008C4
:100050009D1600089D1600089D1600089D160008B4
:100060009D1600089D1600089D1600089D160008A4
:100070009D1600089D1600089D1600089D16000894
:100080009D1600089D1600089D1600089D16000884
:100090009D1600089D1600089D1600089D16000874
:1000A0009D1600089D1600089D1600089D16000864
:1000B000991300089D160008000000009D16000816
:1000C0009D16000800000000000000009D160008BA
:1000D000000000009D1600089D16000800000000AA
:1000E0009D1600089D1600089D16000800000000DF
:1000F0000000000000000000000000000000000000
:0C01000000000000000000005FF808F1A3
:10010C0010B5054C237833B9044B13B10448AFF345
:10011C0000800123237010BDB000002000000000FF
:10012C00802E000808B5034B1BB103490348AFF3FD
:10013C00008008BD00000000B4000020802E0008E4
:10014C0080B582B000AF0346FB71FB79032B73D8EB
:10015C0001A252F823F000BF75010008A9010008A4
:10016C00DD01000811020008364B1B78184600F020
:10017C00D9F801220821344801F08DFD002210210C
:10018C00314801F088FD002220212F4801F083FD29
:10019C00002240212C4801F07EFD4EE0294B5B787B
:1001AC00184600F0BFF800220821274801F073FD23
:1001BC0001221021244801F06EFD0022202122484A
:1001CC0001F069FD002240211F4801F064FD34E07C
:1001DC001C4B9B78184600F0A5F8002208211A4801
:1001EC0001F059FD00221021174801F054FD0122A5
:1001FC002021154801F04FFD00224021124801F04A
:10020C004AFD1AE00F4BDB78184600F08BF8002201
:10021C0008210D4801F03FFD002210210A4801F091
:10022C003AFD00222021084801F035FD0122402131
:10023C00054801F030FD00E000BF00BF0837BD46A7
:10024C0080BD00BFA00200200008014080B483B034
:10025C0000AF0346FB71FB79002B1FD1FB79234ABE
:10026C00D35C234AA2FB0323DB08DAB2214B1A70BE
:10027C00204B1B78002B02D11E4B0A221A70FB79E3
:10028C001A4AD25C1A4BA3FB0213D9080B469B00EB
:10029C000B445B00D31ADAB2164B5A70FB79012B64
:1002AC001FD1FB79114AD35C114AA2FB0323DB0853
:1002BC00DAB2104B9A700F4B9B78002B02D10D4B7E
:1002CC000A229A70FB79094AD25C094BA3FB0213F0
:1002DC00D9080B469B000B445B00D31ADAB2054BD2
:1002EC00DA7000BF0C37BD4680BC70473404002068
:1002FC00CDCCCCCCA002002080B582B000AF0346A0
:10030C00FB71FB79064AD25C013AD1B2044AD15452
:10031C00FB791846FFF79AFF00BF0837BD4680BD32
:10032C003404002080B582B000AF0346FB71FB792A
:10033C000A2B00F28D8201A252F823F0E703000889
:10034C0059040008CB0400083D050008B905000855
:10035C002B0600089D0600080F07000881070008FF
:10036C00E3070008750300088E4B1B688E4A118842
:10037C000122184601F08FFC8A4B5B688A4A51882F
:10038C000122184601F087FC864B9B68864A9188AF
:10039C000122184601F07FFC824BDB68824AD1882F
:1003AC000122184601F077FC7E4B1B697E4A1189AD
:1003BC000122184601F06FFC7A4B5B697A4A51892D
:1003CC000122184601F067FC764B9B69764A9189AD
:1003DC000122184601F05FFC73E2724B1B68724AF3
:1003EC0011880022184601F056FC6E4B5B686E4A71
:1003FC0051880022184601F04EFC6A4B9B686A4AF1
:10040C0091880022184601F046FC664BDB68664A70
:10041C00D1880022184601F03EFC624B1B69624AEF
:10042C0011890022184601F036FC5E4B5B695E4A6E
:10043C0051890022184601F02EFC5A4B9B695A4AEE
:10044C0091890122184601F026FC3AE2554B1B68B3
:10045C00554A11880122184601F01DFC514B5B686E
:10046C00514A51880022184601F015FC4D4B9B68EF
:10047C004D4A91880022184601F00DFC494BDB686F
:10048C00494AD1880122184601F005FC454B1B69ED
:10049C00454A11890122184601F0FDFB414B5B696D
:1004AC00414A51890122184601F0F5FB3D4B9B69ED
:1004BC003D4A91890122184601F0EDFB01E2394BCE
:1004CC001B68394A11880022184601F0E4FB354BB1
:1004DC005B68354A51880022184601F0DCFB314B31
:1004EC009B68314A91880122184601F0D4FB2D4BB0
:1004FC00DB682D4AD1880022184601F0CCFB294B31
:10050C001B69294A11890022184601F0C4FB254BAE
:10051C005B69254A51890122184601F0BCFB214B2D
:10052C009B69214A91890022184601F0B4FBC8E16D
:10053C001C4B1B681C4A11880022184601F0ABFBAF
:10054C00184B5B68184A51880022184601F0A3FB2F
:10055C00144B9B68144A91880022184601F09BFBAF
:10056C00104BDB68104AD1880022184601F093FB2F
:10057C000C4B1B690C4A11890122184601F08BFBAC
:10058C00084B5B69084A51890122184601F083FB2C
:10059C00044B9B69044A91890022184601F07BFBAD
:1005AC008FE100BF000000201C000020A64B1B6840
:1005BC00A64A11880122184601F06DFBA24B5B681C
:1005CC00A24A51880022184601F065FB9E4B9B689D
:1005DC009E4A91880022184601F05DFB9A4BDB681D
:1005EC009A4AD1880122184601F055FB964B1B699B
:1005FC00964A11890122184601F04DFB924B5B691A
:10060C00924A51890022184601F045FB8E4B9B699A
:10061C008E4A91890022184601F03DFB51E18A4B2C
:10062C001B688A4A11880022184601F034FB864B5D
:10063C005B68864A51880122184601F02CFB824BDC
:10064C009B68824A91880022184601F024FB7E4B5D
:10065C00DB687E4AD1880022184601F01CFB7A4BDD
:10066C001B697A4A11890122184601F014FB764B5A
:10067C005B69764A51890022184601F00CFB724BDB
:10068C009B69724A91890022184601F004FB18E11B
:10069C006D4B1B686D4A11880022184601F0FBFA5D
:1006AC00694B5B68694A51880122184601F0F3FADC
:1006BC00654B9B68654A91880022184601F0EBFA5D
:1006CC00614BDB68614AD1880022184601F0E3FADD
:1006DC005D4B1B695D4A11890022184601F0DBFA5B
:1006EC00594B5B69594A51890022184601F0D3FADB
:1006FC00554B9B69554A91890022184601F0CBFA5B
:10070C00DFE0514B1B68514A11880022184601F05A
:10071C00C2FA4D4B5B684D4A51880022184601F0D5
:10072C00BAFA494B9B68494A91880022184601F055
:10073C00B2FA454BDB68454AD1880122184601F0D4
:10074C00AAFA414B1B69414A11890122184601F052
:10075C00A2FA3D4B5B693D4A51890122184601F0D2
:10076C009AFA394B9B69394A91890122184601F052
:10077C0092FAA6E0344B5B68344A51880022184642
:10078C0001F089FA304B9B68304A91880022184658
:10079C0001F081FA2C4BDB682C4AD18800221846D8
:1007AC0001F079FA284B1B69284A11890022184656
:1007BC0001F071FA244B5B69244A518900221846D6
:1007CC0001F069FA204B9B69204A91890022184656
:1007DC0001F061FA75E01C4B1B681C4A1188002261
:1007EC00184601F058FA184B5B68184A51880022D9
:1007FC00184601F050FA144B9B68144A9188002259
:10080C00184601F048FA104BDB68104AD1880022D8
:10081C00184601F040FA0C4B1B690C4A1189012255
:10082C00184601F038FA084B5B69084A51890022D6
:10083C00184601F030FA044B9B69044A9189002256
:10084C00184601F028FA3CE0000000201C000020B3
:10085C001E4B1B681E4A11880122184601F01BFA18
:10086C001A4B5B681A4A51880122184601F013FA98
:10087C00164B9B68164A91880122184601F00BFA18
:10088C00124BDB68124AD1880122184601F003FA98
:10089C000E4B1B690E4A11890122184601F0FBF917
:1008AC000A4B5B690A4A51890122184601F0F3F997
:1008BC00064B9B69064A91890022184601F0EBF918
:1008CC0000BF00BF0837BD4680BD00BF0000002040
:1008DC001C00002080B582B000AF0346FB71FB7991
:1008EC00032B44D801A252F823F000BF09090008D9
:1008FC007B0900087B0900087B09000800231F4ABC
:10090C001F49204800F088FD01231F4A1F49204839
:10091C0000F082FD1F4B1B79012B0FD14FF40041CE
:10092C001D4801F0D0F90020FFF7E6FC0120FFF78D
:10093C00E3FC1A494FF47A7000F050FB154B5B79CD
:10094C00012B16D1164B1B78032B02D9144B00220A
:10095C001A70134B1B785A1CD1B2114A11701846DD
:10096C00FFF7EEFB0F49642000F038FB01E000BFFD
:10097C0000E000BF00BF0837BD4680BDDA00002094
:10098C002C00002000010020DB000020340000209F
:10099C0040000020D4000020000C0140D8000020B2
:1009AC00DC000020D900002080B483B000AF786058
:1009BC00084B00221A607B68074A82FB03129210D4
:1009CC00DB17D31A054A136000BF0C37BD4680BC39
:1009DC00704700BFCC00002067666666D000002020
:1009EC0080B400AF074B1B68013B064A1360054BF4
:1009FC001B68002B02D1044B01221A6000BFBD46BC
:100A0C0080BC7047D0000020CC00002080B500AF27
:100A1C001C4B1B78022B24D0022B31DC002B02D078
:100A2C00012B0AD02CE0002000F020F90346002B0B
:100A3C0021D0144B01221A701DE0002000F016F991
:100A4C000346002B03D10F4B00221A7015E0002037
:100A5C0000F026F90346002B0FD00A4B02221A7025
:100A6C000BE0002000F002F90346002B07D1054BE8
:100A7C0000221A7003E000BF02E000BF00E000BFDC
:100A8C0000BF80BDDE00002080B582B000AF034601
:100A9C00FB71FB79022B12D0022B16DC002B02D03F
:100AAC00012B06D011E001210B4801F0DDF80346C3
:100ABC000DE00221084801F0D7F8034607E00421B5
:100ACC00054801F0D1F8034601E000BF01231846A8
:100ADC000837BD4680BD00BF0008014090B583B00B
:100AEC0000AF0023FB71A3E0FA79FB795549895CCF
:100AFC00554AD154FC79FB791846FFF7C5FF0346DC
:100B0C001A46504B1A55FB794E4AD25CFB794E492A
:100B1C00CB5C9A4205D1FA79FB794A49895C4B4AFC
:100B2C00D154FB79494AD35C002B13D1FB79484A49
:100B3C00002122F81310FB79464A32F81330632B4C
:100B4C0008D8FB79434A32F81320013291B2414A5A
:100B5C0022F81310FB793D4AD35C012B13D1FB799E
:100B6C003C4A002122F81310FB79394A32F8133031
:100B7C00072B08D8FB79364A32F81320013291B290
:100B8C00334A22F81310FB79304AD35C002B25D161
:100B9C00FB792F4A32F81330072B0FD9FB792D4AEA
:100BAC0032F81330632B04D8FB792B4A0121D15432
:100BBC0024E0FB79294A0121D1541FE0FB79254A15
:100BCC0032F81330632B04D8FB79254A0121D15418
:100BDC0014E0FB79234A0121D1540FE0FB791E4A22
:100BEC000021D154FB791D4A0021D154FB791C4AB8
:100BFC000021D154FB791B4A0021D154FB79002BE5
:100C0C0002D1194B00221A70FB79104AD35C002BCD
:100C1C000CBF01230023DBB25AB2134B1B785BB21F
:100C2C0013435BB2DAB2104B1A70FB790133FB71D0
:100C3C00FB79022B7FF658AF00BF00BF0C37BD46C7
:100C4C0090BD00BFE4000020E8000020E000002080
:100C5C00F4000020EC0000203804002030040020B8
:100C6C000C01002068040020DF00002080B483B059
:100C7C0000AF0346FB71FB79022B01D9002307E07F
:100C8C00FB79064AD35C012B0CBF01230023DBB29A
:100C9C0018460C37BD4680BC704700BF3804002096
:100CAC0080B483B000AF0346FB71FB79022B01D9F2
:100CBC00002307E0FB79064AD35C012B0CBF012310
:100CCC000023DBB218460C37BD4680BC704700BF12
:100CDC003004002080B500AF0A4B1B78012B05D1E6
:100CEC0000224FF40041084800F0D5FF054B1B785B
:100CFC00002B05D101224FF40041034800F0CBFF3B
:100D0C0000BF80BDDF0000200008014080B500AFAF
:100D1C0000F0C0FC00F072F800F0F8F800F0AAF84F
:100D2C00294801F015FC4FF47A70FFF73DFE274976
:100D3C004FF47A7000F052F925494FF47A7000F0B4
:100D4C004DF924494FF47A7000F048F922494FF4D8
:100D5C007A7000F043F921494FF47A7000F03EF9B3
:100D6C001F494FF47A7000F039F91E494FF47A702C
:100D7C0000F034F91C494FF47A7000F02FF900F0B0
:100D8C0049FA1A4B1B68012B12D14FF480411848B9
:100D9C0000F099FF4FF40041154800F094FF4FF418
:100DAC000041144800F08FFF4FF47A70FFF7FCFD00
:100DBC0000F058FAFFF78EFFFFF728FE0E4B1B785A
:100DCC001846FFF787FDDAE76C040020D4000020FA
:100DDC00D5000020D6000020D7000020D80000202D
:100DEC00D9000020DA000020DB000020CC0000201D
:100DFC0000080140000C0140DD00002080B590B0DF
:100E0C0000AF07F1180328220021184601F066FFF5
:100E1C003B1D00221A605A609A60DA601A61022344
:100E2C00BB610123BB621023FB6200237B6307F1D0
:100E3C001803184600F060FF0346002B01D000F0A9
:100E4C00C7F80F237B600023BB600023FB600023EB
:100E5C003B6100237B613B1D0021184601F0CCF95E
:100E6C000346002B01D000F0B3F800BF4037BD465D
:100E7C0080BD000080B586B000AF07F108030022EA
:100E8C001A605A609A60DA603B4600221A605A6017
:100E9C001D4B4FF080421A601B4B41F63F725A605B
:100EAC00194B00229A60184B0922DA60164B00226B
:100EBC001A61154B00229A61134801F0F9FA0346A6
:100ECC00002B01D000F084F84FF48053BB6007F185
:100EDC00080319460C4801F077FC0346002B01D09F
:100EEC0000F076F800233B6000237B603B461946FC
:100EFC00054801F04FFE0346002B01D000F068F8C6
:100F0C0000BF1837BD4680BD6C04002080B586B08C
:100F1C0000AF07F1080300221A605A609A60DA6089
:100F2C00284B9B69274A43F004039361254B9B692B
:100F3C0003F004037B607B68224B9B69214A43F0DE
:100F4C00080393611F4B9B6903F008033B603B68EC
:100F5C0000224FF6F8711C4800F09DFE002248F26A
:100F6C003F011A4800F097FE0723BB600023FB608B
:100F7C0001233B6107F108031946134800F0FAFC02
:100F8C004FF6F873BB600123FB6000233B61022327
:100F9C007B6107F1080319460B4800F0EBFC48F2A3
:100FAC003F03BB600123FB6000233B6102237B6199
:100FBC0007F108031946054800F0DCFC00BF1837A0
:100FCC00BD4680BD0010024000080140000C0140ED
:100FDC0080B400AF72B600BFFEE7000080B584B0ED
:100FEC0000AF786039603B6800221A700C2001F069
:100FFC0065FE0346FB60FB68002B49D07B689AB208
:10100C00FB681A80FB683A685A607B68B3F57A7F94
:10101C0020D3214B1B7819467B68204AA2FB032363
:10102C009B0919441E4BA3FB01239A0913465B0031
:10103C0013445A011344CA1A1346BB72BB7A194A99
:10104C0052F82320FB689A60BB7A1649FA6841F87B
:10105C0023201EE0144B1B7819467B68134AA2FB15
:10106C000323DB08CA18124BA3FB02135B09642190
:10107C0001FB03F3D31AFB72FB7A0E4A52F82320BE
:10108C00FB689A60FB7A0B49FA6841F8232000E070
:10109C0000BF1037BD4680BDFB000020D34D621051
:1010AC0003B57EA5A4020020FA000020CDCCCCCC48
:1010BC001F85EB511001002080B586B000AF4D4B61
:1010CC001B78002B62D14C4B1B781A464B4B53F8B8
:1010DC0022307B613DE07B691B88494AA2FB0323DC
:1010EC00DB089BB2474AA2FB03125209642101FBA5
:1010FC0002F29B1A9BB2FB730C2001F0DFFD03463E
:10110C00BB60BB68002B70D07B691B883E4AA2FB7E
:10111C00031292094FF47A7101FB02F29B1A9AB2F4
:10112C00BB681A807B695A68BB685A60FB7B374A7C
:10113C0052F82320BB689A60FB7B3449BA6841F8AB
:10114C0023207B697B607B699B687B61786801F0FD
:10115C00BDFD7B69002BBED1274B1B781946274B55
:10116C00002243F82120244B1B785A1C284B83FB6C
:10117C00021313449911D317C91A0B465B000B4485
:10118C0059010B44D11ACAB21B4B1A70194B1B785C
:10119C001A461E4B53F822303B610BE03B695B68EF
:1011AC0001221A703B693B603B699B683B61386864
:1011BC0001F08CFD3B69002BF0D10E4B1B781946CE
:1011CC00124B002243F821200A4B1B7801330D4AA5
:1011DC0082FB03125111DA178A1A642101FB02F205
:1011EC009A1AD2B2034B1A7000E000BF1837BD46F2
:1011FC0080BD00BFFA000020FB000020A4020020EC
:10120C00CDCCCCCC1F85EB51D34D621010010020FE
:10121C0003B57EA580B500AF074B1B78012B08D119
:10122C00054B00221A70FFF747FFFFF757FCFFF73B
:10123C00D7FB00BF80BD00BF3604002080B483B054
:10124C0000AF78607B681B68B3F1804F02D1044B10
:10125C0001221A7000BF0C37BD4680BC704700BF1E
:10126C003604002080B500AF074B1B78012B09D149
:10127C004FF48041054800F026FD03494FF47A7085
:10128C00FFF7ACFE00BF80BDD40000200008014079
:10129C0080B485B000AF154B9B69144A43F0010331
:1012AC009361124B9B6903F00103BB60BB680F4B4E
:1012BC00DB690E4A43F08053D3610C4BDB6903F0BE
:1012CC0080537B607B680A4B5B68FB60FB6823F098
:1012DC00E063FB60FB6843F08063FB60044AFB68DF
:1012EC00536000BF1437BD4680BC704700100240ED
:1012FC000000014080B584B000AF78607B681B684B
:10130C00B3F1804F13D10C4BDB690B4A43F0010353
:10131C00D361094BDB6903F00103FB60FB6800221E
:10132C0000211C2000F0EFFA1C2000F008FB00BF8D
:10133C001037BD4680BD00BF0010024080B400AF26
:10134C00FEE780B400AFFEE780B400AFFEE780B4E8
:10135C0000AFFEE780B400AFFEE780B400AF00BF83
:10136C00BD4680BC704780B400AF00BFBD4680BC9A
:10137C00704780B400AF00BFBD4680BC704780B5DD
:10138C0000AF00F0CDF900BF80BD000080B500AF0C
:10139C00024801F029F900BF80BD00BF6C04002099
:1013AC0080B586B000AF7860144A154BD31A7B61B8
:1013BC007B693B61134B1B68002B02D1114B124A0A
:1013CC001A60104B1A687B6813443A699A4207D228
:1013DC0001F04AFC03460C221A604FF0FF3309E07F
:1013EC00084B1B68FB60074B1A687B681344054A63
:1013FC001360FB6818461837BD4680BD00280020D6
:10140C0000040000FC000020C804002080B400AFE1
:10141C0000BFBD4680BC704780B584B000AFF8609B
:10142C00B9607A60FB70FB681B78022B4CD0022BE6
:10143C006DDC002B02D0012B23D068E07B681B787D
:10144C00012B66D1BB681B78184600F0CDF8BB6841
:10145C001B791A464FF47A7303FB02F3796818462A
:10146C00FFF7BCFDBB681A79FB780132D1B22D4A6B
:10147C00D154FB6802221A70FB781846FEF7E6FE80
:10148C0047E07B681B78012B45D1BB681B7818465D
:10149C0000F04AF8BB689B781A464FF47A7303FB4A
:1014AC0002F379681846FFF799FDBB689A78FB78C8
:1014BC000132D1B21B4AD154FB6800221A70FB785E
:1014CC001846FEF7C3FE26E07B681B78012B24D15F
:1014DC00BB681B78184600F057F8BB68DB781A46D7
:1014EC004FF47A7303FB02F379681846FFF776FD25
:1014FC00BB68DA78FB780132D1B20A4AD154FB6866
:10150C0001221A70FB781846FEF7A0FE05E000BF1A
:10151C0004E000BF02E000BF00E000BF00BF1037D6
:10152C00BD4680BD3404002080B582B000AF0346B8
:10153C00FB71FB79002B0ED100220121114800F028
:10154C00AAFB012202210F4800F0A5FB0122042175
:10155C000C4800F0A0FBFB79012B0ED100220821D6
:10156C00084800F098FB01221021064800F093FB7C
:10157C0001222021034800F08EFB00BF0837BD4636
:10158C0080BD00BF000C014080B582B000AF0346A7
:10159C00FB71FB79002B0ED100220221114800F0C7
:1015AC007AFB012204210F4800F075FB0122012176
:1015BC000C4800F070FBFB79012B0ED1002210219E
:1015CC00084800F068FB01222021064800F063FB6C
:1015DC0001220821034800F05EFB00BF0837BD461E
:1015EC0080BD00BF000C014080B582B000AF034647
:1015FC00FB71FB79002B0ED100220421114800F065
:10160C004AFB012201210F4800F045FB0122022177
:10161C000C4800F040FBFB79012B0ED1002220215D
:10162C00084800F038FB01220821064800F033FB83
:10163C0001221021034800F02EFB00BF0837BD46E5
:10164C0080BD00BF000C0140FFF7E0FE0B480C49C9
:10165C000C4A002302E0D458C4500433C4188C4202
:10166C00F9D3094A094C002301E013600432A24269
:10167C00FBD301F0FFFAFFF749FB70470000002095
:10168C00B0000020C42E0008B0000020C8040020C8
:10169C00FEE7000080B500AF084B1B68074A43F01B
:1016AC0010031360032000F023F90F2000F008F85A
:1016BC00FFF7EEFD0023184680BD00BF002002405E
:1016CC0080B582B000AF7860124B1A68124B1B7851
:1016DC0019464FF47A73B3FBF1F3B2FBF3F31846EC
:1016EC0000F03BF90346002B01D001230EE07B6890
:1016FC000F2B0AD8002279684FF0FF3000F003F965
:10170C00064A7B681360002300E001231846083763
:10171C00BD4680BD3C000020480000204400002055
:10172C0080B400AF054B1B781A46054B1B6813445D
:10173C00034A136000BFBD4680BC704748000020C0
:10174C00B404002080B400AF024B1B681846BD46A1
:10175C0080BC7047B404002080B485B000AF7860C2
:10176C007B6803F00703FB600C4BDB68BB60BA685B
:10177C004FF6FF031340BB60FB681A02BB681343B0
:10178C0043F0BF6343F40033BB60044ABB68D360CF
:10179C0000BF1437BD4680BC704700BF00ED00E0B1
:1017AC0080B400AF044BDB681B0A03F00703184638
:1017BC00BD4680BC704700BF00ED00E080B483B034
:1017CC0000AF0346FB7197F90730002B0BDBFB795D
:1017DC0003F01F02064997F907305B09012000FA54
:1017EC0002F241F8232000BF0C37BD4680BC704785
:1017FC0000E100E080B483B000AF03463960FB71B8
:10180C0097F90730002B0ADB3B68DAB20C4997F9E1
:10181C0007301201D2B20B4483F800230AE03B6874
:10182C00DAB20849FB7903F00F03043B1201D2B280
:10183C000B441A7600BF0C37BD4680BC704700BF06
:10184C0000E100E000ED00E080B489B000AFF8608A
:10185C00B9607A60FB6803F00703FB61FB69C3F1B5
:10186C000703042B28BF0423BB61FB690433062B3D
:10187C0002D9FB69033B00E000237B614FF0FF3290
:10188C00BB6902FA03F3DA43BB681A407B699A40DE
:10189C004FF0FF317B6901FA03F3D9437B680B40AE
:1018AC00134318462437BD4680BC704780B582B0C0
:1018BC0000AF78607B68013BB3F1807F01D30123DB
:1018CC000FE00A4A7B68013B53600F214FF0FF3059
:1018DC00FFF790FF054B00229A60044B07221A6019
:1018EC00002318460837BD4680BD00BF10E000E05D
:1018FC0080B582B000AF78607868FFF72DFF00BF2D
:10190C000837BD4680BD80B586B000AF0346B960D0
:10191C007A60FB7300237B61FFF742FF78617A6882
:10192C00B9687869FFF790FF024697F90F301146B6
:10193C001846FFF75FFF00BF1837BD4680BD80B566
:10194C0082B000AF0346FB7197F907301846FFF7DA
:10195C0035FF00BF0837BD4680BD80B582B000AFF3
:10196C0078607868FFF7A2FF034618460837BD4633
:10197C0080BD000080B48BB000AF7860396000236C
:10198C007B6200233B6248E101227B6A02FA03F38B
:10199C00FB613B681B68FA691340BB61BA69FB6960
:1019AC009A4240F037813B685B68A34A93425ED011
:1019BC00A14A934275D8A14A934258D09F4A934268
:1019CC006FD89F4A934252D09D4A934269D89D4A00
:1019DC0093424CD09B4A934263D89B4A934246D045
:1019EC00994A93425DD8122B2AD8122B59D801A2AE
:1019FC0052F823F07B1A0008551A0008671A0008E1
:101A0C00A91A0008AF1A0008AF1A0008AF1A00088C
:101A1C00AF1A0008AF1A0008AF1A0008AF1A000876
:101A2C00AF1A0008AF1A0008AF1A0008AF1A000866
:101A3C00AF1A0008AF1A00085D1A0008711A0008E6
:101A4C00824A934213D02CE03B68DB683B6229E06E
:101A5C003B68DB6804333B6224E03B68DB6808339B
:101A6C003B621FE03B68DB680C333B621AE03B686F
:101A7C009B68002B02D104233B6213E03B689B68FC
:101A8C00012B05D108233B627B68FA691A6109E0D6
:101A9C0008233B627B68FA695A6103E000233B62CE
:101AAC0000E000BFBB69FF2B01D87B6801E07B68BD
:101ABC0004337B61BB69FF2B02D87B6A9B0002E07D
:101ACC007B6A083B9B003B617B691A680F213B6971
:101ADC0001FA03F3DB431A40396A3B6901FA03F359
:101AEC001A437B691A603B685B6803F08053002BD8
:101AFC0000F09080564B9B69554A43F0010393616B
:101B0C00534B9B6903F00103BB60BB68514A7B6A72
:101B1C009B08023352F82330FB607B6A03F003030B
:101B2C009B000F2202FA03F3DB43FA681340FB60BD
:101B3C007B68494A93420DD07B68484A934207D050
:101B4C007B68474A934201D1022304E0032302E05D
:101B5C00012300E000237A6A02F003029200934012
:101B6C00FA681343FB603B497B6A9B080233FA68B3
:101B7C0041F823203B685B6803F48013002B06D0EC
:101B8C00384B9A683749BB6913438B6006E0354B79
:101B9C009A68BB69DB43334913408B603B685B68D5
:101BAC0003F40013002B06D02E4BDA682D49BB69C9
:101BBC001343CB6006E02B4BDA68BB69DB43294946
:101BCC001340CB603B685B6803F40033002B06D0FA
:101BDC00244B5A682349BB6913434B6006E0214BE5
:101BEC005A68BB69DB431F4913404B603B685B6819
:101BFC0003F48033002B06D01A4B1A681949BB69C1
:101C0C0013430B6006E0174B1A68BB69DB4315499D
:101C1C0013400B607B6A01337B623B681A687B6AFA
:101C2C0022FA03F3002B7FF4AFAE00BF00BF2C37BA
:101C3C00BD4680BC704700BF000032100000311060
:101C4C0000002210000021100000121000001110E2
:101C5C00001002400000014000080140000C01404F
:101C6C00001001400004014080B485B000AF7860E2
:101C7C000B467B807B689A687B881340002B02D0D4
:101C8C000123FB7301E00023FB73FB7B1846143725
:101C9C00BD4680BC704780B483B000AF78600B4603
:101CAC007B8013467B707B78002B03D07A887B6813
:101CBC001A6103E07B881A047B681A6100BF0C3739
:101CCC00BD4680BC704780B485B000AF78600B46D1
:101CDC007B807B68DB68FB607A88FB6813401A04A6
:101CEC00FB68D9437B880B401A437B681A6100BFA1
:101CFC001437BD4680BC704780B586B000AF7860A5
:101D0C007B68002B01D101236CE27B681B6803F01C
:101D1C000103002B00F08780924B5B6803F00C03EF
:101D2C00042B0CD08F4B5B6803F00C03082B12D1E7
:101D3C008C4B5B6803F48033B3F5803F0BD1894B3C
:101D4C001B6803F40033002B6CD07B685B68002BA2
:101D5C0068D1012346E27B685B68B3F5803F06D10E
:101D6C00804B1B687F4A43F4803313602EE07B6802
:101D7C005B68002B0CD17B4B1B687A4A23F48033B5
:101D8C001360784B1B68774A23F4802313601DE0A3
:101D9C007B685B68B3F5A02F0CD1724B1B68714A42
:101DAC0043F4802313606F4B1B686E4A43F48033FB
:101DBC0013600BE06B4B1B686A4A23F4803313608F
:101DCC00684B1B68674A23F4802313607B685B684D
:101DDC00002B13D0FFF7B6FC386108E0FFF7B2FC1C
:101DEC0002463B69D31A642B01D90323FAE15D4BFC
:101DFC001B6803F40033002BF0D014E0FFF7A2FCB7
:101E0C00386108E0FFF79EFC02463B69D31A642B4D
:101E1C0001D90323E6E1534B1B6803F40033002B79
:101E2C00F0D100E000BF7B681B6803F00203002BBD
:101E3C0063D04C4B5B6803F00C03002B0BD0494B6D
:101E4C005B6803F00C03082B1CD1464B5B6803F456
:101E5C008033002B16D1434B1B6803F00203002B7D
:101E6C0005D07B681B69012B01D00123BAE13D4BE6
:101E7C001B6823F0F8027B685B69DB00394913436C
:101E8C000B603AE07B681B69002B20D0364B01229B
:101E9C001A60FFF757FC386108E0FFF753FC024665
:101EAC003B69D31A022B01D903239BE12D4B1B68F1
:101EBC0003F00203002BF0D02A4B1B6823F0F8022E
:101ECC007B685B69DB00274913430B6015E0264BED
:101EDC0000221A60FFF736FC386108E0FFF732FC8D
:101EEC0002463B69D31A022B01D903237AE11D4B1D
:101EFC001B6803F00203002BF0D17B681B6803F016
:101F0C000803002B3AD07B689B69002B19D0174B28
:101F1C0001221A60FFF716FC386108E0FFF712FC8B
:101F2C0002463B69D31A022B01D903235AE10D4B0C
:101F3C005B6A03F00203002BF0D0012000F09AFA48
:101F4C001CE00A4B00221A60FFF7FCFB38610FE023
:101F5C00FFF7F8FB02463B69D31A022B08D903237F
:101F6C0040E100BF001002400000424280044242A7
:101F7C009E4B5B6A03F00203002BE9D17B681B6864
:101F8C0003F00403002B00F0A6800023FB75974B95
:101F9C00DB6903F08053002B0DD1944BDB69934A22
:101FAC0043F08053D361914BDB6903F08053BB60EA
:101FBC00BB680123FB758E4B1B6803F48073002BED
:101FCC0018D18B4B1B688A4A43F480731360FFF75C
:101FDC00B9FB386108E0FFF7B5FB02463B69D31A41
:101FEC00642B01D90323FDE0814B1B6803F4807340
:101FFC00002BF0D07B68DB68012B06D17B4B1B6A76
:10200C007A4A43F0010313622DE07B68DB68002BF6
:10201C000CD1764B1B6A754A23F001031362734B88
:10202C001B6A724A23F0040313621CE07B68DB68B2
:10203C00052B0CD16D4B1B6A6C4A43F004031362E5
:10204C006A4B1B6A694A43F0010313620BE0674B4E
:10205C001B6A664A23F001031362644B1B6A634AD2
:10206C0023F0040313627B68DB68002B15D0FFF7A9
:10207C0069FB38610AE0FFF765FB02463B69D31A3E
:10208C0041F28832934201D90323ABE0574B1B6AD0
:10209C0003F00203002BEED014E0FFF753FB386182
:1020AC000AE0FFF74FFB02463B69D31A41F2883234
:1020BC00934201D9032395E04C4B1B6A03F00203B6
:1020CC00002BEED1FB7D012B05D1484BDB69474A38
:1020DC0023F08053D3617B68DB69002B00F0818097
:1020EC00424B5B6803F00C03082B61D07B68DB6907
:1020FC00022B46D13F4B00221A60FFF723FB3861BD
:10210C0008E0FFF71FFB02463B69D31A022B01D9EB
:10211C00032367E0354B1B6803F00073002BF0D1F1
:10212C007B681B6AB3F5803F08D1304B5B6823F4A6
:10213C0000327B689B682D4913434B602B4B5B68CB
:10214C0023F474127B68196A7B685B6A0B4327491A
:10215C0013434B60274B01221A60FFF7F3FA3861E7
:10216C0008E0FFF7EFFA02463B69D31A022B01D9BC
:10217C00032337E01D4B1B6803F00073002BF0D0DA
:10218C002FE01C4B00221A60FFF7DCFA386108E0E4
:10219C00FFF7D8FA02463B69D31A022B01D9032365
:1021AC0020E0124B1B6803F00073002BF0D118E0F9
:1021BC007B68DB69012B01D1012313E00B4B5B68BE
:1021CC00FB60FB6803F480327B681B6A9A4206D181
:1021DC00FB6803F470127B685B6A9A4201D001239E
:1021EC0000E0002318461837BD4680BD00100240A1
:1021FC00007000406000424280B584B000AF78604F
:10220C0039607B68002B01D10123D0E06A4B1B683D
:10221C0003F007033A689A4210D9674B1B6823F006
:10222C00070265493B6813430B60634B1B6803F063
:10223C0007033A689A4201D00123B8E07B681B6817
:10224C0003F00203002B20D07B681B6803F004030F
:10225C00002B05D0594B5B68584A43F4E06353603C
:10226C007B681B6803F00803002B05D0534B5B689D
:10227C00524A43F460535360504B5B6823F0F002B6
:10228C007B689B684D4913434B607B681B6803F06C
:10229C000103002B40D07B685B68012B07D1474BB7
:1022AC001B6803F40033002B15D101237FE07B68FE
:1022BC005B68022B07D1414B1B6803F00073002BAA
:1022CC0009D1012373E03D4B1B6803F00203002B83
:1022DC0001D101236BE0394B5B6823F003027B686F
:1022EC005B68364913434B60FFF72CFAF8600AE041
:1022FC00FFF728FA0246FB68D31A41F28832934260
:10230C0001D9032353E02D4B5B6803F00C027B686F
:10231C005B689B009A42EBD1274B1B6803F00703C9
:10232C003A689A4210D2244B1B6823F007022249C8
:10233C003B6813430B60204B1B6803F007033A68A0
:10234C009A4201D0012332E07B681B6803F004033E
:10235C00002B08D0194B5B6823F4E0627B68DB68C8
:10236C00164913434B607B681B6803F00803002B72
:10237C0009D0124B5B6823F460527B681B69DB004D
:10238C000E4913434B6000F021F802460B4B5B687F
:10239C001B0903F00F030A49CB5C22FA03F3094A29
:1023AC001360094B1B681846FFF78AF9002318467F
:1023BC001037BD4680BD00BF002002400010024017
:1023CC00982E00083C0000204400002080B487B008
:1023DC0000AF0023FB600023BB6000237B61002364
:1023EC007B6000233B611E4B5B68FB60FB6803F06A
:1023FC000C03042B02D0082B03D027E0194B3B61B4
:10240C0027E0FB689B0C03F00F03174AD35C7B603F
:10241C00FB6803F48033002B10D0114B5B685B0C12
:10242C0003F00103114AD35CBB607B680D4A02FBCD
:10243C0003F2BB68B2FBF3F37B6104E07B680C4AEC
:10244C0002FB03F37B617B693B6102E0054B3B6163
:10245C0000BF3B6918461C37BD4680BC704700BFA7
:10246C000010024000127A00A82E0008B82E0008B6
:10247C0000093D0080B485B000AF78600A4B1B6842
:10248C000A4AA2FB03235B0A7A6802FB03F3FB6094
:10249C0000BFFB685A1EFA60002BF9D100BF00BFC9
:1024AC001437BD4680BC70473C000020D34D6210F1
:1024BC0080B582B000AF78607B68002B01D101231E
:1024CC0041E07B6893F83D30DBB2002B06D17B6892
:1024DC00002283F83C207868FEF70CFF7B68022210
:1024EC0083F83D207B681A687B68043319461046D4
:1024FC0000F056FA7B68012283F846207B680122A3
:10250C0083F83E207B68012283F83F207B68012200
:10251C0083F840207B68012283F841207B680122EC
:10252C0083F842207B68012283F843207B680122D8
:10253C0083F844207B68012283F845207B680122C4
:10254C0083F83D20002318460837BD4680BD0000A7
:10255C0080B485B000AF78607B6893F83D30DBB217
:10256C00012B01D0012335E07B68022283F83D204A
:10257C007B681B68DA687B681B6842F00102DA60D2
:10258C007B681B68164A934209D07B681B68B3F1C1
:10259C00804F04D07B681B68124A934211D17B6830
:1025AC001B689B6803F00703FB60FB68062B10D0CD
:1025BC007B681B681A687B681B6842F001021A6012
:1025CC0007E07B681B681A687B681B6842F0010295
:1025DC001A60002318461437BD4680BC704700BFF4
:1025EC00002C01400004004080B584B000AF78603E
:1025FC007B681B68DB68FB607B681B681B69BB60C6
:10260C00BB6803F00203002B20D0FB6803F002032D
:10261C00002B1BD07B681B686FF002021A617B6871
:10262C0001221A777B681B689B6903F00303002B5C
:10263C0003D0786800F098F905E0786800F08BF921
:10264C00786800F09AF97B6800221A77BB6803F06F
:10265C000403002B20D0FB6803F00403002B1BD0D9
:10266C007B681B686FF004021A617B6802221A7780
:10267C007B681B689B6903F44073002B03D078685C
:10268C0000F072F905E0786800F065F9786800F000
:10269C0074F97B6800221A77BB6803F00803002BDF
:1026AC0020D0FB6803F00803002B1BD07B681B6851
:1026BC006FF008021A617B6804221A777B681B682A
:1026CC00DB6903F00303002B03D0786800F04CF9AE
:1026DC0005E0786800F03FF9786800F04EF97B6807
:1026EC0000221A77BB6803F01003002B20D0FB6884
:1026FC0003F01003002B1BD07B681B686FF01002DB
:10270C001A617B6808221A777B681B68DB6903F403
:10271C004073002B03D0786800F026F905E0786848
:10272C0000F019F9786800F028F97B6800221A7714
:10273C00BB6803F00103002B0CD0FB6803F0010312
:10274C00002B07D07B681B686FF001021A61786858
:10275C00FEF774FDBB6803F08003002B0CD0FB6804
:10276C0003F08003002B07D07B681B686FF080029E
:10277C001A61786800F06FFABB6803F04003002B15
:10278C000CD0FB6803F04003002B07D07B681B6860
:10279C006FF040021A61786800F0F8F8BB6803F03B
:1027AC002003002B0CD0FB6803F02003002B07D078
:1027BC007B681B686FF020021A61786800F042FA9F
:1027CC0000BF1037BD4680BD80B584B000AF7860C7
:1027DC0039600023FB737B6893F83C30012B01D1EB
:1027EC000223B4E07B68012283F83C207B68022240
:1027FC0083F83D207B681B689B68BB60BB6823F03B
:10280C007703BB60BB6823F47F43BB607B681B68AA
:10281C00BA689A603B681B68B3F5005F3ED0B3F5AD
:10282C00005F00F28780B3F5805F00F08680B3F51F
:10283C00805F7FD8702B1AD0702B7BD8602B50D038
:10284C00602B77D8502B3CD0502B73D8402B58D0C2
:10285C00402B6FD8302B64D0302B6BD8202B60D012
:10286C00202B67D8002B5CD0102B5AD062E07B68F1
:10287C0018683B6899683B685A683B68DB6800F0ED
:10288C006AF97B681B689B68BB60BB6843F0770385
:10289C00BB607B681B68BA689A604FE07B681868FD
:1028AC003B6899683B685A683B68DB6800F053F9F1
:1028BC007B681B689A687B681B6842F480429A604C
:1028CC003CE07B6818683B6859683B68DB681A46D3
:1028DC0000F0CAF87B681B685021184600F021F9FB
:1028EC002CE07B6818683B6859683B68DB681A46C3
:1028FC0000F0E8F87B681B686021184600F011F9BD
:10290C001CE07B6818683B6859683B68DB681A46B2
:10291C0000F0AAF87B681B684021184600F001F90A
:10292C000CE07B681A683B681B681946104600F07F
:10293C00F8F803E00123FB7300E000BF7B68012281
:10294C0083F83D207B68002283F83C20FB7B1846F3
:10295C001037BD4680BD80B483B000AF786000BF37
:10296C000C37BD4680BC704780B483B000AF786034
:10297C0000BF0C37BD4680BC704780B483B000AF3D
:10298C00786000BF0C37BD4680BC704780B483B004
:10299C0000AF786000BF0C37BD4680BC70470000AC
:1029AC0080B485B000AF786039607B681B68FB60D1
:1029BC007B682B4A934207D07B68B3F1804F03D0DE
:1029CC007B68284A934208D1FB6823F07003FB60B4
:1029DC003B685B68FA681343FB607B68204A934250
:1029EC0007D07B68B3F1804F03D07B681D4A9342BC
:1029FC0008D1FB6823F44073FB603B68DB68FA6822
:102A0C001343FB60FB6823F080023B685B69134354
:102A1C00FB607B68FA681A603B689A687B68DA62CC
:102A2C003B681A687B689A627B680D4A934203D1B3
:102A3C003B681A697B681A637B6801225A617B6860
:102A4C001B6903F00103002B05D07B681B6923F085
:102A5C0001027B681A6100BF1437BD4680BC704709
:102A6C00002C01400004004080B487B000AFF86037
:102A7C00B9607A60FB681B6A7B61FB681B6A23F098
:102A8C000102FB681A62FB689B693B613B6923F09E
:102A9C00F0033B617B681B013A6913433B617B6923
:102AAC0023F00A037B617A69BB6813437B61FB6883
:102ABC003A699A61FB687A691A6200BF1C37BD4695
:102ACC0080BC704780B487B000AFF860B9607A60A2
:102ADC00FB681B6A7B61FB681B6A23F01002FB68B6
:102AEC001A62FB689B693B613B6923F470433B6151
:102AFC007B681B033A6913433B617B6923F0A0039A
:102B0C007B61BB681B017A6913437B61FB683A6983
:102B1C009A61FB687A691A6200BF1C37BD4680BC9B
:102B2C00704780B485B000AF786039607B689B6873
:102B3C00FB60FB6823F07003FB603A68FB6813438F
:102B4C0043F00703FB607B68FA689A6000BF143798
:102B5C00BD4680BC704780B487B000AFF860B960E8
:102B6C007A603B60FB689B687B617B6923F47F43E5
:102B7C007B613B681A027B681A43BB6813437A6912
:102B8C0013437B61FB687A699A6000BF1C37BD46B2
:102B9C0080BC704780B485B000AF786039607B68CA
:102BAC0093F83C30012B01D1022341E07B680122D8
:102BBC0083F83C207B68022283F83D207B681B68ED
:102BCC005B68FB607B681B689B68BB60FB6823F0E1
:102BDC007003FB603B681B68FA681343FB607B68FF
:102BEC001B68FA685A607B681B68144A934209D0C8
:102BFC007B681B68B3F1804F04D07B681B68104A5C
:102C0C0093420CD1BB6823F08003BB603B685B68CC
:102C1C00BA681343BB607B681B68BA689A607B68B0
:102C2C00012283F83D207B68002283F83C2000239E
:102C3C0018461437BD4680BC704700BF002C0140BD
:102C4C000004004080B483B000AF786000BF0C3744
:102C5C00BD4680BC704780B483B000AF786000BFC5
:102C6C000C37BD4680BC7047014B1868704700BFDD
:102C7C004C00002070B500260C4D0D4C641BA410AC
:102C8C00A64209D100F0F6F800260A4D0A4C641B46
:102C9C00A410A64205D170BD55F8043B98470136E7
:102CAC00EEE755F8043B98470136F2E7BC2E0008D6
:102CBC00BC2E0008BC2E0008C02E0008024B01469A
:102CCC00186800F05FB800BF4C000020024B0146B2
:102CDC00186800F00BB800BF4C00002003460244FB
:102CEC00934200D1704703F8011BF9E738B505464C
:102CFC00002943D051F8043C0C1F002BB8BFE4183A
:102D0C0000F0AAF81E4A1368104633B963601460C9
:102D1C002846BDE8384000F0A5B8A3420AD921687E
:102D2C006218934201BF1A685B6852182260636094
:102D3C000460EDE71A465B680BB1A342FAD911683F
:102D4C005018A0420BD120680144501883421160E6
:102D5C00DED118685B68014411605360D8E702D972
:102D6C000C232B60D4E7206821188B4201BF196813
:102D7C005B680918216063605460C9E738BD00BF07
:102D8C0004010020F8B5CD1C25F0030508350C2DE9
:102D9C0038BF0C25002D064601DBA94203D90C23B4
:102DAC0033600020F8BD00F057F821490A6814463A
:102DBC009CB9204F3B6823B92146304600F03CF8C3
:102DCC0038602946304600F037F8431C23D10C23D9
:102DDC003046336000F046F8E3E723685B1B17D4FA
:102DEC000B2B03D923601C44256004E06368A242CA
:102DFC000CBF0B605360304600F034F804F10B004C
:102E0C00231D20F00700C21ACCD01B1AA350C9E70F
:102E1C0022466468CCE7C41C24F00304A042E3D02F
:102E2C00211A304600F008F80130DDD1CFE700BFA1
:102E3C00040100200801002038B50023054D04468C
:102E4C0008462B60FEF7ACFA431C02D12B6803B189
:102E5C00236038BDB8040020014800F009B800BF59
:102E6C00C0040020014800F004B800BFC0040020DA
:102E7C0070477047F8B500BFF8BC08BC9E46704759
:0C2E8C00F8B500BFF8BC08BC9E467047BB
:102E98000000000000000000010203040607080902
:102EA80002030405060708090A0B0C0D0E0F101083
:042EB8000102000013
:042EBC0031010008D8
:042EC0000D010008F8
:102EC40000080140000801400008014000080140DA
:102ED4000008014000080140000801408000000192
:102EE4000002000400080010002000000001040299
:102EF40004000000010106010300000000127A0032
:102F0400020000001000000001000000500000203A
:102F140000000000000000000000000000000000AD
:102F2400000000000000000000000000000000009D
:102F3400000000000000000000000000000000008D
:102F4400000000000000000000000000000000007D
:102F5400000000000000000000000000000000006D
:102F6400000000000000000000000000000000005D
:040000050800165584
:00000001FF
