:020000040800F2
:1000000000280020091F0008151C00081B1C000800
:10001000211C0008271C00082D1C000800000000FF
:10002000000000000000000000000000331C000879
:100030003F1C0008000000004B1C0008571C000873
:10004000511F0008511F0008511F0008511F0008D0
:10005000511F0008511F0008511F0008511F0008C0
:10006000511F0008511F0008511F0008511F0008B0
:10007000511F0008511F0008511F0008511F0008A0
:10008000511F0008511F0008511F0008511F000890
:10009000511F0008511F0008511F0008511F000880
:1000A000511F0008511F0008511F0008511F000870
:1000B000651C0008511F000800000000511F0008C7
:1000C000511F00080000000000000000511F000840
:1000D00000000000511F0008511F00080000000030
:1000E000511F0008511F0008511F000800000000A8
:1000F0000000000000000000000000000000000000
:0C01000000000000000000005FF808F1A3
:10010C0010B5054C237833B9044B13B10448AFF345
:10011C0000800123237010BDB400002000000000FB
:10012C003437000808B5034B1BB103490348AFF340
:10013C00008008BD00000000B80000203437000823
:10014C0080B582B000AF0346FB71FB79032B11DC49
:10015C00002BC0F28F80032B00F28C8001A252F88E
:10016C0023F000BF87010008BB010008EF01000865
:10017C0023020008632B68D07CE0424B1B781846A6
:10018C0000F030F9012208213F4802F0DEF900228C
:10019C0010213D4802F0D9F9002220213A4802F002
:1001AC00D4F900224021384802F0CFF965E0354BF4
:1001BC005B78184600F016F900220821324802F04C
:1001CC00C4F901221021304802F0BFF9002220218D
:1001DC002D4802F0BAF9002240212B4802F0B5F963
:1001EC004BE0284B9B78184600F0FCF800220821C5
:1001FC00254802F0AAF900221021234802F0A5F9A3
:10020C0001222021204802F0A0F9002240211E48A2
:10021C0002F09BF931E01B4BDB78184600F0E2F85A
:10022C0000220821184802F090F9002210211648EB
:10023C0002F08BF900222021134802F086F90122EA
:10024C004021114802F081F917E0002208210E48E4
:10025C0002F07BF9002210210B4802F076F9002203
:10026C002021094802F071F900224021064802F0D1
:10027C006CF902E00023FB7100BF00BF0837BD46DC
:10028C0080BD00BFA80200200008014080B483B0EC
:10029C0000AF0346FB71FB79002B3CD1404B5B78E4
:1002AC00404AA2FB0323DB08DAB23F4B1A703E4BE9
:1002BC001B78002B02D13C4B0A221A70384B5A780F
:1002CC00384BA3FB0213D9080B469B000B445B0075
:1002DC00D31ADAB2344B5A70344B5B78314AA2FBE6
:1002EC000323DB08DAB2304B9A702F4B9B78002B30
:1002FC0002D12D4B0A229A702C4B5A78294BA3FB16
:10030C000213D9080B469B000B445B00D31ADAB2DC
:10031C00254BDA703EE0FB79012B3BD1244B1B784B
:10032C00204AA2FB0323DB08DAB21F4B1A701E4BC8
:10033C001B78002B02D11C4B0A221A701C4B1A780A
:10034C00184BA3FB0213D9080B469B000B445B0014
:10035C00D31ADAB2144B5A70154B5B78114AA2FBC4
:10036C000323DB08DAB2104B9A700F4B9B78002BEF
:10037C0002D10D4B0A229A700D4B5A78094BA3FBF4
:10038C000213D9080B469B000B445B00D31ADAB25C
:10039C00054BDA7000BF0C37BD4680BC704700BF00
:1003AC002C000020CDCCCCCCA802002034000020A6
:1003BC001401002080B500AF084B5B78013BDAB22A
:1003CC00064B5A70064B5B78013BDAB2044B5A7001
:1003DC000020FFF75BFF00BF80BD00BF2C0000209A
:1003EC003400002080B582B000AF0346FB71FB796E
:1003FC000A2B00F28D8201A252F823F0A704000808
:10040C00190500088B050008FD0500087906000891
:10041C00EB0600085D070008CF070008410800083C
:10042C00A3080008350400088E4B1B688E4A1188FF
:10043C000122184602F089F88A4B5B688A4A518877
:10044C000122184602F081F8864B9B68864A9188F7
:10045C000122184602F079F8824BDB68824AD18877
:10046C000122184602F071F87E4B1B697E4A1189F5
:10047C000122184602F069F87A4B5B697A4A518975
:10048C000122184602F061F8764B9B69764A9189F5
:10049C000122184602F059F873E2724B1B68724A3B
:1004AC0011880022184602F050F86E4B5B686E4AB9
:1004BC0051880022184602F048F86A4B9B686A4A39
:1004CC0091880022184602F040F8664BDB68664AB9
:1004DC00D1880022184602F038F8624B1B69624A38
:1004EC0011890022184602F030F85E4B5B695E4AB7
:1004FC0051890022184602F028F85A4B9B695A4A37
:10050C0091890122184602F020F83AE2554B1B68FB
:10051C00554A11880122184602F017F8514B5B68B6
:10052C00514A51880022184602F00FF84D4B9B6837
:10053C004D4A91880022184602F007F8494BDB68B7
:10054C00494AD1880122184601F0FFFF454B1B692F
:10055C00454A11890122184601F0F7FF414B5B69AE
:10056C00414A51890122184601F0EFFF3D4B9B692E
:10057C003D4A91890122184601F0E7FF01E2394B0F
:10058C001B68394A11880022184601F0DEFF354BF2
:10059C005B68354A51880022184601F0D6FF314B72
:1005AC009B68314A91880122184601F0CEFF2D4BF1
:1005BC00DB682D4AD1880022184601F0C6FF294B72
:1005CC001B69294A11890022184601F0BEFF254BF0
:1005DC005B69254A51890122184601F0B6FF214B6F
:1005EC009B69214A91890022184601F0AEFFC8E1AF
:1005FC001C4B1B681C4A11880022184601F0A5FFF1
:10060C00184B5B68184A51880022184601F09DFF70
:10061C00144B9B68144A91880022184601F095FFF0
:10062C00104BDB68104AD1880022184601F08DFF70
:10063C000C4B1B690C4A11890122184601F085FFED
:10064C00084B5B69084A51890122184601F07DFF6D
:10065C00044B9B69044A91890022184601F075FFEE
:10066C008FE100BF000000201C000020A64B1B687F
:10067C00A64A11880122184601F067FFA24B5B685D
:10068C00A24A51880022184601F05FFF9E4B9B68DE
:10069C009E4A91880022184601F057FF9A4BDB685E
:1006AC009A4AD1880122184601F04FFF964B1B69DC
:1006BC00964A11890122184601F047FF924B5B695B
:1006CC00924A51890022184601F03FFF8E4B9B69DC
:1006DC008E4A91890022184601F037FF51E18A4B6E
:1006EC001B688A4A11880022184601F02EFF864B9F
:1006FC005B68864A51880122184601F026FF824B1E
:10070C009B68824A91880022184601F01EFF7E4B9E
:10071C00DB687E4AD1880022184601F016FF7A4B1E
:10072C001B697A4A11890122184601F00EFF764B9B
:10073C005B69764A51890022184601F006FF724B1C
:10074C009B69724A91890022184601F0FEFE18E15D
:10075C006D4B1B686D4A11880022184601F0F5FE9E
:10076C00694B5B68694A51880122184601F0EDFE1D
:10077C00654B9B68654A91880022184601F0E5FE9E
:10078C00614BDB68614AD1880022184601F0DDFE1E
:10079C005D4B1B695D4A11890022184601F0D5FE9C
:1007AC00594B5B69594A51890022184601F0CDFE1C
:1007BC00554B9B69554A91890022184601F0C5FE9C
:1007CC00DFE0514B1B68514A11880022184601F09A
:1007DC00BCFE4D4B5B684D4A51880022184601F017
:1007EC00B4FE494B9B68494A91880022184601F097
:1007FC00ACFE454BDB68454AD1880122184601F016
:10080C00A4FE414B1B69414A11890122184601F093
:10081C009CFE3D4B5B693D4A51890122184601F013
:10082C0094FE394B9B69394A91890122184601F093
:10083C008CFEA6E0344B5B68344A51880022184683
:10084C0001F083FE304B9B68304A91880022184699
:10085C0001F07BFE2C4BDB682C4AD1880022184619
:10086C0001F073FE284B1B69284A11890022184697
:10087C0001F06BFE244B5B69244A51890022184617
:10088C0001F063FE204B9B69204A91890022184697
:10089C0001F05BFE75E01C4B1B681C4A11880022A2
:1008AC00184601F052FE184B5B68184A518800221A
:1008BC00184601F04AFE144B9B68144A918800229A
:1008CC00184601F042FE104BDB68104AD18800221A
:1008DC00184601F03AFE0C4B1B690C4A1189012297
:1008EC00184601F032FE084B5B69084A5189002218
:1008FC00184601F02AFE044B9B69044A9189002298
:10090C00184601F022FE3CE0000000201C000020F4
:10091C001E4B1B681E4A11880022184601F015FE5A
:10092C001A4B5B681A4A51880122184601F00DFED9
:10093C00164B9B68164A91880122184601F005FE59
:10094C00124BDB68124AD1880022184601F0FDFDDB
:10095C000E4B1B690E4A11890122184601F0F5FD58
:10096C000A4B5B690A4A51890122184601F0EDFDD8
:10097C00064B9B69064A91890022184601F0E5FD59
:10098C0000BF00BF0837BD4680BD00BF000000207F
:10099C001C00002080B400AFBFF34F8F00BF064B8C
:1009AC00DB6803F4E0620449044B1343CB60BFF3F0
:1009BC004F8F00BF00BFFDE700ED00E00400FA051B
:1009CC0080B582B000AF0346FB714F4B1B78012BF7
:1009DC0002D14E4B04221A70FB79032B00F2888053
:1009EC0001A252F823F000BF050A0008430A0008D0
:1009FC007B0A0008B30A0008454B1B78012B17D162
:100A0C00424B01221A70434800F052FF424800F05A
:100A1C004FFF00F0C3FB414B9A78414B1A70404B8F
:100A2C0002225A700120FFF731FC00F03BFD66E01A
:100A3C0000F0BEF863E0364B1B78012B11D1334B21
:100A4C0002221A7000F0AAFB344BDA78344B1A707D
:100A5C00334B03225A700120FFF718FC00F022FDE3
:100A6C004DE0304A3049002000F0C6F947E0284BF1
:100A7C001B78012B11D1254B03221A7000F08EFB31
:100A8C00264B1A79264B1A70254B04225A700120DA
:100A9C00FFF7FCFB00F006FD31E0244A244901205D
:100AAC0000F0AAF92BE01A4B1B78012B1AD1174B2B
:100ABC0000221A701F4B00221A701F4B01221A7051
:100ACC001E4800F0F5FE1E4B01225A701C4B0122F1
:100ADC009A701B4B0122DA700020FFF7D7FB00F055
:100AEC00E1FC0CE0114A1749022000F085F906E000
:100AFC00154B1B78022B01D0FFF74CFF00BF00BF3A
:100B0C000837BD4680BD00BF3C040020D900002042
:100B1C004804002041040020420400202C00002046
:100B2C0014010020380000202E0000203600002088
:100B3C002F0000200401002044000020430400206A
:100B4C0040040020300000203804002080B483B022
:100B5C0000AF7860084B00221A607B68074A82FB62
:100B6C0003129210DB17D31A054A136000BF0C371F
:100B7C00BD4680BC704700BFD0000020676666662B
:100B8C00D400002080B400AF074B1B68013B064A21
:100B9C001360054B1B68002B02D1044B01221A6019
:100BAC0000BFBD4680BC7047D4000020D0000020A0
:100BBC0080B500AF834B1B78032B00F2F48001A2AD
:100BCC0052F823F0E10B0008910C0008C30D00084B
:100BDC004B0D00087C4B5B78012B0ED17B4800F051
:100BEC0067FE7B4800F064FE7A4800F061FE754BAE
:100BFC0001221A7000F056FCDFE0734B9B78012B3E
:100C0C000FD1724800F054FE734B1B78022B02D0AC
:100C1C006F4800F04DFE6B4B03221A7000F042FC43
:100C2C00CBE06A4A6D496C4801F05CF8684A6C4943
:100C3C006C4801F057F86C4BDB78DBB2012B06D11A
:100C4C00FFF7B8FB63494FF47A7000F0C3FD664BB5
:100C5C001B79DBB2012B40F0B080644B1B78032B6B
:100C6C0002D9624B00221A70604B1B785A1CD1B20D
:100C7C005E4A11701846FFF763FA5D49C82000F010
:100C8C00A9FD9AE0504B5B78012B20D1534B5B783C
:100C9C001A464FF47A7303FB02F34C49184600F0E2
:100CAC0099FD4F4B5B781A464FF47A7303FB02F3B2
:100CBC004749184600F08EFD46494FF47A7000F013
:100CCC0089FD404B00221A7000F0ECFB77E03E4BA4
:100CDC009B78012B0FD13D4800F0EAFD3E4B1B7871
:100CEC00022B02D03A4800F0E3FD364B03221A7077
:100CFC0000F0D8FB63E0354A3849374800F0F2FF82
:100D0C00334A3749374800F0EDFF374B1B79DBB2DC
:100D1C00012B54D1354B1B78032B02D9334B0022BA
:100D2C001A70324B1B785A1CD1B2304A11701846CB
:100D3C00FFF706FA2E49C82000F04CFD3FE02A4B85
:100D4C0001225A70284B01229A70234B1B78022BDC
:100D5C001CD1244B01221A701D4A2149214800F054
:100D6C00C1FF1B4800F0A4FD1C4BDB781A464FF466
:100D7C007A7303FB02F31649184600F02BFD174B50
:100D8C00DB780133DAB2164B5A7006E0124B1B7843
:100D9C00002B02D1134B01221A700A4B00221A703D
:100DAC0000F080FB0CE0074B00221A7080211148E8
:100DBC0001F0E3FB04E000BF02E000BF00E000BF75
:100DCC0000BF80BDDA000020480400204104002050
:100DDC004204002043040020040100202C000020C9
:100DEC00340000204400002040040020D8000020E3
:100DFC0044040020000C014080B584B000AF0346D1
:100E0C00B9607A60FB739C4B1B78042B00F27D81DC
:100E1C0001A252F823F000BF390E0008510F000850
:100E2C007B0F00081D10000847100008934B5B78DF
:100E3C00012B05D1904B01221A7000F033FB68E1B5
:100E4C008F4B5B78012B0AD18E494FF4FA7000F06E
:100E5C00C1FC894B02221A7000F024FB59E18A4B29
:100E6C005B78012B05D1844B03221A7000F01AFB1E
:100E7C004FE1864B5B78012B0AD182494FF4FA7013
:100E8C0000F0A8FC7C4B04221A7000F00BFB40E134
:100E9C007A4B9B78012B2CD17D4B1B78002B22D0CD
:100EAC007B4B1A78BB681B789A420CD37B681A78F8
:100EBC00774B1978BB681B78CB1ADBB21344DAB2C8
:100ECC007B681A700BE07B681A78714B1978BB68D9
:100EDC001B78CB1ADBB21344DAB27B681A706C4BFA
:100EEC001A78BB681A70644B00221A7000F0DAFA98
:100EFC000FE1684BDB78DBB2012B08D166494FF46C
:100F0C00FA7000F067FCFB7B184600F017F9614B98
:100F1C001B79DBB2012B40F0FC80604B1B78032B60
:100F2C0002D95E4B00221A705C4B1B785A1CD1B252
:100F3C005A4A11701846FFF703F95949C82000F0B6
:100F4C0049FCE6E0524B1B78622B06D8504B1B78C1
:100F5C000133DAB24E4B1A7002E04D4B00221A707C
:100F6C000120FFF793F9444B00221A70D6E04D4B49
:100F7C005B78022B43D1474B5B79DBB2012B15D14C
:100F8C004049FA2000F026FC414B1B78622B06D816
:100F9C003F4B1B780133DAB23D4B1A7002E03C4BED
:100FAC0000221A700120FFF771F9B4E0394BDB789D
:100FBC00DBB2012B08D138494FF4FA7000F00AFC6F
:100FCC00FB7B184600F0BAF8324B1B79DBB2012BD5
:100FDC0040F0A180314B1B78032B02D92F4B002200
:100FEC001A702E4B1B785A1CD1B22C4A1170184611
:100FFC00FFF7A6F82A49C82000F0ECFB8BE021484B
:10100C0000F056FC00F04EFA1B4B00221A7082E0E6
:10101C001F4B1B78002B06D01D4B1B78013BDAB203
:10102C001B4B1A7002E01A4B63221A700120FFF757
:10103C002DF9114B00221A7070E01A4B5B78042BBF
:10104C005AD1144B5B79DBB2012B2DD10D49FA200F
:10105C0000F0C0FB0E4B1B78002B06D00C4B1B7802
:10106C00013BDAB20A4B1A7002E0094B63221A7088
:10107C000120FFF70BF950E0DB00002048040020B2
:10108C003C040020450400201001002078040020BE
:10109C00140100204004002043040020D80000204C
:1010AC0044040020380400201E4BDB78DBB2012BFB
:1010BC0008D11D494FF4FA7000F08CFBFB7B1846ED
:1010CC0000F03CF8174B1B79DBB2012B25D1174BE9
:1010DC001B78032B02D9154B00221A70134B1B786B
:1010EC005A1CD1B2114A11701846FFF729F8104951
:1010FC00C82000F06FFB10E00E4800F0D9FB00F0A8
:10110C00D1F90D4B00221A7007E00B4B00221A701C
:10111C0004E000BF02E000BF00E000BF00BF1037DA
:10112C00BD4680BD4004002043040020D8000020B0
:10113C004404002045040020DB00002080B582B070
:10114C0000AF0346FB71FB79022B18D0022B1FDC7E
:10115C00002B02D0012B09D01AE001210E4801F01E
:10116C000CFA08210C4801F008FA11E002210A4897
:10117C0001F003FA1021084801F0FFF908E00421FE
:10118C00054801F0FAF92021034801F0F6F900BFF7
:10119C0000BF0837BD4680BD000C014080B500AFD4
:1011AC00012201210E4801F0D0F9012208210C483E
:1011BC0001F0CBF901220221094801F0C6F9012204
:1011CC001021074801F0C1F901220421044801F063
:1011DC00BCF901222021024801F0B7F900BF80BD03
:1011EC00000C014080B582B000AF0346FB71FB7967
:1011FC00022B12D0022B16DC002B02D0012B06D0B6
:10120C0011E001210B4801F089F903460DE00221A0
:10121C00084801F083F9034607E00421054801F072
:10122C007DF9034601E000BF012318460837BD468F
:10123C0080BD00BF0008014090B583B000AF002313
:10124C00FB710EE1FA79FB798A49895C8A4AD1549F
:10125C00FC79FB791846FFF7C5FF03461A46854B08
:10126C001A55FB79834AD25CFB798349CB5C9A4251
:10127C0005D1FA79FB797F49895C804AD154FB7995
:10128C007E4AD35C012B38D1FB797D4AD35C052B8C
:10129C0003D1FB797A4A0021D154FB79784AD35C8B
:1012AC00062B03D1FB79764A0021D154FB79744A81
:1012BC00D35C012B03D1FB79714A0221D154FB7908
:1012CC006F4AD35C032B03D1FB796D4A0421D154B3
:1012DC00FB796C4A002122F81310FB796A4A32F828
:1012EC001330132B34D8FB79674A32F813200132B0
:1012FC0091B2654A22F813102AE0FB795F4AD35C5D
:10130C00002B25D1FB795E4AD35C002B03D1FB79F2
:10131C005B4A0121D154FB79594AD35C022B03D18E
:10132C00FB79574A0321D154FB79574A002122F803
:10133C001310FB79534A32F81330632B08D8FB791E
:10134C00504A32F81320013291B24E4A22F813104F
:10135C00FB794B4AD35C002B03D1FB794B4A002120
:10136C00D154FB79464AD35C012B04D0FB79444A17
:10137C00D35C052B11D1FB79424A32F81330632B25
:10138C000BD9FB79424A0121D154FB793F4A022106
:10139C00D154FB793A4A0521D154FB79384AD35CB4
:1013AC00022B11D1FB79384A32F81330132B0BD99D
:1013BC00FB79384A0121D154FB79344A0121D154AB
:1013CC00FB792F4A0021D154FB792D4AD35C032B96
:1013DC0004D0FB792A4AD35C062B11D1FB79294A1C
:1013EC0032F81330632B0BD9FB792B4A0121D154E2
:1013FC00FB79264A0421D154FB79214A0621D15488
:10140C00FB791F4AD35C042B11D1FB791E4A32F8AD
:10141C001330132B0BD9FB79204A0121D154FB79C2
:10142C001A4A0321D154FB79154A0021D154FB7976
:10143C00002B02D11A4B00221A70FB790F4AD35C95
:10144C00002B0CBF01230023DBB25AB2144B1B78C8
:10145C005BB213435BB2DAB2114B1A70FB790133F6
:10146C00FB71FB79022B7FF6EDAE00BF00BF0C3792
:10147C00BD4690BDE0000020E40000203C000020B0
:10148C00F8000020E8000020F000002038040020C4
:10149C003C040020480400207804002010010020A7
:1014AC00DC00002080B500AF03220021094802F0C7
:1014BC006FF803220021084802F06AF80322002189
:1014CC00064802F065F803220021054802F060F896
:1014DC0000BF80BD480400203C0400201001002007
:1014EC007804002080B500AF0A4B1B78012B05D186
:1014FC0000224FF40041084801F027F8054B1B78F7
:10150C00002B05D101224FF40041034801F01DF8D6
:10151C0000BF80BDDC0000200008014080B500AF9A
:10152C0000F012FD00F066F800F0EEF800F0A0F804
:10153C00254801F067FC4FF47A70FFF707FB012296
:10154C004021224801F001F801224FF4804120484B
:10155C0000F0FBFF012280211C4800F0F6FF1D4922
:10156C004FF47A7000F036F91B494FF47A7000F0A2
:10157C0031F91A494FF47A7000F02CF918494FF4EC
:10158C007A7000F027F917494FF47A7000F022F9BD
:10159C0015494FF47A7000F01DF9144B1B68012BA0
:1015AC0007D14021094800F0E8FF4FF47A70FFF7AB
:1015BC00CDFA00F0BBFAFFF795FF0D4B1B78DBB2B1
:1015CC001846FFF7FDF9E8E77C040020000C014009
:1015DC000008014040040020410400204204002087
:1015EC00430400204404002045040020D0000020C7
:1015FC00D900002080B590B000AF07F11803282265
:10160C000021184601F0C4FF3B1D00221A605A60ED
:10161C009A60DA601A610223BB610123BB6210235A
:10162C00FB6200237B6307F11803184600F0BEFF32
:10163C000346002B01D000F0C7F80F237B6000237A
:10164C00BB600023FB604FF480633B614FF480630D
:10165C007B613B1D0021184601F028FA0346002B44
:10166C0001D000F0B1F800BF4037BD4680BD00008E
:10167C0080B586B000AF07F1080300221A605A60EB
:10168C009A60DA603B4600221A605A601D4B4FF09C
:10169C0080421A601B4B41F63F725A60194B002274
:1016AC009A60184B0922DA60164B00221A61154B0E
:1016BC0000229A61134801F055FB0346002B01D020
:1016CC0000F082F84FF48053BB6007F10803194611
:1016DC000C4801F0D3FC0346002B01D000F074F849
:1016EC0000233B6000237B603B461946054801F014
:1016FC00ABFE0346002B01D000F066F800BF183794
:10170C00BD4680BD7C04002080B586B000AF07F1DB
:10171C00080300221A605A609A60DA60274B9B69B2
:10172C00264A43F004039361244B9B6903F00403A2
:10173C007B607B68214B9B69204A43F008039361D3
:10174C001E4B9B6903F008033B603B6800224FF67D
:10175C00F8711B4800F0F9FE0022FF21194800F037
:10176C00F4FE0723BB600023FB6001233B6107F100
:10177C0008031946124800F057FD4FF6F873BB608A
:10178C000123FB6000233B6102237B6107F108030B
:10179C0019460B4800F048FDFF23BB600123FB609A
:1017AC0000233B6102237B6107F1080319460548BE
:1017BC0000F03AFD00BF1837BD4680BD0010024056
:1017CC0000080140000C014080B400AF72B600BFAD
:1017DC00FEE7000080B584B000AF786039603B68EC
:1017EC0000221A700C2001F0C3FE0346FB60FB685C
:1017FC00002B49D07B689AB2FB681A80FB683A6868
:10180C005A607B68B3F57A7F20D3214B1B7819463D
:10181C007B68204AA2FB03239B0919441E4BA3FBA4
:10182C0001239A0913465B0013445A011344CA1A44
:10183C001346BB72BB7A194A52F82320FB689A6094
:10184C00BB7A1649FA6841F823201EE0144B1B782A
:10185C0019467B68134AA2FB0323DB08CA18124BF8
:10186C00A3FB02135B09642101FB03F3D31AFB7284
:10187C00FB7A0E4A52F82320FB689A60FB7A0B49DC
:10188C00FA6841F8232000E000BF1037BD4680BD48
:10189C00FC000020D34D621003B57EA5AC020020E5
:1018AC00FB000020CDCCCCCC1F85EB5118010020C7
:1018BC0080B588B000AF78600023FB770023BB773E
:1018CC002BE0BB7F344A52F82330BB611FE0BB696D
:1018DC005B687A689A4217D1BB693B61BB7F2E4A21
:1018EC0052F823303A699A4205D1BB7F3A69926823
:1018FC00294941F823203B699B68BB61386901F099
:10190C003FFE0123FB7705E0BB699B68BB61BB69AC
:10191C00002BDCD1BB7F0133BB77BB7F612B02D8A3
:10192C00FB7F012BCDD10023BB772BE0BB7F1B4A68
:10193C0052F823307B611FE07B695B687A689A42BE
:10194C0017D17B69FB60BB7F144A52F82330FA68CD
:10195C009A4205D1BB7FFA689268104941F823205E
:10196C00FB689B687B61F86801F00AFE0123FB773A
:10197C0005E07B699B687B617B69002BDCD1BB7FBD
:10198C000133BB77BB7F622B02D8FB7F012BCDD100
:10199C0000BF2037BD4680BDAC02002018010020DE
:1019AC0080B586B000AF4F4B1B78002B4FD14E4B00
:1019BC001B781A464D4B53F822307B613DE07B6916
:1019CC001B884B4AA2FB0323DB089BB2494AA2FBB0
:1019DC0003125209642101FB02F29B1A9BB2FB73A6
:1019EC000C2001F0C5FD0346BB60BB68002B74D016
:1019FC007B691B88404AA2FB031292094FF47A714F
:101A0C0001FB02F29B1A9AB2BB681A807B695A6876
:101A1C00BB685A60FB7B394A52F82320BB689A603A
:101A2C00FB7B3649BA6841F823207B697B607B6974
:101A3C009B687B61786801F0A3FD7B69002BBED1AC
:101A4C00294B1B781946294B002243F82120254BA2
:101A5C001B781A46294B53F822303B610BE03B694B
:101A6C005B6801221A703B693B603B699B683B6178
:101A7C00386801F085FD3B69002BF0D1194B1B78C0
:101A8C0019461E4B002243F82120164B1B780133BC
:101A9C00184A82FB03125111DA178A1A642101FBCE
:101AAC0002F29A1AD2B20F4B1A700E4B1B78622BA1
:101ABC0014D90D4B1B785A1C114B83FB0213134486
:101ACC009911D317C91A0B465B000B4459010B44EF
:101ADC00D11ACAB2044B1A7000E000BF1837BD46C9
:101AEC0080BD00BFFB000020FC000020AC020020E9
:101AFC00CDCCCCCC1F85EB51D34D621018010020FE
:101B0C0003B57EA580B582B000AF78607B681B689A
:101B1C00B3F1804F05D1FFF743FFFFF78DFBFFF7C4
:101B2C0031F800BF0837BD4680BD000080B500AF5E
:101B3C00084B1B78DBB2012B09D14FF480410648CE
:101B4C0000F01BFD03494FF47A70FFF743FE00BF12
:101B5C0080BD00BF400400200008014080B485B067
:101B6C0000AF154B9B69144A43F001039361124B70
:101B7C009B6903F00103BB60BB680F4BDB690E4A2A
:101B8C0043F08053D3610C4BDB6903F080537B60D3
:101B9C007B680A4B5B68FB60FB6823F0E063FB60CF
:101BAC00FB6843F08063FB60044AFB68536000BF32
:101BBC001437BD4680BC7047001002400000014045
:101BCC0080B584B000AF78607B681B68B3F1804F40
:101BDC0013D10C4BDB690B4A43F00103D361094B66
:101BEC00DB6903F00103FB60FB68002200211C2071
:101BFC0000F0E3FA1C2000F0FCFA00BF1037BD46E1
:101C0C0080BD00BF0010024080B400AFFEE780B47E
:101C1C0000AFFEE780B400AFFEE780B400AFFEE794
:101C2C0080B400AFFEE780B400AF00BFBD4680BCFF
:101C3C00704780B400AF00BFBD4680BC704780B415
:101C4C0000AF00BFBD4680BC704780B500AF00F050
:101C5C00C1F900BF80BD000080B500AF024801F0A3
:101C6C001DF900BF80BD00BF7C04002080B586B08C
:101C7C0000AF7860144A154BD31A7B617B693B61CA
:101C8C00134B1B68002B02D1114B124A1A60104BDC
:101C9C001A687B6813443A699A4207D201F03EFCF9
:101CAC0003460C221A604FF0FF3309E0084B1B6807
:101CBC00FB60074B1A687B681344054A1360FB688A
:101CCC0018461837BD4680BD0028002000040000CF
:101CDC0000010020D804002080B400AF00BFBD4636
:101CEC0080BC704780B584B000AFF860B9607A6092
:101CFC00FB681B78022B44D0022B61DC002B02D03A
:101D0C00012B1FD05CE07B681B78DBB2012B5BD115
:101D1C00FB6802221A70BB681B78184600F0BEF8EC
:101D2C00BB681B791A464FF47A7303FB02F379688C
:101D3C001846FFF74FFDBB681B790133DAB2BB685D
:101D4C005A7041E07B681B78DBB2012B3ED1FB68FB
:101D5C0000221A70BB681B78184600F03FF8BB686D
:101D6C009B781A464FF47A7303FB02F37968184692
:101D7C00FFF730FDBB689B780133DAB2BB685A7051
:101D8C0024E07B681B78DBB2012B21D1FB6801229C
:101D9C001A70BB681B78184600F050F8BB68DB78EB
:101DAC001A464FF47A7303FB02F379681846FFF76F
:101DBC0011FDBB68DB780133DAB2BB685A7007E0FF
:101DCC00FB6800221A7004E000BF02E000BF00E0D4
:101DDC0000BF00BF1037BD4680BD000080B582B08B
:101DEC0000AF0346FB71FB79002B0ED100220121C1
:101DFC00114800F0AAFB012202210F4800F0A5FBBC
:101E0C00012204210C4800F0A0FBFB79012B0ED120
:101E1C0000220821084800F098FB012210210648F6
:101E2C0000F093FB01222021034800F08EFB00BF41
:101E3C000837BD4680BD00BF000C014080B582B0A4
:101E4C0000AF0346FB71FB79002B0ED1002202215F
:101E5C00114800F07AFB012204210F4800F075FBB9
:101E6C00012201210C4800F070FBFB79012B0ED1F3
:101E7C0000221021084800F068FB012220210648AE
:101E8C0000F063FB01220821034800F05EFB00BF59
:101E9C000837BD4680BD00BF000C014080B582B044
:101EAC0000AF0346FB71FB79002B0ED100220421FD
:101EBC00114800F04AFB012201210F4800F045FBBC
:101ECC00012202210C4800F040FBFB79012B0ED1C2
:101EDC0000222021084800F038FB01220821064886
:101EEC0000F033FB01221021034800F02EFB00BF51
:101EFC000837BD4680BD00BF000C0140FFF7ECFE6B
:101F0C000B480C490C4A002302E0D458C45004334B
:101F1C00C4188C42F9D3094A094C002301E0136020
:101F2C000432A242FBD301F0FFFAFFF7F7FA704735
:101F3C0000000020B400002078370008B400002016
:101F4C00D8040020FEE7000080B500AF084B1B68EA
:101F5C00074A43F010031360032000F023F90F200D
:101F6C0000F008F8FFF7FAFD0023184680BD00BF0B
:101F7C000020024080B582B000AF7860124B1A6826
:101F8C00124B1B7819464FF47A73B3FBF1F3B2FB87
:101F9C00F3F3184600F03BF90346002B01D0012364
:101FAC000EE07B680F2B0AD8002279684FF0FF30C7
:101FBC0000F003F9064A7B681360002300E001235C
:101FCC0018460837BD4680BD400000204C0000205C
:101FDC004800002080B400AF054B1B781A46054B17
:101FEC001B681344034A136000BFBD4680BC704796
:101FFC004C000020C404002080B400AF024B1B68CE
:10200C001846BD4680BC7047C404002080B485B01F
:10201C0000AF78607B6803F00703FB600C4BDB6858
:10202C00BB60BA684FF6FF031340BB60FB681A0233
:10203C00BB68134343F0BF6343F40033BB60044AF3
:10204C00BB68D36000BF1437BD4680BC704700BF6F
:10205C0000ED00E080B400AF044BDB681B0A03F01A
:10206C0007031846BD4680BC704700BF00ED00E07A
:10207C0080B483B000AF0346FB7197F90730002B97
:10208C000BDBFB7903F01F02064997F907305B095C
:10209C00012000FA02F241F8232000BF0C37BD46A4
:1020AC0080BC704700E100E080B483B000AF034611
:1020BC003960FB7197F90730002B0ADB3B68DAB209
:1020CC000C4997F907301201D2B20B4483F8002364
:1020DC000AE03B68DAB20849FB7903F00F03043BD2
:1020EC001201D2B20B441A7600BF0C37BD4680BC2D
:1020FC00704700BF00E100E000ED00E080B489B063
:10210C0000AFF860B9607A60FB6803F00703FB610D
:10211C00FB69C3F10703042B28BF0423BB61FB69D4
:10212C000433062B02D9FB69033B00E000237B61DF
:10213C004FF0FF32BB6902FA03F3DA43BB681A4073
:10214C007B699A404FF0FF317B6901FA03F3D94365
:10215C007B680B40134318462437BD4680BC704740
:10216C0080B582B000AF78607B68013BB3F1807FB3
:10217C0001D301230FE00A4A7B68013B53600F2116
:10218C004FF0FF30FFF790FF054B00229A60044B95
:10219C0007221A60002318460837BD4680BD00BFD1
:1021AC0010E000E080B582B000AF78607868FFF78F
:1021BC002DFF00BF0837BD4680BD80B586B000AF8F
:1021CC000346B9607A60FB7300237B61FFF742FF23
:1021DC0078617A68B9687869FFF790FF024697F9D9
:1021EC000F3011461846FFF75FFF00BF1837BD468A
:1021FC0080BD80B582B000AF0346FB7197F9073004
:10220C001846FFF735FF00BF0837BD4680BD80B5C7
:10221C0082B000AF78607868FFF7A2FF03461846DB
:10222C000837BD4680BD000080B48BB000AF78602D
:10223C00396000237B6200233B6248E101227B6A08
:10224C0002FA03F3FB613B681B68FA691340BB613C
:10225C00BA69FB699A4240F037813B685B68A34AD4
:10226C0093425ED0A14A934275D8A14A934258D06A
:10227C009F4A93426FD89F4A934252D09D4A9342B1
:10228C0069D89D4A93424CD09B4A934263D89B4A4F
:10229C00934246D0994A93425DD8122B2AD8122BDE
:1022AC0059D801A252F823F02F2300080923000863
:1022BC001B2300085D230008632300086323000828
:1022CC0063230008632300086323000863230008CA
:1022DC0063230008632300086323000863230008BA
:1022EC0063230008632300086323000811230008FC
:1022FC0025230008824A934213D02CE03B68DB680C
:10230C003B6229E03B68DB6804333B6224E03B68BA
:10231C00DB6808333B621FE03B68DB680C333B62D5
:10232C001AE03B689B68002B02D104233B6213E04C
:10233C003B689B68012B05D108233B627B68FA69DB
:10234C001A6109E008233B627B68FA695A6103E071
:10235C0000233B6200E000BFBB69FF2B01D87B6808
:10236C0001E07B6804337B61BB69FF2B02D87B6A7D
:10237C009B0002E07B6A083B9B003B617B691A680F
:10238C000F213B6901FA03F3DB431A40396A3B69BD
:10239C0001FA03F31A437B691A603B685B6803F02C
:1023AC008053002B00F09080564B9B69554A43F0AC
:1023BC0001039361534B9B6903F00103BB60BB6842
:1023CC00514A7B6A9B08023352F82330FB607B6ACC
:1023DC0003F003039B000F2202FA03F3DB43FA68BA
:1023EC001340FB607B68494A93420DD07B68484A96
:1023FC00934207D07B68474A934201D1022304E001
:10240C00032302E0012300E000237A6A02F00302B6
:10241C0092009340FA681343FB603B497B6A9B082C
:10242C000233FA6841F823203B685B6803F480139D
:10243C00002B06D0384B9A683749BB6913438B6025
:10244C0006E0354B9A68BB69DB43334913408B601C
:10245C003B685B6803F40013002B06D02E4BDA6844
:10246C002D49BB691343CB6006E02B4BDA68BB6983
:10247C00DB4329491340CB603B685B6803F40033B2
:10248C00002B06D0244B5A682349BB6913434B607D
:10249C0006E0214B5A68BB69DB431F4913404B6074
:1024AC003B685B6803F48033002B06D01A4B1A6828
:1024BC001949BB6913430B6006E0174B1A68BB69DB
:1024CC00DB43154913400B607B6A01337B623B682D
:1024DC001A687B6A22FA03F3002B7FF4AFAE00BFBD
:1024EC0000BF2C37BD4680BC704700BF00003210C7
:1024FC00000031100000221000002110000012100A
:10250C0000001110001002400000014000080140C2
:10251C00000C0140001001400004014080B485B063
:10252C0000AF78600B467B807B689A687B88134091
:10253C00002B02D00123FB7301E00023FB73FB7B18
:10254C0018461437BD4680BC704780B483B000AFCA
:10255C0078600B467B8013467B707B78002B03D016
:10256C007A887B681A6103E07B881A047B681A619D
:10257C0000BF0C37BD4680BC704780B485B000AF3F
:10258C0078600B467B807B68DB68FB607A88FB6835
:10259C0013401A04FB68D9437B880B401A437B68B1
:1025AC001A6100BF1437BD4680BC704780B586B039
:1025BC0000AF78607B68002B01D101236CE27B6853
:1025CC001B6803F00103002B00F08780924B5B68C3
:1025DC0003F00C03042B0CD08F4B5B6803F00C0343
:1025EC00082B12D18C4B5B6803F48033B3F5803F1E
:1025FC000BD1894B1B6803F40033002B6CD07B6828
:10260C005B68002B68D1012346E27B685B68B3F5FD
:10261C00803F06D1804B1B687F4A43F480331360A4
:10262C002EE07B685B68002B0CD17B4B1B687A4AD5
:10263C0023F480331360784B1B68774A23F4802390
:10264C0013601DE07B685B68B3F5A02F0CD1724B57
:10265C001B68714A43F4802313606F4B1B686E4AEE
:10266C0043F4803313600BE06B4B1B686A4A23F412
:10267C0080331360684B1B68674A23F48023136014
:10268C007B685B68002B13D0FFF7B6FC386108E061
:10269C00FFF7B2FC02463B69D31A642B01D9032322
:1026AC00FAE15D4B1B6803F40033002BF0D014E00F
:1026BC00FFF7A2FC386108E0FFF79EFC02463B697D
:1026CC00D31A642B01D90323E6E1534B1B6803F4A3
:1026DC000033002BF0D100E000BF7B681B6803F0D7
:1026EC000203002B63D04C4B5B6803F00C03002BF4
:1026FC000BD0494B5B6803F00C03082B1CD1464BE9
:10270C005B6803F48033002B16D1434B1B6803F03A
:10271C000203002B05D07B681B69012B01D0012320
:10272C00BAE13D4B1B6823F0F8027B685B69DB0068
:10273C00394913430B603AE07B681B69002B20D0AE
:10274C00364B01221A60FFF757FC386108E0FFF79F
:10275C0053FC02463B69D31A022B01D903239BE19C
:10276C002D4B1B6803F00203002BF0D02A4B1B6887
:10277C0023F0F8027B685B69DB00274913430B608D
:10278C0015E0264B00221A60FFF736FC386108E092
:10279C00FFF732FC02463B69D31A022B01D9032303
:1027AC007AE11D4B1B6803F00203002BF0D17B6810
:1027BC001B6803F00803002B3AD07B689B69002B45
:1027CC0019D0174B01221A60FFF716FC386108E08C
:1027DC00FFF712FC02463B69D31A022B01D90323E3
:1027EC005AE10D4B5B6A03F00203002BF0D0012081
:1027FC0000F09AFA1CE00A4B00221A60FFF7FCFB6F
:10280C0038610FE0FFF7F8FB02463B69D31A022B45
:10281C0008D9032340E100BF0010024000004242EF
:10282C00800442429E4B5B6A03F00203002BE9D109
:10283C007B681B6803F00403002B00F0A6800023C8
:10284C00FB75974BDB6903F08053002B0DD1944B38
:10285C00DB69934A43F08053D361914BDB6903F0FE
:10286C008053BB60BB680123FB758E4B1B6803F464
:10287C008073002B18D18B4B1B688A4A43F48073EE
:10288C001360FFF7B9FB386108E0FFF7B5FB0246B0
:10289C003B69D31A642B01D90323FDE0814B1B68E0
:1028AC0003F48073002BF0D07B68DB68012B06D11E
:1028BC007B4B1B6A7A4A43F0010313622DE07B6861
:1028CC00DB68002B0CD1764B1B6A754A23F0010395
:1028DC001362734B1B6A724A23F0040313621CE0ED
:1028EC007B68DB68052B0CD16D4B1B6A6C4A43F083
:1028FC00040313626A4B1B6A694A43F001031362B7
:10290C000BE0674B1B6A664A23F001031362644BAE
:10291C001B6A634A23F0040313627B68DB68002B99
:10292C0015D0FFF769FB38610AE0FFF765FB02463B
:10293C003B69D31A41F28832934201D90323ABE0AD
:10294C00574B1B6A03F00203002BEED014E0FFF789
:10295C0053FB38610AE0FFF74FFB02463B69D31A81
:10296C0041F28832934201D9032395E04C4B1B6A08
:10297C0003F00203002BEED1FB7D012B05D1484B5C
:10298C00DB69474A23F08053D3617B68DB69002BFA
:10299C0000F08180424B5B6803F00C03082B61D084
:1029AC007B68DB69022B46D13F4B00221A60FFF794
:1029BC0023FB386108E0FFF71FFB02463B69D31A83
:1029CC00022B01D9032367E0354B1B6803F000731E
:1029DC00002BF0D17B681B6AB3F5803F08D1304BDC
:1029EC005B6823F400327B689B682D4913434B6072
:1029FC002B4B5B6823F474127B68196A7B685B6AE7
:102A0C000B43274913434B60274B01221A60FFF7F6
:102A1C00F3FA386108E0FFF7EFFA02463B69D31A84
:102A2C00022B01D9032337E01D4B1B6803F0007305
:102A3C00002BF0D02FE01C4B00221A60FFF7DCFAC1
:102A4C00386108E0FFF7D8FA02463B69D31A022B2B
:102A5C0001D9032320E0124B1B6803F00073002BF9
:102A6C00F0D118E07B68DB69012B01D1012313E065
:102A7C000B4B5B68FB60FB6803F480327B681B6A62
:102A8C009A4206D1FB6803F470127B685B6A9A4227
:102A9C0001D0012300E0002318461837BD4680BD45
:102AAC0000100240007000406000424280B584B0CB
:102ABC0000AF786039607B68002B01D10123D0E036
:102ACC006A4B1B6803F007033A689A4210D9674BAC
:102ADC001B6823F0070265493B6813430B60634B8B
:102AEC001B6803F007033A689A4201D00123B8E04F
:102AFC007B681B6803F00203002B20D07B681B68EB
:102B0C0003F00403002B05D0594B5B68584A43F47F
:102B1C00E06353607B681B6803F00803002B05D04F
:102B2C00534B5B68524A43F460535360504B5B68A1
:102B3C0023F0F0027B689B684D4913434B607B6824
:102B4C001B6803F00103002B40D07B685B68012BF2
:102B5C0007D1474B1B6803F40033002B15D101231D
:102B6C007FE07B685B68022B07D1414B1B6803F04D
:102B7C000073002B09D1012373E03D4B1B6803F05C
:102B8C000203002B01D101236BE0394B5B6823F06E
:102B9C0003027B685B68364913434B60FFF72CFAE2
:102BAC00F8600AE0FFF728FA0246FB68D31A41F2F4
:102BBC008832934201D9032353E02D4B5B6803F019
:102BCC000C027B685B689B009A42EBD1274B1B681D
:102BDC0003F007033A689A4210D2244B1B6823F087
:102BEC00070222493B6813430B60204B1B6803F020
:102BFC0007033A689A4201D0012332E07B681B68D4
:102C0C0003F00403002B08D0194B5B6823F4E0623B
:102C1C007B68DB68164913434B607B681B6803F0C9
:102C2C000803002B09D0124B5B6823F460527B68BD
:102C3C001B69DB000E4913434B6000F021F8024680
:102C4C000B4B5B681B0903F00F030A49CB5C22FAA0
:102C5C0003F3094A1360094B1B681846FFF78AF9FE
:102C6C00002318461037BD4680BD00BF002002402F
:102C7C00001002404C3700084000002048000020A3
:102C8C0080B487B000AF0023FB600023BB6000233F
:102C9C007B6100237B6000233B611E4B5B68FB6008
:102CAC00FB6803F00C03042B02D0082B03D027E0A5
:102CBC00194B3B6127E0FB689B0C03F00F03174A91
:102CCC00D35C7B60FB6803F48033002B10D0114B7A
:102CDC005B685B0C03F00103114AD35CBB607B683F
:102CEC000D4A02FB03F2BB68B2FBF3F37B6104E019
:102CFC007B680C4A02FB03F37B617B693B6102E05E
:102D0C00054B3B6100BF3B6918461C37BD4680BC78
:102D1C00704700BF0010024000127A005C370008B8
:102D2C006C37000800093D0080B485B000AF7860B6
:102D3C000A4B1B680A4AA2FB03235B0A7A6802FB54
:102D4C0003F3FB6000BFFB685A1EFA60002BF9D13D
:102D5C0000BF00BF1437BD4680BC70474000002048
:102D6C00D34D621080B582B000AF78607B68002BC9
:102D7C0001D1012341E07B6893F83D30DBB2002B9D
:102D8C0006D17B68002283F83C207868FEF718FF98
:102D9C007B68022283F83D207B681A687B680433C9
:102DAC001946104600F056FA7B68012283F846203B
:102DBC007B68012283F83E207B68012283F83F2048
:102DCC007B68012283F840207B68012283F8412034
:102DDC007B68012283F842207B68012283F8432020
:102DEC007B68012283F844207B68012283F845200C
:102DFC007B68012283F83D20002318460837BD4626
:102E0C0080BD000080B485B000AF78607B6893F81B
:102E1C003D30DBB2012B01D0012335E07B6802226F
:102E2C0083F83D207B681B68DA687B681B6842F07E
:102E3C000102DA607B681B68164A934209D07B68F2
:102E4C001B68B3F1804F04D07B681B68124A934215
:102E5C0011D17B681B689B6803F00703FB60FB6860
:102E6C00062B10D07B681B681A687B681B6842F0C5
:102E7C0001021A6007E07B681B681A687B681B6894
:102E8C0042F001021A60002318461437BD4680BC7C
:102E9C00704700BF002C01400004004080B584B096
:102EAC0000AF78607B681B68DB68FB607B681B6825
:102EBC001B69BB60BB6803F00203002B20D0FB68CE
:102ECC0003F00203002B1BD07B681B686FF002021F
:102EDC001A617B6801221A777B681B689B6903F077
:102EEC000303002B03D0786800F098F905E07868AC
:102EFC0000F08BF9786800F09AF97B6800221A7759
:102F0C00BB6803F00403002B20D0FB6803F0040320
:102F1C00002B1BD07B681B686FF004021A617B6866
:102F2C0002221A777B681B689B6903F44073002BA1
:102F3C0003D0786800F072F905E0786800F065F964
:102F4C00786800F074F97B6800221A77BB6803F08C
:102F5C000803002B20D0FB6803F00803002B1BD0C8
:102F6C007B681B686FF008021A617B6804221A7771
:102F7C007B681B68DB6903F00303002B03D07868C4
:102F8C0000F04CF905E0786800F03FF9786800F043
:102F9C004EF97B6800221A77BB6803F01003002BF4
:102FAC0020D0FB6803F01003002B1BD07B681B6840
:102FBC006FF010021A617B6808221A777B681B6815
:102FCC00DB6903F44073002B03D0786800F026F91A
:102FDC0005E0786800F019F9786800F028F97B684A
:102FEC0000221A77BB6803F00103002B0CD0FB689E
:102FFC0003F00103002B07D07B681B686FF0010204
:10300C001A617868FEF77EFDBB6803F08003002B25
:10301C000CD0FB6803F08003002B07D07B681B6887
:10302C006FF080021A61786800F06FFABB6803F0E9
:10303C004003002B0CD0FB6803F04003002B07D09F
:10304C007B681B686FF040021A61786800F0F8F832
:10305C00BB6803F02003002B0CD0FB6803F02003AB
:10306C00002B07D07B681B686FF020021A61786810
:10307C0000F042FA00BF1037BD4680BD80B584B069
:10308C0000AF786039600023FB737B6893F83C30A9
:10309C00012B01D10223B4E07B68012283F83C2090
:1030AC007B68022283F83D207B681B689B68BB60B1
:1030BC00BB6823F07703BB60BB6823F47F43BB6022
:1030CC007B681B68BA689A603B681B68B3F5005F45
:1030DC003ED0B3F5005F00F28780B3F5805F00F05F
:1030EC008680B3F5805F7FD8702B1AD0702B7BD87D
:1030FC00602B50D0602B77D8502B3CD0502B73D8F2
:10310C00402B58D0402B6FD8302B64D0302B6BD841
:10311C00202B60D0202B67D8002B5CD0102B5AD0E2
:10312C0062E07B6818683B6899683B685A683B6842
:10313C00DB6800F06AF97B681B689B68BB60BB6846
:10314C0043F07703BB607B681B68BA689A604FE0FA
:10315C007B6818683B6899683B685A683B68DB6811
:10316C0000F053F97B681B689A687B681B6842F413
:10317C0080429A603CE07B6818683B6859683B6801
:10318C00DB681A4600F0CAF87B681B6850211846A9
:10319C0000F021F92CE07B6818683B6859683B68A3
:1031AC00DB681A4600F0E8F87B681B68602118465B
:1031BC0000F011F91CE07B6818683B6859683B68A3
:1031CC00DB681A4600F0AAF87B681B684021184699
:1031DC0000F001F90CE07B681A683B681B68194623
:1031EC00104600F0F8F803E00123FB7300E000BF89
:1031FC007B68012283F83D207B68002283F83C2009
:10320C00FB7B18461037BD4680BD80B483B000AF41
:10321C00786000BF0C37BD4680BC704780B483B06B
:10322C0000AF786000BF0C37BD4680BC704780B4DF
:10323C0083B000AF786000BF0C37BD4680BC7047D0
:10324C0080B483B000AF786000BF0C37BD4680BC43
:10325C007047000080B485B000AF786039607B683F
:10326C001B68FB607B682B4A934207D07B68B3F1E9
:10327C00804F03D07B68284A934208D1FB6823F027
:10328C007003FB603B685B68FA681343FB607B6808
:10329C00204A934207D07B68B3F1804F03D07B6800
:1032AC001D4A934208D1FB6823F44073FB603B68D2
:1032BC00DB68FA681343FB60FB6823F080023B6811
:1032CC005B691343FB607B68FA681A603B689A6819
:1032DC007B68DA623B681A687B689A627B680D4A85
:1032EC00934203D13B681A697B681A637B6801229D
:1032FC005A617B681B6903F00103002B05D07B68C6
:10330C001B6923F001027B681A6100BF1437BD46AC
:10331C0080BC7047002C01400004004080B487B092
:10332C0000AFF860B9607A60FB681B6A7B61FB6870
:10333C001B6A23F00102FB681A62FB689B693B6104
:10334C003B6923F0F0033B617B681B013A69134333
:10335C003B617B6923F00A037B617A69BB68134389
:10336C007B61FB683A699A61FB687A691A6200BFF3
:10337C001C37BD4680BC704780B487B000AFF86086
:10338C00B9607A60FB681B6A7B61FB681B6A23F07F
:10339C001002FB681A62FB689B693B613B6923F472
:1033AC0070433B617B681B033A6913433B617B6948
:1033BC0023F0A0037B61BB681B017A6913437B611B
:1033CC00FB683A699A61FB687A691A6200BF1C371C
:1033DC00BD4680BC704780B485B000AF7860396062
:1033EC007B689B68FB60FB6823F07003FB603A68AA
:1033FC00FB68134343F00703FB607B68FA689A6031
:10340C0000BF1437BD4680BC704780B487B000AF96
:10341C00F860B9607A603B60FB689B687B617B6994
:10342C0023F47F437B613B681A027B681A43BB68B9
:10343C0013437A6913437B61FB687A699A6000BF16
:10344C001C37BD4680BC704780B485B000AF786037
:10345C0039607B6893F83C30012B01D1022341E0A9
:10346C007B68012283F83C207B68022283F83D2094
:10347C007B681B685B68FB607B681B689B68BB6038
:10348C00FB6823F07003FB603B681B68FA6813430E
:10349C00FB607B681B68FA685A607B681B68144A7F
:1034AC00934209D07B681B68B3F1804F04D07B68D2
:1034BC001B68104A93420CD1BB6823F08003BB609D
:1034CC003B685B68BA681343BB607B681B68BA686F
:1034DC009A607B68012283F83D207B68002283F888
:1034EC003C20002318461437BD4680BC704700BFF3
:1034FC00002C01400004004080B483B000AF786021
:10350C0000BF0C37BD4680BC704780B483B000AFA1
:10351C00786000BF0C37BD4680BC7047014B186803
:10352C00704700BF5000002070B500260C4D0D4CAC
:10353C00641BA410A64209D100F0F6F800260A4D2F
:10354C000A4C641BA410A64205D170BD55F8043B6F
:10355C0098470136EEE755F8043B98470136F2E7F9
:10356C00703700087037000870370008743700088F
:10357C00024B0146186800F05FB800BF50000020F5
:10358C00024B0146186800F00BB800BF5000002039
:10359C0003460244934200D1704703F8011BF9E73C
:1035AC0038B50546002943D051F8043C0C1F002BBC
:1035BC00B8BFE41800F0AAF81E4A1368104633B9D5
:1035CC00636014602846BDE8384000F0A5B8A342FB
:1035DC000AD921686218934201BF1A685B685218B5
:1035EC00226063600460EDE71A465B680BB1A3428E
:1035FC00FAD911685018A0420BD120680144501818
:10360C0083421160DED118685B680144116053601D
:10361C00D8E702D90C232B60D4E7206821188B4201
:10362C0001BF19685B680918216063605460C9E7C1
:10363C0038BD00BF08010020F8B5CD1C25F00305EE
:10364C0008350C2D38BF0C25002D064601DBA94290
:10365C0003D90C2333600020F8BD00F057F8214942
:10366C000A6814469CB9204F3B6823B92146304662
:10367C0000F03CF838602946304600F037F8431C1F
:10368C0023D10C233046336000F046F8E3E723687F
:10369C005B1B17D40B2B03D923601C44256004E05F
:1036AC006368A2420CBF0B605360304600F034F8E4
:1036BC0004F10B00231D20F00700C21ACCD01B1AFA
:1036CC00A350C9E722466468CCE7C41C24F0030469
:1036DC00A042E3D0211A304600F008F80130DDD1C9
:1036EC00CFE700BF080100200C01002038B50023F3
:1036FC00054D044608462B60FEF7B8FA431C02D170
:10370C002B6803B1236038BDC8040020014800F0C9
:10371C0009B800BFD0040020014800F004B800BF75
:10372C00D004002070477047F8B500BFF8BC08BC47
:10373C009E467047F8B500BFF8BC08BC9E46704763
:10374C000000000000000000010203040607080945
:10375C0002030405060708090A0B0C0D0E0F1010C6
:04376C000102000056
:04377000310100081B
:043774000D0100083B
:10377800000801400008014000080140000801401D
:1037880000080140000801400008014080000001D5
:1037980000020004000800100020000000010402DC
:1037A80004000000010106010300000001010100FE
:1037B80000127A0001000000100000000100000063
:1037C800540000200000000000000000000000007D
:1037D80000000000000000000000000000000000E1
:1037E80000000000000000000000000000000000D1
:1037F80000000000000000000000000000000000C1
:1038080000000000000000000000000000000000B0
:1038180000000000000000000000000000000000A0
:04382800000000009C
:0400000508001F09C7
:00000001FF
