:020000040800F2
:1000000000280020B5120008D9110008DF110008EF
:10001000E5110008EB110008F111000800000000D4
:10002000000000000000000000000000F7110008C0
:1000300003120008000000000F1200081B12000845
:10004000FD120008FD120008FD120008FD12000854
:10005000FD120008FD120008FD120008FD12000844
:10006000FD120008FD120008FD120008FD12000834
:10007000FD120008FD120008FD120008FD12000824
:10008000FD120008FD120008FD120008FD12000814
:10009000FD120008FD120008FD120008FD12000804
:1000A000FD120008FD120008FD120008FD120008F4
:1000B00029120008FD12000800000000FD120008CF
:1000C000FD1200080000000000000000FD12000802
:1000D00000000000FD120008FD12000800000000F2
:1000E000FD120008FD120008FD12000800000000CB
:1000F0000000000000000000000000000000000000
:0C01000000000000000000005FF808F1A3
:10010C0010B5054C237833B9044B13B10448AFF345
:10011C0000800123237010BDA0000020000000000F
:10012C00E02A000808B5034B1BB103490348AFF3A1
:10013C00008008BD00000000A4000020E02A000898
:10014C0080B582B000AF0346FB71FB79032B11DC49
:10015C00002BC0F28F80032B00F28C8001A252F88E
:10016C0023F000BF87010008BB010008EF01000865
:10017C0023020008632B68D07CE0414B1B781846A7
:10018C0000F082F8012208213E4801F0B4FB002265
:10019C0010213C4801F0AFFB00222021394801F02E
:1001AC00AAFB00224021374801F0A5FB63E0344B49
:1001BC005B78184600F068F800220821314801F0FD
:1001CC009AFB012210212F4801F095FB00222021DF
:1001DC002C4801F090FB002240212A4801F08BFBB7
:1001EC0049E0274B9B78184600F04EF80022082176
:1001FC00244801F080FB00221021224801F07BFBF7
:10020C00012220211F4801F076FB002240211D48CD
:10021C0001F071FB2FE01A4BDB78184600F034F834
:10022C0000220821174801F066FB00221021154816
:10023C0001F061FB00222021124801F05CFB01223D
:10024C004021104801F057FB15E0002208210D4811
:10025C0001F051FB002210210A4801F04CFB002256
:10026C002021084801F047FB00224021054801F0FD
:10027C0042FB00E000BF00BF0837BD4680BD00BF99
:10028C008C0200200008014080B582B000AF03460C
:10029C00FB71FB790A2B00F28D8201A252F823F03C
:1002AC004B030008BD0300082F040008A10400083C
:1002BC001D0500088F0500080106000873060008DC
:1002CC00E506000847070008D90200088E4B1B689A
:1002DC008E4A11880122184601F00DFB8A4B5B688F
:1002EC008A4A51880122184601F005FB864B9B680F
:1002FC00864A91880122184601F0FDFA824BDB6890
:10030C00824AD1880122184601F0F5FA7E4B1B690E
:10031C007E4A11890122184601F0EDFA7A4B5B698D
:10032C007A4A51890122184601F0E5FA764B9B690D
:10033C00764A91890122184601F0DDFA73E2724B7C
:10034C001B68724A11880022184601F0D4FA6E4BD1
:10035C005B686E4A51880022184601F0CCFA6A4B51
:10036C009B686A4A91880022184601F0C4FA664BD1
:10037C00DB68664AD1880022184601F0BCFA624B51
:10038C001B69624A11890022184601F0B4FA5E4BCF
:10039C005B695E4A51890022184601F0ACFA5A4B4F
:1003AC009B695A4A91890122184601F0A4FA3AE253
:1003BC00554B1B68554A11880122184601F09BFACF
:1003CC00514B5B68514A51880022184601F093FA50
:1003DC004D4B9B684D4A91880022184601F08BFAD0
:1003EC00494BDB68494AD1880122184601F083FA4F
:1003FC00454B1B69454A11890122184601F07BFACD
:10040C00414B5B69414A51890122184601F073FA4C
:10041C003D4B9B693D4A91890122184601F06BFACC
:10042C0001E2394B1B68394A11880022184601F049
:10043C0062FA354B5B68354A51880022184601F048
:10044C005AFA314B9B68314A91880122184601F0C7
:10045C0052FA2D4BDB682D4AD1880022184601F048
:10046C004AFA294B1B69294A11890022184601F0C6
:10047C0042FA254B5B69254A51890122184601F045
:10048C003AFA214B9B69214A91890022184601F0C6
:10049C0032FAC8E11C4B1B681C4A11880022184612
:1004AC0001F029FA184B5B68184A5188002218464B
:1004BC0001F021FA144B9B68144A918800221846CB
:1004CC0001F019FA104BDB68104AD188002218464B
:1004DC0001F011FA0C4B1B690C4A118901221846C8
:1004EC0001F009FA084B5B69084A51890122184648
:1004FC0001F001FA044B9B69044A918900221846C9
:10050C0001F0F9F98FE100BF000000201C00002071
:10051C00A64B1B68A64A11880122184601F0EBF97C
:10052C00A24B5B68A24A51880022184601F0E3F9FD
:10053C009E4B9B689E4A91880022184601F0DBF97D
:10054C009A4BDB689A4AD1880122184601F0D3F9FC
:10055C00964B1B69964A11890122184601F0CBF97A
:10056C00924B5B69924A51890022184601F0C3F9FB
:10057C008E4B9B698E4A91890022184601F0BBF97B
:10058C0051E18A4B1B688A4A11880022184601F0F7
:10059C00B2F9864B5B68864A51880122184601F0F5
:1005AC00AAF9824B9B68824A91880022184601F076
:1005BC00A2F97E4BDB687E4AD1880022184601F0F6
:1005CC009AF97A4B1B697A4A11890122184601F073
:1005DC0092F9764B5B69764A51890022184601F0F4
:1005EC008AF9724B9B69724A91890022184601F074
:1005FC0082F918E16D4B1B686D4A11880022184670
:10060C0001F079F9694B5B68694A518801221846F7
:10061C0001F071F9654B9B68654A91880022184678
:10062C0001F069F9614BDB68614AD18800221846F8
:10063C0001F061F95D4B1B695D4A11890022184676
:10064C0001F059F9594B5B69594A518900221846F6
:10065C0001F051F9554B9B69554A91890022184676
:10066C0001F049F9DFE0514B1B68514A1188002217
:10067C00184601F040F94D4B5B684D4A51880022F9
:10068C00184601F038F9494B9B68494A9188002279
:10069C00184601F030F9454BDB68454AD1880122F8
:1006AC00184601F028F9414B1B69414A1189012276
:1006BC00184601F020F93D4B5B693D4A51890122F6
:1006CC00184601F018F9394B9B69394A9189012276
:1006DC00184601F010F9A6E0344B5B68344A518897
:1006EC000022184601F007F9304B9B68304A91887C
:1006FC000022184601F0FFF82C4BDB682C4AD188FD
:10070C000022184601F0F7F8284B1B69284A11897A
:10071C000022184601F0EFF8244B5B69244A5189FA
:10072C000022184601F0E7F8204B9B69204A91897A
:10073C000022184601F0DFF875E01C4B1B681C4AC0
:10074C0011880022184601F0D6F8184B5B68184A3D
:10075C0051880022184601F0CEF8144B9B68144ABD
:10076C0091880022184601F0C6F8104BDB68104A3D
:10077C00D1880022184601F0BEF80C4B1B690C4ABC
:10078C0011890122184601F0B6F8084B5B69084A3A
:10079C0051890022184601F0AEF8044B9B69044ABB
:1007AC0091890022184601F0A6F83CE000000020D8
:1007BC001C0000201E4B1B681E4A11880122184683
:1007CC0001F099F81A4B5B681A4A518801221846B5
:1007DC0001F091F8164B9B68164A91880122184635
:1007EC0001F089F8124BDB68124AD18801221846B5
:1007FC0001F081F80E4B1B690E4A11890122184633
:10080C0001F079F80A4B5B690A4A518901221846B2
:10081C0001F071F8064B9B69064A91890022184633
:10082C0001F069F800BF00BF0837BD4680BD00BFAE
:10083C00000000201C00002080B483B000AF786062
:10084C00084B00221A607B68074A82FB0312921045
:10085C00DB17D31A054A136000BF0C37BD4680BCAA
:10086C00704700BFBC00002067666666C0000020B1
:10087C0080B400AF074B1B68013B064A1360054B65
:10088C001B68002B02D1044B01221A6000BFBD462D
:10089C0080BC7047C0000020BC00002080B582B036
:1008AC0000AF0346FB71FB79022B12D0022B16DC36
:1008BC00002B02D0012B06D011E001210B4801F0D6
:1008CC0003F803460DE00221084800F0FDFF034643
:1008DC0007E00421054800F0F7FF034601E000BFE4
:1008EC00012318460837BD4680BD00BF00080140F3
:1008FC0090B583B000AF0023FB710AE1FA79FB7964
:10090C008849895C884AD154FC79FB791846FFF7F1
:10091C00C5FF03461A46834B1A55FB79814AD25CB4
:10092C00FB798149CB5C9A4205D1FA79FB797D49F7
:10093C00895C7E4AD154FB797C4AD35C012B38D13B
:10094C00FB797B4AD35C052B03D1FB79784A0021D8
:10095C00D154FB79764AD35C062B03D1FB79744ACC
:10096C000021D154FB79724AD35C012B03D1FB7962
:10097C006F4A0221D154FB796D4AD35C032B03D10E
:10098C00FB796B4A0421D154FB796A4A002122F885
:10099C001310FB79684A32F813301D2B34D8FB79CD
:1009AC00654A32F81320013291B2634A22F81310CF
:1009BC002AE0FB795D4AD35C002B25D1FB795C4A9C
:1009CC00D35C002B03D1FB79594A0121D154FB791B
:1009DC00574AD35C022B03D1FB79554A0321D154DE
:1009EC00FB79554A002122F81310FB79514A32F851
:1009FC001330632B08D8FB794E4A32F8132001329E
:100A0C0091B24C4A22F81310FB79494AD35C002B63
:100A1C000FD1FB79494A0021D154FB79484A002176
:100A2C00D154FB79474A0021D154FB79464A002125
:100A3C00D154FB793E4AD35C012B04D0FB793C4A60
:100A4C00D35C052B0DD1FB793A4A32F81330632B6A
:100A5C0007D9FB793A4A0121D154FB79344A052153
:100A6C00D154FB79324AD35C022B0DD1FB79324A3B
:100A7C0032F813301D2B07D9FB79304A0121D154A0
:100A8C00FB792B4A0021D154FB79294AD35C032BE7
:100A9C0004D0FB79264AD35C062B0DD1FB79254A71
:100AAC0032F81330632B07D9FB79274A0121D15433
:100ABC00FB791F4A0621D154FB791D4AD35C042BC8
:100ACC000DD1FB791C4A32F813301D2B07D9FB7959
:100ADC001C4A0121D154FB79154A0021D154FB79D0
:100AEC00002B02D1194B00221A70FB790F4AD35CF0
:100AFC00002B0CBF01230023DBB25AB2134B1B7823
:100B0C005BB213435BB2DAB2104B1A70FB79013350
:100B1C00FB71FB79022B7FF6F1AE00BF00BF0C37E7
:100B2C00BD4690BDC8000020CC0000202C00002049
:100B3C00E0000020D0000020D80000202804002075
:100B4C001C040020F400002058040020C4000020E5
:100B5C0080B500AF0A4B1B78012B05D100224FF456
:100B6C000041084800F0C7FE054B1B78002B05D14F
:100B7C0001224FF40041034800F0BDFE00BF80BDD0
:100B8C00C40000200008014080B500AF104B1B785A
:100B9C00012B03D10020FFF7D3FA16E00D4B1B7885
:100BAC00012B03D10120FFF7CBFA0EE00A4B1B7887
:100BBC00012B03D10220FFF7C3FA06E0074B1B7889
:100BCC00012B02D10320FFF7BBFA00BF80BD00BF91
:100BDC00280400201C040020F400002058040020ED
:100BEC0080B500AF00F086FB00F060F800F0E8F88C
:100BFC0000F09AF8234801F0DBFA4FF47A70FFF713
:100C0C001BFE01224021204800F075FE01224FF40A
:100C1C0080411E4800F06FFE012280211A4800F02E
:100C2C006AFE1B494FF47A7000F030F919494FF401
:100C3C007A7000F02BF918494FF47A7000F026F90D
:100C4C0016494FF47A7000F021F915494FF47A7077
:100C5C0000F01CF913494FF47A7000F017F9124B9D
:100C6C001B68012B07D14021074800F05CFE4FF4B4
:100C7C007A70FFF7E1FD00F03DFAFFF769FFFFF72F
:100C8C0083FFECE75C040020000C014000080140ED
:100C9C002004002021040020220400202304002032
:100CAC002404002025040020BC00002080B590B056
:100CBC0000AF07F1180328220021184601F03EFE70
:100CCC003B1D00221A605A609A60DA601A61022396
:100CDC00BB610123BB621023FB6200237B6307F122
:100CEC001803184600F038FE0346002B01D000F024
:100CFC00C7F80F237B600023BB600023FB604FF41D
:100D0C0080633B614FF480637B613B1D002118467F
:100D1C0001F0A2F80346002B01D000F0B1F800BF9F
:100D2C004037BD4680BD000080B586B000AF07F1EE
:100D3C00080300221A605A609A60DA603B4600226F
:100D4C001A605A601D4B4FF080421A601B4B41F6E3
:100D5C003F725A60194B00229A60184B0922DA60D4
:100D6C00164B00221A61154B00229A61134801F0B0
:100D7C00CFF90346002B01D000F082F84FF48053DA
:100D8C00BB6007F1080319460C4801F04DFB034604
:100D9C00002B01D000F074F800233B6000237B6033
:100DAC003B461946054801F025FD0346002B01D0B2
:100DBC0000F066F800BF1837BD4680BD5C0400200B
:100DCC0080B586B000AF07F1080300221A605A60A4
:100DDC009A60DA60274B9B69264A43F004039361BF
:100DEC00244B9B6903F004037B607B68214B9B695C
:100DFC00204A43F0080393611E4B9B6903F00803E0
:100E0C003B603B6800224FF6F8711B4800F073FD05
:100E1C000022FF21194800F06EFD0723BB60002360
:100E2C00FB6001233B6107F108031946124800F0EF
:100E3C00D1FB4FF6F873BB600123FB6000233B61D1
:100E4C0002237B6107F1080319460B4800F0C2FB33
:100E5C00FF23BB600123FB6000233B6102237B610A
:100E6C0007F108031946054800F0B4FB00BF18371A
:100E7C00BD4680BD0010024000080140000C01403E
:100E8C0080B400AF72B600BFFEE7000080B584B03E
:100E9C0000AF786039603B6800221A700C2001F0BA
:100EAC003DFD0346FB60FB68002B49D07B689AB282
:100EBC00FB681A80FB683A685A607B68B3F57A7FE6
:100ECC0020D3214B1B7819467B68204AA2FB0323B5
:100EDC009B0919441E4BA3FB01239A0913465B0083
:100EEC0013445A011344CA1A1346BB72BB7A194AEB
:100EFC0052F82320FB689A60BB7A1649FA6841F8CD
:100F0C0023201EE0144B1B7819467B68134AA2FB66
:100F1C000323DB08CA18124BA3FB02135B096421E1
:100F2C0001FB03F3D31AFB72FB7A0E4A52F823200F
:100F3C00FB689A60FB7A0B49FA6841F8232000E0C1
:100F4C0000BF1037BD4680BDE4000020D34D6210B9
:100F5C0003B57EA590020020E3000020CDCCCCCCC4
:100F6C001F85EB51FC00002080B586B000AF4F4BC5
:100F7C001B78002B4FD14E4B1B781A464D4B53F818
:100F8C0022307B613DE07B691B884B4AA2FB03232B
:100F9C00DB089BB2494AA2FB03125209642101FBF4
:100FAC0002F29B1A9BB2FB730C2001F0B7FC0346B8
:100FBC00BB60BB68002B74D07B691B88404AA2FBCA
:100FCC00031292094FF47A7101FB02F29B1A9AB246
:100FDC00BB681A807B695A68BB685A60FB7B394ACC
:100FEC0052F82320BB689A60FB7B3649BA6841F8FB
:100FFC0023207B697B607B699B687B61786801F04F
:10100C0095FC7B69002BBED1294B1B781946294BCB
:10101C00002243F82120254B1B781A46294B53F804
:10102C0022303B610BE03B695B6801221A703B6923
:10103C003B603B699B683B61386801F077FC3B691E
:10104C00002BF0D1194B1B7819461E4B002243F88C
:10105C002120164B1B780133184A82FB03125111C5
:10106C00DA178A1A642101FB02F29A1AD2B20F4BD8
:10107C001A700E4B1B78622B14D90D4B1B785A1C13
:10108C00114B83FB021313449911D317C91A0B4646
:10109C005B000B4459010B44D11ACAB2044B1A70B1
:1010AC0000E000BF1837BD4680BD00BFE300002044
:1010BC00E400002090020020CDCCCCCC1F85EB515D
:1010CC00D34D6210FC00002003B57EA580B582B024
:1010DC0000AF78607B681B68B3F1804F05D1FFF7D8
:1010EC0043FFFFF705FCFFF7C3FB00BF0837BD4606
:1010FC0080BD000080B500AF074B1B78012B09D1D8
:10110C004FF48041054800F00EFC03494FF47A700F
:10111C00FFF7BCFE00BF80BD20040020000801408A
:10112C0080B485B000AF154B9B69144A43F00103A2
:10113C009361124B9B6903F00103BB60BB680F4BBF
:10114C00DB690E4A43F08053D3610C4BDB6903F02F
:10115C0080537B607B680A4B5B68FB60FB6823F009
:10116C00E063FB60FB6843F08063FB60044AFB6850
:10117C00536000BF1437BD4680BC7047001002405E
:10118C000000014080B584B000AF78607B681B68BC
:10119C00B3F1804F13D10C4BDB690B4A43F00103C5
:1011AC00D361094BDB6903F00103FB60FB68002290
:1011BC0000211C2000F0D7F91C2000F0F0F900BF32
:1011CC001037BD4680BD00BF0010024080B400AF98
:1011DC00FEE780B400AFFEE780B400AFFEE780B45A
:1011EC0000AFFEE780B400AFFEE780B400AF00BFF5
:1011FC00BD4680BC704780B400AF00BFBD4680BC0C
:10120C00704780B400AF00BFBD4680BC704780B54E
:10121C0000AF00F0B5F800BF80BD000080B500AF96
:10122C00024801F011F800BF80BD00BF5C04002033
:10123C0080B586B000AF7860144A154BD31A7B6129
:10124C007B693B61134B1B68002B02D1114B124A7B
:10125C001A60104B1A687B6813443A699A4207D299
:10126C0001F032FB03460C221A604FF0FF3309E009
:10127C00084B1B68FB60074B1A687B681344054AD4
:10128C001360FB6818461837BD4680BD0028002047
:10129C0000040000E8000020B804002080B400AF77
:1012AC0000BFBD4680BC7047FFF7F8FF0B480C49E8
:1012BC000C4A002302E0D458C4500433C4188C42A6
:1012CC00F9D3094A094C002301E013600432A2420D
:1012DC00FBD301F0FFFAFFF783FC704700000020FE
:1012EC00A0000020242B0008A0000020B80400203F
:1012FC00FEE7000080B500AF084B1B68074A43F0BF
:10130C0010031360032000F023F90F2000F008F8FD
:10131C00FFF706FF0023184680BD00BF00200240E7
:10132C0080B582B000AF7860124B1A68124B1B78F4
:10133C0019464FF47A73B3FBF1F3B2FBF3F318468F
:10134C0000F03BF90346002B01D001230EE07B6833
:10135C000F2B0AD8002279684FF0FF3000F003F908
:10136C00064A7B681360002300E001231846083707
:10137C00BD4680BD30000020380000203400002025
:10138C0080B400AF054B1B781A46054B1B68134401
:10139C00034A136000BFBD4680BC70473800002074
:1013AC00A404002080B400AF024B1B681846BD4655
:1013BC0080BC7047A404002080B485B000AF786076
:1013CC007B6803F00703FB600C4BDB68BB60BA68FF
:1013DC004FF6FF031340BB60FB681A02BB68134354
:1013EC0043F0BF6343F40033BB60044ABB68D36073
:1013FC0000BF1437BD4680BC704700BF00ED00E055
:10140C0080B400AF044BDB681B0A03F007031846DB
:10141C00BD4680BC704700BF00ED00E080B483B0D7
:10142C0000AF0346FB7197F90730002B0BDBFB7900
:10143C0003F01F02064997F907305B09012000FAF7
:10144C0002F241F8232000BF0C37BD4680BC704728
:10145C0000E100E080B483B000AF03463960FB715B
:10146C0097F90730002B0ADB3B68DAB20C4997F985
:10147C0007301201D2B20B4483F800230AE03B6818
:10148C00DAB20849FB7903F00F03043B1201D2B224
:10149C000B441A7600BF0C37BD4680BC704700BFAA
:1014AC0000E100E000ED00E080B489B000AFF8602E
:1014BC00B9607A60FB6803F00703FB61FB69C3F159
:1014CC000703042B28BF0423BB61FB690433062BE1
:1014DC0002D9FB69033B00E000237B614FF0FF3234
:1014EC00BB6902FA03F3DA43BB681A407B699A4082
:1014FC004FF0FF317B6901FA03F3D9437B680B4052
:10150C00134318462437BD4680BC704780B582B063
:10151C0000AF78607B68013BB3F1807F01D301237E
:10152C000FE00A4A7B68013B53600F214FF0FF30FC
:10153C00FFF790FF054B00229A60044B07221A60BC
:10154C00002318460837BD4680BD00BF10E000E000
:10155C0080B582B000AF78607868FFF72DFF00BFD0
:10156C000837BD4680BD80B586B000AF0346B96074
:10157C007A60FB7300237B61FFF742FF78617A6826
:10158C00B9687869FFF790FF024697F90F3011465A
:10159C001846FFF75FFF00BF1837BD4680BD80B50A
:1015AC0082B000AF0346FB7197F907301846FFF77E
:1015BC0035FF00BF0837BD4680BD80B582B000AF97
:1015CC0078607868FFF7A2FF034618460837BD46D7
:1015DC0080BD000080B48BB000AF78603960002310
:1015EC007B6200233B6248E101227B6A02FA03F32F
:1015FC00FB613B681B68FA691340BB61BA69FB6904
:10160C009A4240F037813B685B68A34A93425ED0B4
:10161C00A14A934275D8A14A934258D09F4A93420B
:10162C006FD89F4A934252D09D4A934269D89D4AA3
:10163C0093424CD09B4A934263D89B4A934246D0E8
:10164C00994A93425DD8122B2AD8122B59D801A251
:10165C0052F823F0DB160008B5160008C716000870
:10166C00091700080F1700080F1700080F170008BC
:10167C000F1700080F1700080F1700080F170008A6
:10168C000F1700080F1700080F1700080F17000896
:10169C000F1700080F170008BD160008D116000818
:1016AC00824A934213D02CE03B68DB683B6229E012
:1016BC003B68DB6804333B6224E03B68DB6808333F
:1016CC003B621FE03B68DB680C333B621AE03B6813
:1016DC009B68002B02D104233B6213E03B689B68A0
:1016EC00012B05D108233B627B68FA691A6109E07A
:1016FC0008233B627B68FA695A6103E000233B6272
:10170C0000E000BFBB69FF2B01D87B6801E07B6860
:10171C0004337B61BB69FF2B02D87B6A9B0002E020
:10172C007B6A083B9B003B617B691A680F213B6914
:10173C0001FA03F3DB431A40396A3B6901FA03F3FC
:10174C001A437B691A603B685B6803F08053002B7B
:10175C0000F09080564B9B69554A43F0010393610E
:10176C00534B9B6903F00103BB60BB68514A7B6A16
:10177C009B08023352F82330FB607B6A03F00303AF
:10178C009B000F2202FA03F3DB43FA681340FB6061
:10179C007B68494A93420DD07B68484A934207D0F4
:1017AC007B68474A934201D1022304E0032302E001
:1017BC00012300E000237A6A02F0030292009340B6
:1017CC00FA681343FB603B497B6A9B080233FA6857
:1017DC0041F823203B685B6803F48013002B06D090
:1017EC00384B9A683749BB6913438B6006E0354B1D
:1017FC009A68BB69DB43334913408B603B685B6879
:10180C0003F40013002B06D02E4BDA682D49BB696C
:10181C001343CB6006E02B4BDA68BB69DB432949E9
:10182C001340CB603B685B6803F40033002B06D09D
:10183C00244B5A682349BB6913434B6006E0214B88
:10184C005A68BB69DB431F4913404B603B685B68BC
:10185C0003F48033002B06D01A4B1A681949BB6964
:10186C0013430B6006E0174B1A68BB69DB43154941
:10187C0013400B607B6A01337B623B681A687B6A9E
:10188C0022FA03F3002B7FF4AFAE00BF00BF2C375E
:10189C00BD4680BC704700BF000032100000311004
:1018AC000000221000002110000012100000111086
:1018BC00001002400000014000080140000C0140F3
:1018CC00001001400004014080B485B000AF786086
:1018DC000B467B807B689A687B881340002B02D078
:1018EC000123FB7301E00023FB73FB7B18461437C9
:1018FC00BD4680BC704780B483B000AF78600B46A7
:10190C007B8013467B707B78002B03D07A887B68B6
:10191C001A6103E07B881A047B681A6100BF0C37DC
:10192C00BD4680BC704780B485B000AF78600B4674
:10193C007B807B68DB68FB607A88FB6813401A0449
:10194C00FB68D9437B880B401A437B681A6100BF44
:10195C001437BD4680BC704780B586B000AF786048
:10196C007B68002B01D101236CE27B681B6803F0C0
:10197C000103002B00F08780924B5B6803F00C0393
:10198C00042B0CD08F4B5B6803F00C03082B12D18B
:10199C008C4B5B6803F48033B3F5803F0BD1894BE0
:1019AC001B6803F40033002B6CD07B685B68002B46
:1019BC0068D1012346E27B685B68B3F5803F06D1B2
:1019CC00804B1B687F4A43F4803313602EE07B68A6
:1019DC005B68002B0CD17B4B1B687A4A23F4803359
:1019EC001360784B1B68774A23F4802313601DE047
:1019FC007B685B68B3F5A02F0CD1724B1B68714AE6
:101A0C0043F4802313606F4B1B686E4A43F480339E
:101A1C0013600BE06B4B1B686A4A23F48033136032
:101A2C00684B1B68674A23F4802313607B685B68F0
:101A3C00002B13D0FFF7B6FC386108E0FFF7B2FCBF
:101A4C0002463B69D31A642B01D90323FAE15D4B9F
:101A5C001B6803F40033002BF0D014E0FFF7A2FC5A
:101A6C00386108E0FFF79EFC02463B69D31A642BF1
:101A7C0001D90323E6E1534B1B6803F40033002B1D
:101A8C00F0D100E000BF7B681B6803F00203002B61
:101A9C0063D04C4B5B6803F00C03002B0BD0494B11
:101AAC005B6803F00C03082B1CD1464B5B6803F4FA
:101ABC008033002B16D1434B1B6803F00203002B21
:101ACC0005D07B681B69012B01D00123BAE13D4B8A
:101ADC001B6823F0F8027B685B69DB003949134310
:101AEC000B603AE07B681B69002B20D0364B01223F
:101AFC001A60FFF757FC386108E0FFF753FC024609
:101B0C003B69D31A022B01D903239BE12D4B1B6894
:101B1C0003F00203002BF0D02A4B1B6823F0F802D1
:101B2C007B685B69DB00274913430B6015E0264B90
:101B3C0000221A60FFF736FC386108E0FFF732FC30
:101B4C0002463B69D31A022B01D903237AE11D4BC0
:101B5C001B6803F00203002BF0D17B681B6803F0B9
:101B6C000803002B3AD07B689B69002B19D0174BCC
:101B7C0001221A60FFF716FC386108E0FFF712FC2F
:101B8C0002463B69D31A022B01D903235AE10D4BB0
:101B9C005B6A03F00203002BF0D0012000F09AFAEC
:101BAC001CE00A4B00221A60FFF7FCFB38610FE0C7
:101BBC00FFF7F8FB02463B69D31A022B08D9032323
:101BCC0040E100BF0010024000004242800442424B
:101BDC009E4B5B6A03F00203002BE9D17B681B6808
:101BEC0003F00403002B00F0A6800023FB75974B39
:101BFC00DB6903F08053002B0DD1944BDB69934AC6
:101C0C0043F08053D361914BDB6903F08053BB608D
:101C1C00BB680123FB758E4B1B6803F48073002B90
:101C2C0018D18B4B1B688A4A43F480731360FFF7FF
:101C3C00B9FB386108E0FFF7B5FB02463B69D31AE4
:101C4C00642B01D90323FDE0814B1B6803F48073E3
:101C5C00002BF0D07B68DB68012B06D17B4B1B6A19
:101C6C007A4A43F0010313622DE07B68DB68002B9A
:101C7C000CD1764B1B6A754A23F001031362734B2C
:101C8C001B6A724A23F0040313621CE07B68DB6856
:101C9C00052B0CD16D4B1B6A6C4A43F00403136289
:101CAC006A4B1B6A694A43F0010313620BE0674BF2
:101CBC001B6A664A23F001031362644B1B6A634A76
:101CCC0023F0040313627B68DB68002B15D0FFF74D
:101CDC0069FB38610AE0FFF765FB02463B69D31AE2
:101CEC0041F28832934201D90323ABE0574B1B6A74
:101CFC0003F00203002BEED014E0FFF753FB386126
:101D0C000AE0FFF74FFB02463B69D31A41F28832D7
:101D1C00934201D9032395E04C4B1B6A03F0020359
:101D2C00002BEED1FB7D012B05D1484BDB69474ADB
:101D3C0023F08053D3617B68DB69002B00F081803A
:101D4C00424B5B6803F00C03082B61D07B68DB69AA
:101D5C00022B46D13F4B00221A60FFF723FB386160
:101D6C0008E0FFF71FFB02463B69D31A022B01D98F
:101D7C00032367E0354B1B6803F00073002BF0D195
:101D8C007B681B6AB3F5803F08D1304B5B6823F44A
:101D9C0000327B689B682D4913434B602B4B5B686F
:101DAC0023F474127B68196A7B685B6A0B432749BE
:101DBC0013434B60274B01221A60FFF7F3FA38618B
:101DCC0008E0FFF7EFFA02463B69D31A022B01D960
:101DDC00032337E01D4B1B6803F00073002BF0D07E
:101DEC002FE01C4B00221A60FFF7DCFA386108E088
:101DFC00FFF7D8FA02463B69D31A022B01D9032309
:101E0C0020E0124B1B6803F00073002BF0D118E09C
:101E1C007B68DB69012B01D1012313E00B4B5B6861
:101E2C00FB60FB6803F480327B681B6A9A4206D124
:101E3C00FB6803F470127B685B6A9A4201D0012341
:101E4C0000E0002318461837BD4680BD0010024044
:101E5C00007000406000424280B584B000AF7860F2
:101E6C0039607B68002B01D10123D0E06A4B1B68E1
:101E7C0003F007033A689A4210D9674B1B6823F0AA
:101E8C00070265493B6813430B60634B1B6803F007
:101E9C0007033A689A4201D00123B8E07B681B68BB
:101EAC0003F00203002B20D07B681B6803F00403B3
:101EBC00002B05D0594B5B68584A43F4E0635360E0
:101ECC007B681B6803F00803002B05D0534B5B6841
:101EDC00524A43F460535360504B5B6823F0F0025A
:101EEC007B689B684D4913434B607B681B6803F010
:101EFC000103002B40D07B685B68012B07D1474B5B
:101F0C001B6803F40033002B15D101237FE07B68A1
:101F1C005B68022B07D1414B1B6803F00073002B4D
:101F2C0009D1012373E03D4B1B6803F00203002B26
:101F3C0001D101236BE0394B5B6823F003027B6812
:101F4C005B68364913434B60FFF72CFAF8600AE0E4
:101F5C00FFF728FA0246FB68D31A41F28832934203
:101F6C0001D9032353E02D4B5B6803F00C027B6813
:101F7C005B689B009A42EBD1274B1B6803F007036D
:101F8C003A689A4210D2244B1B6823F0070222496C
:101F9C003B6813430B60204B1B6803F007033A6844
:101FAC009A4201D0012332E07B681B6803F00403E2
:101FBC00002B08D0194B5B6823F4E0627B68DB686C
:101FCC00164913434B607B681B6803F00803002B16
:101FDC0009D0124B5B6823F460527B681B69DB00F1
:101FEC000E4913434B6000F021F802460B4B5B6823
:101FFC001B0903F00F030A49CB5C22FA03F3094ACD
:10200C001360094B1B681846FFF78AF90023184622
:10201C001037BD4680BD00BF0020024000100240BA
:10202C00F82A0008300000203400002080B487B06B
:10203C0000AF0023FB600023BB6000237B61002307
:10204C007B6000233B611E4B5B68FB60FB6803F00D
:10205C000C03042B02D0082B03D027E0194B3B6157
:10206C0027E0FB689B0C03F00F03174AD35C7B60E3
:10207C00FB6803F48033002B10D0114B5B685B0CB6
:10208C0003F00103114AD35CBB607B680D4A02FB71
:10209C0003F2BB68B2FBF3F37B6104E07B680C4A90
:1020AC0002FB03F37B617B693B6102E0054B3B6107
:1020BC0000BF3B6918461C37BD4680BC704700BF4B
:1020CC000010024000127A00082B0008182B0008A0
:1020DC0000093D0080B485B000AF78600A4B1B68E6
:1020EC000A4AA2FB03235B0A7A6802FB03F3FB6038
:1020FC0000BFFB685A1EFA60002BF9D100BF00BF6D
:10210C001437BD4680BC704730000020D34D6210A0
:10211C0080B582B000AF78607B68002B01D10123C1
:10212C0041E07B6893F83D30DBB2002B06D17B6835
:10213C00002283F83C207868FFF724F87B680222A1
:10214C0083F83D207B681A687B6804331946104677
:10215C0000F056FA7B68012283F846207B68012246
:10216C0083F83E207B68012283F83F207B680122A4
:10217C0083F840207B68012283F841207B68012290
:10218C0083F842207B68012283F843207B6801227C
:10219C0083F844207B68012283F845207B68012268
:1021AC0083F83D20002318460837BD4680BD00004B
:1021BC0080B485B000AF78607B6893F83D30DBB2BB
:1021CC00012B01D0012335E07B68022283F83D20EE
:1021DC007B681B68DA687B681B6842F00102DA6076
:1021EC007B681B68164A934209D07B681B68B3F165
:1021FC00804F04D07B681B68124A934211D17B68D4
:10220C001B689B6803F00703FB60FB68062B10D070
:10221C007B681B681A687B681B6842F001021A60B5
:10222C0007E07B681B681A687B681B6842F0010238
:10223C001A60002318461437BD4680BC704700BF97
:10224C00002C01400004004080B584B000AF7860E1
:10225C007B681B68DB68FB607B681B681B69BB6069
:10226C00BB6803F00203002B20D0FB6803F00203D1
:10227C00002B1BD07B681B686FF002021A617B6815
:10228C0001221A777B681B689B6903F00303002B00
:10229C0003D0786800F098F905E0786800F08BF9C5
:1022AC00786800F09AF97B6800221A77BB6803F013
:1022BC000403002B20D0FB6803F00403002B1BD07D
:1022CC007B681B686FF004021A617B6802221A7724
:1022DC007B681B689B6903F44073002B03D0786800
:1022EC0000F072F905E0786800F065F9786800F0A4
:1022FC0074F97B6800221A77BB6803F00803002B83
:10230C0020D0FB6803F00803002B1BD07B681B68F4
:10231C006FF008021A617B6804221A777B681B68CD
:10232C00DB6903F00303002B03D0786800F04CF951
:10233C0005E0786800F03FF9786800F04EF97B68AA
:10234C0000221A77BB6803F01003002B20D0FB6827
:10235C0003F01003002B1BD07B681B686FF010027E
:10236C001A617B6808221A777B681B68DB6903F4A7
:10237C004073002B03D0786800F026F905E07868EC
:10238C0000F019F9786800F028F97B6800221A77B8
:10239C00BB6803F00103002B0CD0FB6803F00103B6
:1023AC00002B07D07B681B686FF001021A617868FC
:1023BC00FEF78CFEBB6803F08003002B0CD0FB688F
:1023CC0003F08003002B07D07B681B686FF0800242
:1023DC001A61786800F06FFABB6803F04003002BB9
:1023EC000CD0FB6803F04003002B07D07B681B6804
:1023FC006FF040021A61786800F0F8F8BB6803F0DF
:10240C002003002B0CD0FB6803F02003002B07D01B
:10241C007B681B686FF020021A61786800F042FA42
:10242C0000BF1037BD4680BD80B584B000AF78606A
:10243C0039600023FB737B6893F83C30012B01D18E
:10244C000223B4E07B68012283F83C207B680222E3
:10245C0083F83D207B681B689B68BB60BB6823F0DE
:10246C007703BB60BB6823F47F43BB607B681B684E
:10247C00BA689A603B681B68B3F5005F3ED0B3F551
:10248C00005F00F28780B3F5805F00F08680B3F5C3
:10249C00805F7FD8702B1AD0702B7BD8602B50D0DC
:1024AC00602B77D8502B3CD0502B73D8402B58D066
:1024BC00402B6FD8302B64D0302B6BD8202B60D0B6
:1024CC00202B67D8002B5CD0102B5AD062E07B6895
:1024DC0018683B6899683B685A683B68DB6800F091
:1024EC006AF97B681B689B68BB60BB6843F0770329
:1024FC00BB607B681B68BA689A604FE07B681868A1
:10250C003B6899683B685A683B68DB6800F053F994
:10251C007B681B689A687B681B6842F480429A60EF
:10252C003CE07B6818683B6859683B68DB681A4676
:10253C0000F0CAF87B681B685021184600F021F99E
:10254C002CE07B6818683B6859683B68DB681A4666
:10255C0000F0E8F87B681B686021184600F011F960
:10256C001CE07B6818683B6859683B68DB681A4656
:10257C0000F0AAF87B681B684021184600F001F9AE
:10258C000CE07B681A683B681B681946104600F023
:10259C00F8F803E00123FB7300E000BF7B68012225
:1025AC0083F83D207B68002283F83C20FB7B184697
:1025BC001037BD4680BD80B483B000AF786000BFDB
:1025CC000C37BD4680BC704780B483B000AF7860D8
:1025DC0000BF0C37BD4680BC704780B483B000AFE1
:1025EC00786000BF0C37BD4680BC704780B483B0A8
:1025FC0000AF786000BF0C37BD4680BC7047000050
:10260C0080B485B000AF786039607B681B68FB6074
:10261C007B682B4A934207D07B68B3F1804F03D081
:10262C007B68284A934208D1FB6823F07003FB6057
:10263C003B685B68FA681343FB607B68204A9342F3
:10264C0007D07B68B3F1804F03D07B681D4A93425F
:10265C0008D1FB6823F44073FB603B68DB68FA68C5
:10266C001343FB60FB6823F080023B685B691343F8
:10267C00FB607B68FA681A603B689A687B68DA6270
:10268C003B681A687B689A627B680D4A934203D157
:10269C003B681A697B681A637B6801225A617B6804
:1026AC001B6903F00103002B05D07B681B6923F029
:1026BC0001027B681A6100BF1437BD4680BC7047AD
:1026CC00002C01400004004080B487B000AFF860DB
:1026DC00B9607A60FB681B6A7B61FB681B6A23F03C
:1026EC000102FB681A62FB689B693B613B6923F042
:1026FC00F0033B617B681B013A6913433B617B69C7
:10270C0023F00A037B617A69BB6813437B61FB6826
:10271C003A699A61FB687A691A6200BF1C37BD4638
:10272C0080BC704780B487B000AFF860B9607A6045
:10273C00FB681B6A7B61FB681B6A23F01002FB6859
:10274C001A62FB689B693B613B6923F470433B61F4
:10275C007B681B033A6913433B617B6923F0A0033D
:10276C007B61BB681B017A6913437B61FB683A6927
:10277C009A61FB687A691A6200BF1C37BD4680BC3F
:10278C00704780B485B000AF786039607B689B6817
:10279C00FB60FB6823F07003FB603A68FB68134333
:1027AC0043F00703FB607B68FA689A6000BF14373C
:1027BC00BD4680BC704780B487B000AFF860B9608C
:1027CC007A603B60FB689B687B617B6923F47F4389
:1027DC007B613B681A027B681A43BB6813437A69B6
:1027EC0013437B61FB687A699A6000BF1C37BD4656
:1027FC0080BC704780B485B000AF786039607B686E
:10280C0093F83C30012B01D1022341E07B6801227B
:10281C0083F83C207B68022283F83D207B681B6890
:10282C005B68FB607B681B689B68BB60FB6823F084
:10283C007003FB603B681B68FA681343FB607B68A2
:10284C001B68FA685A607B681B68144A934209D06B
:10285C007B681B68B3F1804F04D07B681B68104AFF
:10286C0093420CD1BB6823F08003BB603B685B6870
:10287C00BA681343BB607B681B68BA689A607B6854
:10288C00012283F83D207B68002283F83C20002342
:10289C0018461437BD4680BC704700BF002C014061
:1028AC000004004080B483B000AF786000BF0C37E8
:1028BC00BD4680BC704780B483B000AF786000BF69
:1028CC000C37BD4680BC7047014B1868704700BF81
:1028DC003C00002070B500260C4D0D4C641BA41060
:1028EC00A64209D100F0F6F800260A4D0A4C641BEA
:1028FC00A410A64205D170BD55F8043B984701368B
:10290C00EEE755F8043B98470136F2E71C2B00081C
:10291C001C2B00081C2B0008202B0008024B014626
:10292C00186800F05FB800BF3C000020024B014665
:10293C00186800F00BB800BF3C00002003460244AE
:10294C00934200D1704703F8011BF9E738B50546EF
:10295C00002943D051F8043C0C1F002BB8BFE418DD
:10296C0000F0AAF81E4A1368104633B9636014606D
:10297C002846BDE8384000F0A5B8A3420AD9216822
:10298C006218934201BF1A685B6852182260636038
:10299C000460EDE71A465B680BB1A342FAD91168E3
:1029AC005018A0420BD1206801445018834211608A
:1029BC00DED118685B68014411605360D8E702D916
:1029CC000C232B60D4E7206821188B4201BF1968B7
:1029DC005B680918216063605460C9E738BD00BFAB
:1029EC00EC000020F8B5CD1C25F0030508350C2DA6
:1029FC0038BF0C25002D064601DBA94203D90C2358
:102A0C0033600020F8BD00F057F821490A681446DD
:102A1C009CB9204F3B6823B92146304600F03CF866
:102A2C0038602946304600F037F8431C23D10C237C
:102A3C003046336000F046F8E3E723685B1B17D49D
:102A4C000B2B03D923601C44256004E06368A2426D
:102A5C000CBF0B605360304600F034F804F10B00EF
:102A6C00231D20F00700C21ACCD01B1AA350C9E7B3
:102A7C0022466468CCE7C41C24F00304A042E3D0D3
:102A8C00211A304600F008F80130DDD1CFE700BF45
:102A9C00EC000020F000002038B50023054D044662
:102AAC0008462B60FEF7C4FB431C02D12B6803B114
:102ABC00236038BDA8040020014800F009B800BF0D
:102ACC00B0040020014800F004B800BFB00400209E
:102ADC0070477047F8B500BFF8BC08BC9E467047FD
:0C2AEC00F8B500BFF8BC08BC9E4670475F
:102AF80000000000000000000102030406070809A6
:102B080002030405060708090A0B0C0D0E0F101026
:042B180001020000B6
:042B1C00310100087B
:042B20000D0100089B
:102B2400000801400008014000080140000801407D
:102B34000008014000080140000801408000000135
:102B44000002000400080010002000000101010040
:102B540000127A0010000000010000004000002074
:102B64000000000000000000000000000000000061
:102B74000000000000000000000000000000000051
:102B84000000000000000000000000000000000041
:102B94000000000000000000000000000000000031
:102BA4000000000000000000000000000000000021
:102BB4000000000000000000000000000000000011
:04000005080012B528
:00000001FF
