:020000040800F2
:1000000000280020F11E0008FD1B0008031C00084A
:10001000091C00080F1C0008151C00080000000047
:100020000000000000000000000000001B1C000891
:10003000271C000800000000331C00083F1C0008BB
:10004000391F0008391F0008391F0008391F000830
:10005000391F0008391F0008391F0008391F000820
:10006000391F0008391F0008391F0008391F000810
:10007000391F0008391F0008391F0008391F000800
:10008000391F0008391F0008391F0008391F0008F0
:10009000391F0008391F0008391F0008391F0008E0
:1000A000391F0008391F0008391F0008391F0008D0
:1000B0004D1C0008391F000800000000391F00080F
:1000C000391F00080000000000000000391F000870
:1000D00000000000391F0008391F00080000000060
:1000E000391F0008391F0008391F000800000000F0
:1000F0000000000000000000000000000000000000
:0C01000000000000000000005FF808F1A3
:10010C0010B5054C237833B9044B13B10448AFF345
:10011C0000800123237010BDB400002000000000FB
:10012C001C37000808B5034B1BB103490348AFF358
:10013C00008008BD00000000B80000201C3700083B
:10014C0080B582B000AF0346FB71FB79032B11DC49
:10015C00002BC0F28F80032B00F28C8001A252F88E
:10016C0023F000BF87010008BB010008EF01000865
:10017C0023020008632B68D07CE0424B1B781846A6
:10018C0000F030F9012208213F4802F0D2F9002298
:10019C0010213D4802F0CDF9002220213A4802F00E
:1001AC00C8F900224021384802F0C3F965E0354B0C
:1001BC005B78184600F016F900220821324802F04C
:1001CC00B8F901221021304802F0B3F900222021A5
:1001DC002D4802F0AEF9002240212B4802F0A9F97B
:1001EC004BE0284B9B78184600F0FCF800220821C5
:1001FC00254802F09EF900221021234802F099F9BB
:10020C0001222021204802F094F9002240211E48AE
:10021C0002F08FF931E01B4BDB78184600F0E2F866
:10022C0000220821184802F084F9002210211648F7
:10023C0002F07FF900222021134802F07AF9012202
:10024C004021114802F075F917E0002208210E48F0
:10025C0002F06FF9002210210B4802F06AF900221B
:10026C002021094802F065F900224021064802F0DD
:10027C0060F902E00023FB7100BF00BF0837BD46E8
:10028C0080BD00BFA80200200008014080B483B0EC
:10029C0000AF0346FB71FB79002B3CD1404B5B78E4
:1002AC00404AA2FB0323DB08DAB23F4B1A703E4BE9
:1002BC001B78002B02D13C4B0A221A70384B5A780F
:1002CC00384BA3FB0213D9080B469B000B445B0075
:1002DC00D31ADAB2344B5A70344B5B78314AA2FBE6
:1002EC000323DB08DAB2304B9A702F4B9B78002B30
:1002FC0002D12D4B0A229A702C4B5A78294BA3FB16
:10030C000213D9080B469B000B445B00D31ADAB2DC
:10031C00254BDA703EE0FB79012B3BD1244B1B784B
:10032C00204AA2FB0323DB08DAB21F4B1A701E4BC8
:10033C001B78002B02D11C4B0A221A701C4B1A780A
:10034C00184BA3FB0213D9080B469B000B445B0014
:10035C00D31ADAB2144B5A70154B5B78114AA2FBC4
:10036C000323DB08DAB2104B9A700F4B9B78002BEF
:10037C0002D10D4B0A229A700D4B5A78094BA3FBF4
:10038C000213D9080B469B000B445B00D31ADAB25C
:10039C00054BDA7000BF0C37BD4680BC704700BF00
:1003AC002C000020CDCCCCCCA802002034000020A6
:1003BC001401002080B500AF084B5B78013BDAB22A
:1003CC00064B5A70064B5B78013BDAB2044B5A7001
:1003DC000020FFF75BFF00BF80BD00BF2C0000209A
:1003EC003400002080B582B000AF0346FB71FB796E
:1003FC000A2B00F28D8201A252F823F0A704000808
:10040C00190500088B050008FD0500087906000891
:10041C00EB0600085D070008CF070008410800083C
:10042C00A3080008350400088E4B1B688E4A1188FF
:10043C000122184602F07DF88A4B5B688A4A518883
:10044C000122184602F075F8864B9B68864A918803
:10045C000122184602F06DF8824BDB68824AD18883
:10046C000122184602F065F87E4B1B697E4A118901
:10047C000122184602F05DF87A4B5B697A4A518981
:10048C000122184602F055F8764B9B69764A918901
:10049C000122184602F04DF873E2724B1B68724A47
:1004AC0011880022184602F044F86E4B5B686E4AC5
:1004BC0051880022184602F03CF86A4B9B686A4A45
:1004CC0091880022184602F034F8664BDB68664AC5
:1004DC00D1880022184602F02CF8624B1B69624A44
:1004EC0011890022184602F024F85E4B5B695E4AC3
:1004FC0051890022184602F01CF85A4B9B695A4A43
:10050C0091890122184602F014F83AE2554B1B6807
:10051C00554A11880122184602F00BF8514B5B68C2
:10052C00514A51880022184602F003F84D4B9B6843
:10053C004D4A91880022184601F0FBFF494BDB68BD
:10054C00494AD1880122184601F0F3FF454B1B693B
:10055C00454A11890122184601F0EBFF414B5B69BA
:10056C00414A51890122184601F0E3FF3D4B9B693A
:10057C003D4A91890122184601F0DBFF01E2394B1B
:10058C001B68394A11880022184601F0D2FF354BFE
:10059C005B68354A51880022184601F0CAFF314B7E
:1005AC009B68314A91880122184601F0C2FF2D4BFD
:1005BC00DB682D4AD1880022184601F0BAFF294B7E
:1005CC001B69294A11890022184601F0B2FF254BFC
:1005DC005B69254A51890122184601F0AAFF214B7B
:1005EC009B69214A91890022184601F0A2FFC8E1BB
:1005FC001C4B1B681C4A11880022184601F099FFFD
:10060C00184B5B68184A51880022184601F091FF7C
:10061C00144B9B68144A91880022184601F089FFFC
:10062C00104BDB68104AD1880022184601F081FF7C
:10063C000C4B1B690C4A11890122184601F079FFF9
:10064C00084B5B69084A51890122184601F071FF79
:10065C00044B9B69044A91890022184601F069FFFA
:10066C008FE100BF000000201C000020A64B1B687F
:10067C00A64A11880122184601F05BFFA24B5B6869
:10068C00A24A51880022184601F053FF9E4B9B68EA
:10069C009E4A91880022184601F04BFF9A4BDB686A
:1006AC009A4AD1880122184601F043FF964B1B69E8
:1006BC00964A11890122184601F03BFF924B5B6967
:1006CC00924A51890022184601F033FF8E4B9B69E8
:1006DC008E4A91890022184601F02BFF51E18A4B7A
:1006EC001B688A4A11880022184601F022FF864BAB
:1006FC005B68864A51880122184601F01AFF824B2A
:10070C009B68824A91880022184601F012FF7E4BAA
:10071C00DB687E4AD1880022184601F00AFF7A4B2A
:10072C001B697A4A11890122184601F002FF764BA7
:10073C005B69764A51890022184601F0FAFE724B29
:10074C009B69724A91890022184601F0F2FE18E169
:10075C006D4B1B686D4A11880022184601F0E9FEAA
:10076C00694B5B68694A51880122184601F0E1FE29
:10077C00654B9B68654A91880022184601F0D9FEAA
:10078C00614BDB68614AD1880022184601F0D1FE2A
:10079C005D4B1B695D4A11890022184601F0C9FEA8
:1007AC00594B5B69594A51890022184601F0C1FE28
:1007BC00554B9B69554A91890022184601F0B9FEA8
:1007CC00DFE0514B1B68514A11880022184601F09A
:1007DC00B0FE4D4B5B684D4A51880022184601F023
:1007EC00A8FE494B9B68494A91880022184601F0A3
:1007FC00A0FE454BDB68454AD1880122184601F022
:10080C0098FE414B1B69414A11890122184601F09F
:10081C0090FE3D4B5B693D4A51890122184601F01F
:10082C0088FE394B9B69394A91890122184601F09F
:10083C0080FEA6E0344B5B68344A5188002218468F
:10084C0001F077FE304B9B68304A918800221846A5
:10085C0001F06FFE2C4BDB682C4AD1880022184625
:10086C0001F067FE284B1B69284A118900221846A3
:10087C0001F05FFE244B5B69244A51890022184623
:10088C0001F057FE204B9B69204A918900221846A3
:10089C0001F04FFE75E01C4B1B681C4A11880022AE
:1008AC00184601F046FE184B5B68184A5188002226
:1008BC00184601F03EFE144B9B68144A91880022A6
:1008CC00184601F036FE104BDB68104AD188002226
:1008DC00184601F02EFE0C4B1B690C4A11890122A3
:1008EC00184601F026FE084B5B69084A5189002224
:1008FC00184601F01EFE044B9B69044A91890022A4
:10090C00184601F016FE3CE0000000201C00002000
:10091C001E4B1B681E4A11880022184601F009FE66
:10092C001A4B5B681A4A51880122184601F001FEE5
:10093C00164B9B68164A91880122184601F0F9FD66
:10094C00124BDB68124AD1880022184601F0F1FDE7
:10095C000E4B1B690E4A11890122184601F0E9FD64
:10096C000A4B5B690A4A51890122184601F0E1FDE4
:10097C00064B9B69064A91890022184601F0D9FD65
:10098C0000BF00BF0837BD4680BD00BF000000207F
:10099C001C00002080B582B000AF0346FB71FB79D0
:1009AC00042B00F2FD8001A252F823F0CD090008BF
:1009BC001F0A00086B0A0008B70A0008150B00088C
:1009CC007B4B1B78012B05D17A4B04221A7000F05B
:1009DC0067FDE8E0784B1B78012B17D1754B012292
:1009EC001A70764800F062FF754800F05FFF00F067
:1009FC00D3FB744B9A78744B1A70734B02225A7057
:100A0C000120FFF743FC00F04BFDCCE000F028F98F
:100A1C00C9E0674B1B78012B05D1664B04221A7079
:100A2C0000F03EFDBFE0644B1B78012B11D1614BF4
:100A3C0002221A7000F0B0FB624BDA78624B1A702B
:100A4C00614B03225A700120FFF720FC00F028FDB7
:100A5C00A9E05E4A5E49002000F0C4F9A3E0544BC3
:100A6C001B78012B05D1534B04221A7000F018FD92
:100A7C0099E0514B1B78012B11D14E4B03221A706C
:100A8C0000F08AFB4F4B1A794F4B1A704E4B0422D5
:100A9C005A700120FFF7FAFB00F002FD83E04D4A8B
:100AAC004D49012000F09EF97DE0414B1B78012B54
:100ABC0005D1404B04221A7000F0F2FC73E03E4B5F
:100ACC001B78012B1AD13B4B00221A70434B00228E
:100ADC001A70434B01221A70424800F0E7FE424B59
:100AEC0001225A70404B01229A703F4B0122DA705E
:100AFC000020FFF7CBFB00F0D3FC54E0354A3B4918
:100B0C00022000F06FF94EE000F0CAFC2B4800F018
:100B1C00CDFE2B4800F0CAFE324800F0C7FE344828
:100B2C0000F0C4FE334800F0C1FE24494FF47A7043
:100B3C0000F04EFE22494FF47A7000F049FE29492C
:100B4C004FF47A7000F044FE29494FF47A7000F0AB
:100B5C003FFE28494FF47A7000F03AFE194B0122FF
:100B6C005A70184B04229A70164B0222DA70154BED
:100B7C0004221A71204B01225A701F4B06229A70C4
:100B8C001D4B0122DA701C4B03221A71094B0022F7
:100B9C001A70124B00221A70114B01221A7002E0CB
:100BAC000023FB7100BF00BF0837BD4680BD00BFEE
:100BBC003C040020D90000204804002041040020FF
:100BCC00420400202C0000201401002038000020DA
:100BDC002E000020360000202F00002004010020F1
:100BEC00440000204304002040040020300000207A
:100BFC0044040020450400203400002080B483B05D
:100C0C0000AF7860084B00221A607B68074A82FBB1
:100C1C0003129210DB17D31A054A136000BF0C376E
:100C2C00BD4680BC704700BFD0000020676666667A
:100C3C00D400002080B400AF074B1B68013B064A70
:100C4C001360054B1B68002B02D1044B01221A6068
:100C5C0000BFBD4680BC7047D4000020D0000020EF
:100C6C0080B500AF534B1B78032B00F2978001A289
:100C7C0052F823F0910C0008170D0008B10D000874
:100C8C00B10D00084C4B5B78012B0ED14B4800F09A
:100C9C000DFE4B4800F00AFE4A4800F007FE454B9B
:100CAC0001221A7000F0FCFB7EE0444A464947489A
:100CBC0001F00CF8424A4649464801F007F8464B09
:100CCC00DB78DBB2012B06D1FFF774FB3D494FF407
:100CDC007A7000F07DFD404B1B79DBB2012B63D1A8
:100CEC003E4B1B78032B02D93C4B00221A703B4B1A
:100CFC001B785A1CD1B2394A11701846FFF720FAEA
:100D0C003749C82000F064FD4EE02B4B5B78012B7B
:100D1C0020D12D4B5B781A464FF47A7303FB02F308
:100D2C002649184600F054FD294B5B781A464FF4BF
:100D3C007A7303FB02F32249184600F049FD21495E
:100D4C004FF47A7000F044FD1A4B00221A7000F038
:100D5C00A7FB2BE0194A1C491C4800F0B7FF184AA6
:100D6C001B491C4800F0B2FF1B4B1B79DBB2012B5B
:100D7C001CD11A4B1B78032B02D9184B00221A706A
:100D8C00164B1B785A1CD1B2144A11701846FFF737
:100D9C00D7F91349C82000F01BFD07E0054B0022D2
:100DAC001A7004E000BF02E000BF00E000BF00BF0B
:100DBC0080BD00BFDA000020480400204104002060
:100DCC0042040020430400202C00002004010020D9
:100DDC00340000204400002040040020D8000020F3
:100DEC004404002080B584B000AF0346B9607A603B
:100DFC00FB739F4B1B78042B00F2858101A252F8E8
:100E0C0023F000BF250E0008450F00086F0F0008E7
:100E1C00131000083D100008964B5B78012B05D190
:100E2C00934B01221A7000F03BFB70E1924B5B7804
:100E3C00012B0AD191494FF4FA7000F0C9FC8C4B8C
:100E4C0002221A7000F02CFB61E18D4B5B78012BB8
:100E5C0005D1874B03221A7000F022FB57E1894B16
:100E6C005B78012B0AD185494FF4FA7000F0B0FC85
:100E7C007F4B04221A7000F013FB48E17D4B9B78EA
:100E8C00012B30D1804B1B78002B26D07E4B1A784F
:100E9C00BB681B789A420CD37B681A787A4B19780A
:100EAC00BB681B78CB1ADBB21344DAB27B681A70BE
:100EBC000BE07B681A78744B1978BB681B78CB1ADB
:100ECC00DBB21344DAB27B681A706F4B1A78BB68CA
:100EDC001A7080216D4801F044FB654B00221A709A
:100EEC0000F0DEFA13E16A4BDB78DBB2012B08D1A0
:100EFC0068494FF4FA7000F06BFCFB7B184600F06D
:100F0C001BF9634B1B79DBB2012B40F00081624B68
:100F1C001B78032B02D9604B00221A705E4B1B7896
:100F2C005A1CD1B25C4A11701846FFF709F95B499B
:100F3C00C82000F04DFCEAE0534B1B78622B06D81E
:100F4C00514B1B780133DAB24F4B1A7002E04E4B07
:100F5C0000221A700120FFF799F9454B00221A70F4
:100F6C00DAE04F4B5B78022B44D1494B5B79DBB217
:100F7C00012B16D141494FF4FA7000F029FC424B79
:100F8C001B78622B06D8404B1B780133DAB23E4BF0
:100F9C001A7002E03C4B00221A700120FFF776F920
:100FAC00B7E03B4BDB78DBB2012B08D139494FF46E
:100FBC00FA7000F00DFCFB7B184600F0BDF8344BCA
:100FCC001B79DBB2012B40F0A480334B1B78032B35
:100FDC0002D9314B00221A702F4B1B785A1CD1B2FC
:100FEC002D4A11701846FFF7ABF82C49C82000F0B9
:100FFC00EFFB8EE0214800F059FC00F051FA1C4B3D
:10100C0000221A7085E0204B1B78002B06D01E4B5B
:10101C001B78013BDAB21C4B1A7002E01A4B6322AC
:10102C001A700120FFF732F9114B00221A7073E08D
:10103C001B4B5B78042B5DD1154B5B79DBB2012B21
:10104C0030D10E494FF4FA7000F0C2FB0E4B1B78F6
:10105C00002B06D00C4B1B78013BDAB20A4B1A70F2
:10106C0002E0094B63221A700120FFF70FF952E0DE
:10107C00DB000020480400203C0400204504002034
:10108C00100100207804002014010020000C014005
:10109C004004002043040020D80000204404002019
:1010AC00380400201E4BDB78DBB2012B08D11D4924
:1010BC004FF4FA7000F08CFBFB7B184600F03CF808
:1010CC00174B1B79DBB2012B25D1174B1B78032B4C
:1010DC0002D9154B00221A70134B1B785A1CD1B233
:1010EC00114A11701846FFF72BF81049C82000F070
:1010FC006FFB10E00E4800F0D9FB00F0D1F90D4B5E
:10110C0000221A7007E00B4B00221A7004E000BF9B
:10111C0002E000BF00E000BF00BF1037BD4680BD3D
:10112C004004002043040020D80000204404002088
:10113C0045040020DB00002080B582B000AF0346E0
:10114C00FB71FB79022B18D0022B1FDC002B02D079
:10115C00012B09D01AE001210E4801F002FA0821F6
:10116C000C4801F0FEF911E002210A4801F0F9F9EE
:10117C001021084801F0F5F908E00421054801F0B8
:10118C00F0F92021034801F0ECF900BF00BF08374B
:10119C00BD4680BD000C014080B500AF012201218D
:1011AC000E4801F0C6F9012208210C4801F0C1F9E2
:1011BC0001220221094801F0BCF901221021074843
:1011CC0001F0B7F901220421044801F0B2F901221F
:1011DC002021024801F0ADF900BF80BD000C014098
:1011EC0080B582B000AF0346FB71FB79022B12D0A5
:1011FC00022B16DC002B02D0012B06D011E00121B2
:10120C000B4801F07FF903460DE00221084801F07C
:10121C0079F9034607E00421054801F073F9034608
:10122C0001E000BF012318460837BD4680BD00BF52
:10123C000008014090B583B000AF0023FB710EE1B4
:10124C00FA79FB798A49895C8A4AD154FC79FB7911
:10125C001846FFF7C5FF03461A46854B1A55FB790E
:10126C00834AD25CFB798349CB5C9A4205D1FA79EB
:10127C00FB797F49895C804AD154FB797E4AD35CE7
:10128C00012B38D1FB797D4AD35C052B03D1FB793B
:10129C007A4A0021D154FB79784AD35C062B03D1CE
:1012AC00FB79764A0021D154FB79744AD35C012B2B
:1012BC0003D1FB79714A0221D154FB796F4AD35C7B
:1012CC00032B03D1FB796D4A0421D154FB796C4A71
:1012DC00002122F81310FB796A4A32F81330132BD1
:1012EC0034D8FB79674A32F81320013291B2654A3F
:1012FC0022F813102AE0FB795F4AD35C002B25D12E
:10130C00FB795E4AD35C002B03D1FB795B4A01214C
:10131C00D154FB79594AD35C022B03D1FB79574A40
:10132C000321D154FB79574A002122F81310FB7981
:10133C00534A32F81330632B08D8FB79504A32F8F1
:10134C001320013291B24E4A22F81310FB794B4A0A
:10135C00D35C002B03D1FB794B4A0021D154FB7990
:10136C00464AD35C012B04D0FB79444AD35C052B51
:10137C0011D1FB79424A32F81330632B0BD9FB792C
:10138C00424A0121D154FB793F4A0221D154FB79C5
:10139C003A4A0521D154FB79384AD35C022B11D13E
:1013AC00FB79384A32F81330132B0BD9FB79384AB6
:1013BC000121D154FB79344A0121D154FB792F4AB4
:1013CC000021D154FB792D4AD35C032B04D0FB793B
:1013DC002A4AD35C062B11D1FB79294A32F81330F7
:1013EC00632B0BD9FB792B4A0121D154FB79264A6B
:1013FC000421D154FB79214A0621D154FB791F4A8F
:10140C00D35C042B11D1FB791E4A32F81330132B09
:10141C000BD9FB79204A0121D154FB791A4A0321BB
:10142C00D154FB79154A0021D154FB79002B02D100
:10143C001A4B00221A70FB790F4AD35C002B0CBF9D
:10144C0001230023DBB25AB2144B1B785BB213435B
:10145C005BB2DAB2114B1A70FB790133FB71FB7979
:10146C00022B7FF6EDAE00BF00BF0C37BD4690BD22
:10147C00E0000020E40000203C000020F8000020E8
:10148C00E8000020F0000020380400203C0400207C
:10149C00480400207804002010010020DC0000200B
:1014AC0080B500AF03220021094802F065F8032241
:1014BC000021084802F060F803220021064802F0DF
:1014CC005BF803220021054802F056F800BF80BDEE
:1014DC00480400203C040020100100207804002067
:1014EC0080B500AF0A4B1B78012B05D100224FF4BD
:1014FC000041084801F01DF8054B1B78002B05D165
:10150C0001224FF40041034801F013F800BF80BDE5
:10151C00DC0000200008014080B500AF00F008FDA1
:10152C0000F066F800F0EEF800F0A0F8254801F0A5
:10153C005DFC4FF47A70FFF761FB012240212248D9
:10154C0000F0F7FF01224FF48041204800F0F1FF3A
:10155C00012280211C4800F0ECFF1D494FF47A70E9
:10156C0000F036F91B494FF47A7000F031F91A4942
:10157C004FF47A7000F02CF918494FF47A7000F09F
:10158C0027F917494FF47A7000F022F915494FF4F6
:10159C007A7000F01DF9144B1B68012B07D1402108
:1015AC00094800F0DEFF4FF47A70FFF727FB00F0DC
:1015BC00B1FAFFF795FF0D4B1B78DBB21846FFF71E
:1015CC00E9F9E8E77C040020000C01400008014028
:1015DC004004002041040020420400204304002069
:1015EC004404002045040020D0000020D900002035
:1015FC0080B590B000AF07F11803282200211846DF
:10160C0001F0BAFF3B1D00221A605A609A60DA6042
:10161C001A610223BB610123BB621023FB6200230E
:10162C007B6307F11803184600F0B4FF0346002B48
:10163C0001D000F0C7F80F237B600023BB600023B0
:10164C00FB604FF480633B614FF480637B613B1D17
:10165C000021184601F01EFA0346002B01D000F0C1
:10166C00B1F800BF4037BD4680BD000080B586B0E4
:10167C0000AF07F1080300221A605A609A60DA6022
:10168C003B4600221A605A601D4B4FF080421A6094
:10169C001B4B41F63F725A60194B00229A60184B53
:1016AC000922DA60164B00221A61154B00229A614E
:1016BC00134801F04BFB0346002B01D000F082F8DD
:1016CC004FF48053BB6007F1080319460C4801F036
:1016DC00C9FC0346002B01D000F074F800233B60DA
:1016EC0000237B603B461946054801F0A1FE0346EA
:1016FC00002B01D000F066F800BF1837BD4680BD46
:10170C007C04002080B586B000AF07F108030022EE
:10171C001A605A609A60DA60274B9B69264A43F03C
:10172C0004039361244B9B6903F004037B607B6887
:10173C00214B9B69204A43F0080393611E4B9B6924
:10174C0003F008033B603B6800224FF6F8711B481E
:10175C0000F0EFFE0022FF21194800F0EAFE0723FB
:10176C00BB600023FB6001233B6107F108031946B2
:10177C00124800F04DFD4FF6F873BB600123FB607F
:10178C0000233B6102237B6107F1080319460B48D8
:10179C0000F03EFDFF23BB600123FB6000233B6197
:1017AC0002237B6107F108031946054800F030FD60
:1017BC0000BF1837BD4680BD001002400008014034
:1017CC00000C014080B400AF72B600BFFEE7000011
:1017DC0080B584B000AF786039603B6800221A7025
:1017EC000C2001F0B9FE0346FB60FB68002B49D0CE
:1017FC007B689AB2FB681A80FB683A685A607B680F
:10180C00B3F57A7F20D3214B1B7819467B68204A8D
:10181C00A2FB03239B0919441E4BA3FB01239A092A
:10182C0013465B0013445A011344CA1A1346BB7285
:10183C00BB7A194A52F82320FB689A60BB7A164986
:10184C00FA6841F823201EE0144B1B7819467B687C
:10185C00134AA2FB0323DB08CA18124BA3FB021387
:10186C005B09642101FB03F3D31AFB72FB7A0E4A6A
:10187C0052F82320FB689A60FB7A0B49FA6841F80E
:10188C00232000E000BF1037BD4680BDFC000020C7
:10189C00D34D621003B57EA5AC020020FB000020E6
:1018AC00CDCCCCCC1F85EB511801002080B588B075
:1018BC0000AF78600023FB7729E0FB7F304A52F8B9
:1018CC002330BB611DE0BB695B687A689A4215D115
:1018DC00BB69FB60FB7F2A4A52F82330FA689A42B4
:1018EC0005D1FB7FFA689268254941F82320FB68F3
:1018FC009B68BB61F86801F037FE05E0BB699B682B
:10190C00BB61BB69002BDED1FB7F0133FB77FB7F17
:10191C00612BD2D90023FB7729E0FB7F194A52F8BF
:10192C0023307B611DE07B695B687A689A4215D134
:10193C007B693B61FB7F134A52F823303A699A4228
:10194C0005D1FB7F3A6992680E4941F823203B6927
:10195C009B687B61386901F007FE05E07B699B6839
:10196C007B617B69002BDED1FB7F0133FB77FB7F37
:10197C00622BD2D900BF00BF2037BD4680BD00BF4F
:10198C00AC0200201801002080B586B000AF4F4B90
:10199C001B78002B4FD14E4B1B781A464D4B53F8EE
:1019AC0022307B613DE07B691B884B4AA2FB032301
:1019BC00DB089BB2494AA2FB03125209642101FBCA
:1019CC0002F29B1A9BB2FB730C2001F0C5FD03467F
:1019DC00BB60BB68002B74D07B691B88404AA2FBA0
:1019EC00031292094FF47A7101FB02F29B1A9AB21C
:1019FC00BB681A807B695A68BB685A60FB7B394AA2
:101A0C0052F82320BB689A60FB7B3649BA6841F8D0
:101A1C0023207B697B607B699B687B61786801F024
:101A2C00A3FD7B69002BBED1294B1B781946294B92
:101A3C00002243F82120254B1B781A46294B53F8DA
:101A4C0022303B610BE03B695B6801221A703B69F9
:101A5C003B603B699B683B61386801F085FD3B69E5
:101A6C00002BF0D1194B1B7819461E4B002243F862
:101A7C002120164B1B780133184A82FB031251119B
:101A8C00DA178A1A642101FB02F29A1AD2B20F4BAE
:101A9C001A700E4B1B78622B14D90D4B1B785A1CE9
:101AAC00114B83FB021313449911D317C91A0B461C
:101ABC005B000B4459010B44D11ACAB2044B1A7087
:101ACC0000E000BF1837BD4680BD00BFFB00002002
:101ADC00FC000020AC020020CDCCCCCC1F85EB51FF
:101AEC00D34D62101801002003B57EA580B582B0DD
:101AFC0000AF78607B681B68B3F1804F05D1FFF7AE
:101B0C0043FFFFF797FBFFF795F800BF0837BD467B
:101B1C0080BD000080B500AF084B1B78DBB2012BF9
:101B2C0009D14FF48041064800F01BFD03494FF4E6
:101B3C007A70FFF74DFE00BF80BD00BF400400204F
:101B4C000008014080B485B000AF154B9B69144A66
:101B5C0043F001039361124B9B6903F00103BB60DB
:101B6C00BB680F4BDB690E4A43F08053D3610C4BBF
:101B7C00DB6903F080537B607B680A4B5B68FB601E
:101B8C00FB6823F0E063FB60FB6843F08063FB6061
:101B9C00044AFB68536000BF1437BD4680BC7047D5
:101BAC00001002400000014080B584B000AF7860A6
:101BBC007B681B68B3F1804F13D10C4BDB690B4A6C
:101BCC0043F00103D361094BDB6903F00103FB60B4
:101BDC00FB68002200211C2000F0E3FA1C2000F01E
:101BEC00FCFA00BF1037BD4680BD00BF001002409C
:101BFC0080B400AFFEE780B400AFFEE780B400AF66
:101C0C00FEE780B400AFFEE780B400AFFEE780B41F
:101C1C0000AF00BFBD4680BC704780B400AF00BFB2
:101C2C00BD4680BC704780B400AF00BFBD4680BCD1
:101C3C00704780B500AF00F0C1F900BF80BD000057
:101C4C0080B500AF024801F01DF900BF80BD00BF98
:101C5C007C04002080B586B000AF7860144A154B28
:101C6C00D31A7B617B693B61134B1B68002B02D140
:101C7C00114B124A1A60104B1A687B6813443A696C
:101C8C009A4207D201F03EFC03460C221A604FF038
:101C9C00FF3309E0084B1B68FB60074B1A687B6835
:101CAC001344054A1360FB6818461837BD4680BDBF
:101CBC00002800200004000000010020D8040020AF
:101CCC0080B400AF00BFBD4680BC704780B584B007
:101CDC0000AFF860B9607A60FB681B78022B44D0C7
:101CEC00022B61DC002B02D0012B1FD05CE07B6847
:101CFC001B78DBB2012B5BD1FB6802221A70BB682C
:101D0C001B78184600F0BEF8BB681B791A464FF4D6
:101D1C007A7303FB02F379681846FFF759FDBB6829
:101D2C001B790133DAB2BB685A7041E07B681B78CF
:101D3C00DBB2012B3ED1FB6800221A70BB681B780A
:101D4C00184600F03FF8BB689B781A464FF47A733C
:101D5C0003FB02F379681846FFF73AFDBB689B78E2
:101D6C000133DAB2BB685A7024E07B681B78DBB2B3
:101D7C00012B21D1FB6801221A70BB681B78184615
:101D8C0000F050F8BB68DB781A464FF47A7303FB0B
:101D9C0002F379681846FFF71BFDBB68DB7801334B
:101DAC00DAB2BB685A7007E0FB6800221A7004E0D4
:101DBC0000BF02E000BF00E000BF00BF1037BD460F
:101DCC0080BD000080B582B000AF0346FB71FB798B
:101DDC00002B0ED100220121114800F0AAFB012298
:101DEC0002210F4800F0A5FB012204210C4800F051
:101DFC00A0FBFB79012B0ED100220821084800F032
:101E0C0098FB01221021064800F093FB01222021AF
:101E1C00034800F08EFB00BF0837BD4680BD00BFF5
:101E2C00000C014080B582B000AF0346FB71FB791A
:101E3C00002B0ED100220221114800F07AFB012266
:101E4C0004210F4800F075FB012201210C4800F021
:101E5C0070FBFB79012B0ED100221021084800F0F9
:101E6C0068FB01222021064800F063FB01220821B7
:101E7C00034800F05EFB00BF0837BD4680BD00BFC5
:101E8C00000C014080B582B000AF0346FB71FB79BA
:101E9C00002B0ED100220421114800F04AFB012234
:101EAC0001210F4800F045FB012202210C4800F0F3
:101EBC0040FBFB79012B0ED100222021084800F0B9
:101ECC0038FB01220821064800F033FB01221021C7
:101EDC00034800F02EFB00BF0837BD4680BD00BF95
:101EEC00000C0140FFF7ECFE0B480C490C4A002398
:101EFC0002E0D458C4500433C4188C42F9D3094AB4
:101F0C00094C002301E013600432A242FBD301F020
:101F1C00FFFAFFF701FB704700000020B40000201F
:101F2C0060370008B4000020D8040020FEE7000051
:101F3C0080B500AF084B1B68074A43F010031360D1
:101F4C00032000F023F90F2000F008F8FFF7FAFD4A
:101F5C000023184680BD00BF0020024080B582B02F
:101F6C0000AF7860124B1A68124B1B7819464FF46D
:101F7C007A73B3FBF1F3B2FBF3F3184600F03BF9C1
:101F8C000346002B01D001230EE07B680F2B0AD8EF
:101F9C00002279684FF0FF3000F003F9064A7B68A5
:101FAC001360002300E0012318460837BD4680BDAE
:101FBC00400000204C0000204800002080B400AFFE
:101FCC00054B1B781A46054B1B681344034A1360D8
:101FDC0000BFBD4680BC70474C000020C4040020EC
:101FEC0080B400AF024B1B681846BD4680BC7047DE
:101FFC00C404002080B485B000AF78607B6803F027
:10200C000703FB600C4BDB68BB60BA684FF6FF0341
:10201C001340BB60FB681A02BB68134343F0BF63F9
:10202C0043F40033BB60044ABB68D36000BF143771
:10203C00BD4680BC704700BF00ED00E080B400AF2F
:10204C00044BDB681B0A03F007031846BD4680BC33
:10205C00704700BF00ED00E080B483B000AF0346D2
:10206C00FB7197F90730002B0BDBFB7903F01F0298
:10207C00064997F907305B09012000FA02F241F892
:10208C00232000BF0C37BD4680BC704700E100E048
:10209C0080B483B000AF03463960FB7197F9073009
:1020AC00002B0ADB3B68DAB20C4997F907301201B6
:1020BC00D2B20B4483F800230AE03B68DAB2084939
:1020CC00FB7903F00F03043B1201D2B20B441A76D6
:1020DC0000BF0C37BD4680BC704700BF00E100E07C
:1020EC0000ED00E080B489B000AFF860B9607A60B0
:1020FC00FB6803F00703FB61FB69C3F10703042BC7
:10210C0028BF0423BB61FB690433062B02D9FB698E
:10211C00033B00E000237B614FF0FF32BB6902FA06
:10212C0003F3DA43BB681A407B699A404FF0FF31E6
:10213C007B6901FA03F3D9437B680B4013431846C0
:10214C002437BD4680BC704780B582B000AF786044
:10215C007B68013BB3F1807F01D301230FE00A4A76
:10216C007B68013B53600F214FF0FF30FFF790FF6E
:10217C00054B00229A60044B07221A600023184674
:10218C000837BD4680BD00BF10E000E080B582B0CE
:10219C0000AF78607868FFF72DFF00BF0837BD46A9
:1021AC0080BD80B586B000AF0346B9607A60FB7322
:1021BC0000237B61FFF742FF78617A68B968786920
:1021CC00FFF790FF024697F90F3011461846FFF7BC
:1021DC005FFF00BF1837BD4680BD80B582B000AF31
:1021EC000346FB7197F907301846FFF735FF00BF20
:1021FC000837BD4680BD80B582B000AF7860786886
:10220C00FFF7A2FF034618460837BD4680BD000005
:10221C0080B48BB000AF7860396000237B62002300
:10222C003B6248E101227B6A02FA03F3FB613B68E3
:10223C001B68FA691340BB61BA69FB699A4240F0AA
:10224C0037813B685B68A34A93425ED0A14A9342B4
:10225C0075D8A14A934258D09F4A93426FD89F4A4F
:10226C00934252D09D4A934269D89D4A93424CD096
:10227C009B4A934263D89B4A934246D0994A9342D5
:10228C005DD8122B2AD8122B59D801A252F823F060
:10229C0017230008F1220008032300084523000837
:1022AC004B2300084B2300084B2300084B2300084A
:1022BC004B2300084B2300084B2300084B2300083A
:1022CC004B2300084B2300084B2300084B2300082A
:1022DC004B230008F92200080D230008824A934280
:1022EC0013D02CE03B68DB683B6229E03B68DB6881
:1022FC0004333B6224E03B68DB6808333B621FE03D
:10230C003B68DB680C333B621AE03B689B68002B34
:10231C0002D104233B6213E03B689B68012B05D17F
:10232C0008233B627B68FA691A6109E008233B6267
:10233C007B68FA695A6103E000233B6200E000BF4E
:10234C00BB69FF2B01D87B6801E07B6804337B61A0
:10235C00BB69FF2B02D87B6A9B0002E07B6A083BBF
:10236C009B003B617B691A680F213B6901FA03F3FF
:10237C00DB431A40396A3B6901FA03F31A437B6960
:10238C001A603B685B6803F08053002B00F0908070
:10239C00564B9B69554A43F001039361534B9B6920
:1023AC0003F00103BB60BB68514A7B6A9B08023394
:1023BC0052F82330FB607B6A03F003039B000F226F
:1023CC0002FA03F3DB43FA681340FB607B68494A6B
:1023DC0093420DD07B68484A934207D07B68474AAA
:1023EC00934201D1022304E0032302E0012300E025
:1023FC0000237A6A02F0030292009340FA681343B6
:10240C00FB603B497B6A9B080233FA6841F8232046
:10241C003B685B6803F48013002B06D0384B9A683A
:10242C003749BB6913438B6006E0354B9A68BB692F
:10243C00DB43334913408B603B685B6803F4001348
:10244C00002B06D02E4BDA682D49BB691343CB60A9
:10245C0006E02B4BDA68BB69DB4329491340CB60A0
:10246C003B685B6803F40033002B06D0244B5A689E
:10247C002349BB6913434B6006E0214B5A68BB6987
:10248C00DB431F4913404B603B685B6803F48033AC
:10249C00002B06D01A4B1A681949BB6913430B6001
:1024AC0006E0174B1A68BB69DB43154913400B60F8
:1024BC007B6A01337B623B681A687B6A22FA03F3FE
:1024CC00002B7FF4AFAE00BF00BF2C37BD4680BCE5
:1024DC00704700BF000032100000311000002210C5
:1024EC00000021100000121000001110001002401A
:1024FC000000014000080140000C014000100140A8
:10250C000004014080B485B000AF78600B467B803E
:10251C007B689A687B881340002B02D00123FB73E5
:10252C0001E00023FB73FB7B18461437BD4680BCCF
:10253C00704780B483B000AF78600B467B80134645
:10254C007B707B78002B03D07A887B681A6103E060
:10255C007B881A047B681A6100BF0C37BD4680BCAF
:10256C00704780B485B000AF78600B467B807B6889
:10257C00DB68FB607A88FB6813401A04FB68D9435C
:10258C007B880B401A437B681A6100BF1437BD4629
:10259C0080BC704780B586B000AF78607B68002B3C
:1025AC0001D101236CE27B681B6803F00103002B53
:1025BC0000F08780924B5B6803F00C03042B0CD06B
:1025CC008F4B5B6803F00C03082B12D18C4B5B68B0
:1025DC0003F48033B3F5803F0BD1894B1B6803F4B4
:1025EC000033002B6CD07B685B68002B68D1012317
:1025FC0046E27B685B68B3F5803F06D1804B1B6875
:10260C007F4A43F4803313602EE07B685B68002BB9
:10261C000CD17B4B1B687A4A23F480331360784BC4
:10262C001B68774A23F4802313601DE07B685B688A
:10263C00B3F5A02F0CD1724B1B68714A43F4802365
:10264C0013606F4B1B686E4A43F4803313600BE0CE
:10265C006B4B1B686A4A23F480331360684B1B680E
:10266C00674A23F4802313607B685B68002B13D0CC
:10267C00FFF7B6FC386108E0FFF7B2FC02463B6995
:10268C00D31A642B01D90323FAE15D4B1B6803F4C5
:10269C000033002BF0D014E0FFF7A2FC386108E007
:1026AC00FFF79EFC02463B69D31A642B01D9032326
:1026BC00E6E1534B1B6803F40033002BF0D100E030
:1026CC0000BF7B681B6803F00203002B63D04C4BEC
:1026DC005B6803F00C03002B0BD0494B5B6803F0D9
:1026EC000C03082B1CD1464B5B6803F48033002B86
:1026FC0016D1434B1B6803F00203002B05D07B68FB
:10270C001B69012B01D00123BAE13D4B1B6823F05F
:10271C00F8027B685B69DB00394913430B603AE0D4
:10272C007B681B69002B20D0364B01221A60FFF707
:10273C0057FC386108E0FFF753FC02463B69D31A9B
:10274C00022B01D903239BE12D4B1B6803F00203E1
:10275C00002BF0D02A4B1B6823F0F8027B685B69D6
:10276C00DB00274913430B6015E0264B00221A604F
:10277C00FFF736FC386108E0FFF732FC02463B6994
:10278C00D31A022B01D903237AE11D4B1B6803F0EA
:10279C000203002BF0D17B681B6803F00803002BAD
:1027AC003AD07B689B69002B19D0174B01221A6019
:1027BC00FFF716FC386108E0FFF712FC02463B6994
:1027CC00D31A022B01D903235AE10D4B5B6A03F098
:1027DC000203002BF0D0012000F09AFA1CE00A4B07
:1027EC0000221A60FFF7FCFB38610FE0FFF7F8FBE3
:1027FC0002463B69D31A022B08D9032340E100BFE0
:10280C000010024000004242800442429E4B5B6A30
:10281C0003F00203002BE9D17B681B6803F004036F
:10282C00002B00F0A6800023FB75974BDB6903F0AF
:10283C008053002B0DD1944BDB69934A43F08053AA
:10284C00D361914BDB6903F08053BB60BB68012300
:10285C00FB758E4B1B6803F48073002B18D18B4BCC
:10286C001B688A4A43F480731360FFF7B9FB386125
:10287C0008E0FFF7B5FB02463B69D31A642B01D97C
:10288C000323FDE0814B1B6803F48073002BF0D015
:10289C007B68DB68012B06D17B4B1B6A7A4A43F0C1
:1028AC00010313622DE07B68DB68002B0CD1764BA7
:1028BC001B6A754A23F001031362734B1B6A724A3D
:1028CC0023F0040313621CE07B68DB68052B0CD13E
:1028DC006D4B1B6A6C4A43F0040313626A4B1B6A10
:1028EC00694A43F0010313620BE0674B1B6A664AAB
:1028FC0023F001031362644B1B6A634A23F0040345
:10290C0013627B68DB68002B15D0FFF769FB38611D
:10291C000AE0FFF765FB02463B69D31A41F28832A5
:10292C00934201D90323ABE0574B1B6A03F002031C
:10293C00002BEED014E0FFF753FB38610AE0FFF7F1
:10294C004FFB02463B69D31A41F28832934201D9BC
:10295C00032395E04C4B1B6A03F00203002BEED1D2
:10296C00FB7D012B05D1484BDB69474A23F0805393
:10297C00D3617B68DB69002B00F08180424B5B6884
:10298C0003F00C03082B61D07B68DB69022B46D16A
:10299C003F4B00221A60FFF723FB386108E0FFF77A
:1029AC001FFB02463B69D31A022B01D9032367E0B4
:1029BC00354B1B6803F00073002BF0D17B681B6A4E
:1029CC00B3F5803F08D1304B5B6823F400327B6851
:1029DC009B682D4913434B602B4B5B6823F474129B
:1029EC007B68196A7B685B6A0B43274913434B600E
:1029FC00274B01221A60FFF7F3FA386108E0FFF762
:102A0C00EFFA02463B69D31A022B01D9032337E0B4
:102A1C001D4B1B6803F00073002BF0D02FE01C4BF8
:102A2C0000221A60FFF7DCFA386108E0FFF7D8FAE9
:102A3C0002463B69D31A022B01D9032320E0124B27
:102A4C001B6803F00073002BF0D118E07B68DB6986
:102A5C00012B01D1012313E00B4B5B68FB60FB687E
:102A6C0003F480327B681B6A9A4206D1FB6803F43C
:102A7C0070127B685B6A9A4201D0012300E000234C
:102A8C0018461837BD4680BD00100240007000404B
:102A9C006000424280B584B000AF786039607B68DA
:102AAC00002B01D10123D0E06A4B1B6803F0070314
:102ABC003A689A4210D9674B1B6823F007026549A4
:102ACC003B6813430B60634B1B6803F007033A68C6
:102ADC009A4201D00123B8E07B681B6803F0020323
:102AEC00002B20D07B681B6803F00403002B05D05F
:102AFC00594B5B68584A43F4E06353607B681B682E
:102B0C0003F00803002B05D0534B5B68524A43F487
:102B1C0060535360504B5B6823F0F0027B689B68FA
:102B2C004D4913434B607B681B6803F00103002B7A
:102B3C0040D07B685B68012B07D1474B1B6803F4C3
:102B4C000033002B15D101237FE07B685B68022BDF
:102B5C0007D1414B1B6803F00073002B09D10123F3
:102B6C0073E03D4B1B6803F00203002B01D10123E2
:102B7C006BE0394B5B6823F003027B685B6836497A
:102B8C0013434B60FFF72CFAF8600AE0FFF728FAC2
:102B9C000246FB68D31A41F28832934201D90323CF
:102BAC0053E02D4B5B6803F00C027B685B689B0069
:102BBC009A42EBD1274B1B6803F007033A689A4201
:102BCC0010D2244B1B6823F0070222493B681343A5
:102BDC000B60204B1B6803F007033A689A4201D044
:102BEC00012332E07B681B6803F00403002B08D040
:102BFC00194B5B6823F4E0627B68DB68164913436E
:102C0C004B607B681B6803F00803002B09D0124B48
:102C1C005B6823F460527B681B69DB000E4913432D
:102C2C004B6000F021F802460B4B5B681B0903F06C
:102C3C000F030A49CB5C22FA03F3094A1360094BD0
:102C4C001B681846FFF78AF9002318461037BD4653
:102C5C0080BD00BF00200240001002403437000845
:102C6C00400000204800002080B487B000AF002353
:102C7C00FB600023BB6000237B6100237B6000238F
:102C8C003B611E4B5B68FB60FB6803F00C03042B81
:102C9C0002D0082B03D027E0194B3B6127E0FB68DF
:102CAC009B0C03F00F03174AD35C7B60FB6803F4A7
:102CBC008033002B10D0114B5B685B0C03F00103CD
:102CCC00114AD35CBB607B680D4A02FB03F2BB6804
:102CDC00B2FBF3F37B6104E07B680C4A02FB03F369
:102CEC007B617B693B6102E0054B3B6100BF3B694B
:102CFC0018461C37BD4680BC704700BF0010024010
:102D0C0000127A00443700085437000800093D00CF
:102D1C0080B485B000AF78600A4B1B680A4AA2FBEE
:102D2C0003235B0A7A6802FB03F3FB6000BFFB68BA
:102D3C005A1EFA60002BF9D100BF00BF1437BD46F4
:102D4C0080BC704740000020D34D621080B582B02B
:102D5C0000AF78607B68002B01D1012341E07B68D8
:102D6C0093F83D30DBB2002B06D17B68002283F850
:102D7C003C207868FEF718FF7B68022283F83D2020
:102D8C007B681A687B6804331946104600F056FAC3
:102D9C007B68012283F846207B68012283F83E2061
:102DAC007B68012283F83F207B68012283F8402056
:102DBC007B68012283F841207B68012283F8422042
:102DCC007B68012283F843207B68012283F844202E
:102DDC007B68012283F845207B68012283F83D2023
:102DEC00002318460837BD4680BD000080B485B06E
:102DFC0000AF78607B6893F83D30DBB2012B01D0DB
:102E0C00012335E07B68022283F83D207B681B6838
:102E1C00DA687B681B6842F00102DA607B681B6829
:102E2C00164A934209D07B681B68B3F1804F04D0DB
:102E3C007B681B68124A934211D17B681B689B68A4
:102E4C0003F00703FB60FB68062B10D07B681B6844
:102E5C001A687B681B6842F001021A6007E07B6805
:102E6C001B681A687B681B6842F001021A60002319
:102E7C0018461437BD4680BC704700BF002C01407B
:102E8C000004004080B584B000AF78607B681B689C
:102E9C00DB68FB607B681B681B69BB60BB6803F06D
:102EAC000203002B20D0FB6803F00203002B1BD085
:102EBC007B681B686FF002021A617B6801221A772B
:102ECC007B681B689B6903F00303002B03D07868B5
:102EDC0000F098F905E0786800F08BF9786800F05C
:102EEC009AF97B6800221A77BB6803F00403002B65
:102EFC0020D0FB6803F00403002B1BD07B681B68FD
:102F0C006FF004021A617B6802221A777B681B68D7
:102F1C009B6903F44073002B03D0786800F072F9BE
:102F2C0005E0786800F065F9786800F074F97B6862
:102F3C0000221A77BB6803F00803002B20D0FB6833
:102F4C0003F00803002B1BD07B681B686FF0080292
:102F5C001A617B6804221A777B681B68DB6903F0B3
:102F6C000303002B03D0786800F04CF905E0786877
:102F7C0000F03FF9786800F04EF97B6800221A7770
:102F8C00BB6803F01003002B20D0FB6803F0100388
:102F9C00002B1BD07B681B686FF010021A617B68DA
:102FAC0008221A777B681B68DB6903F44073002BDB
:102FBC0003D0786800F026F905E0786800F019F97C
:102FCC00786800F028F97B6800221A77BB6803F058
:102FDC000103002B0CD0FB6803F00103002B07D07E
:102FEC007B681B686FF001021A617868FEF77EFD42
:102FFC00BB6803F08003002B0CD0FB6803F080034C
:10300C00002B07D07B681B686FF080021A61786810
:10301C0000F06FFABB6803F04003002B0CD0FB6888
:10302C0003F04003002B07D07B681B686FF0400255
:10303C001A61786800F0F8F8BB6803F02003002BE5
:10304C000CD0FB6803F02003002B07D07B681B68B7
:10305C006FF020021A61786800F042FA00BF103756
:10306C00BD4680BD80B584B000AF78603960002368
:10307C00FB737B6893F83C30012B01D10223B4E045
:10308C007B68012283F83C207B68022283F83D2078
:10309C007B681B689B68BB60BB6823F07703BB60D5
:1030AC00BB6823F47F43BB607B681B68BA689A607B
:1030BC003B681B68B3F5005F3ED0B3F5005F00F2D0
:1030CC008780B3F5805F00F08680B3F5805F7FD892
:1030DC00702B1AD0702B7BD8602B50D0602B77D8EC
:1030EC00502B3CD0502B73D8402B58D0402B6FD842
:1030FC00302B64D0302B6BD8202B60D0202B67D892
:10310C00002B5CD0102B5AD062E07B6818683B68AF
:10311C0099683B685A683B68DB6800F06AF97B6821
:10312C001B689B68BB60BB6843F07703BB607B6824
:10313C001B68BA689A604FE07B6818683B689968AE
:10314C003B685A683B68DB6800F053F97B681B6886
:10315C009A687B681B6842F480429A603CE07B680A
:10316C0018683B6859683B68DB681A4600F0CAF877
:10317C007B681B685021184600F021F92CE07B6815
:10318C0018683B6859683B68DB681A4600F0E8F839
:10319C007B681B686021184600F011F91CE07B6805
:1031AC0018683B6859683B68DB681A4600F0AAF857
:1031BC007B681B684021184600F001F90CE07B6825
:1031CC001A683B681B681946104600F0F8F803E0D3
:1031DC000123FB7300E000BF7B68012283F83D20D4
:1031EC007B68002283F83C20FB7B18461037BD46D9
:1031FC0080BD80B483B000AF786000BF0C37BD4693
:10320C0080BC704780B483B000AF786000BF0C37CF
:10321C00BD4680BC704780B483B000AF786000BFFF
:10322C000C37BD4680BC704780B483B000AF78606B
:10323C0000BF0C37BD4680BC7047000080B485B021
:10324C0000AF786039607B681B68FB607B682B4A39
:10325C00934207D07B68B3F1804F03D07B68284A38
:10326C00934208D1FB6823F07003FB603B685B68FA
:10327C00FA681343FB607B68204A934207D07B6853
:10328C00B3F1804F03D07B681D4A934208D1FB6891
:10329C0023F44073FB603B68DB68FA681343FB6004
:1032AC00FB6823F080023B685B691343FB607B681F
:1032BC00FA681A603B689A687B68DA623B681A683D
:1032CC007B689A627B680D4A934203D13B681A690A
:1032DC007B681A637B6801225A617B681B6903F067
:1032EC000103002B05D07B681B6923F001027B686E
:1032FC001A6100BF1437BD4680BC7047002C0140DA
:10330C000004004080B487B000AFF860B9607A6008
:10331C00FB681B6A7B61FB681B6A23F00102FB687C
:10332C001A62FB689B693B613B6923F0F0033B61CC
:10333C007B681B013A6913433B617B6923F00A03E9
:10334C007B617A69BB6813437B61FB683A699A615C
:10335C00FB687A691A6200BF1C37BD4680BC704797
:10336C0080B487B000AFF860B9607A60FB681B6A04
:10337C007B61FB681B6A23F01002FB681A62FB6816
:10338C009B693B613B6923F470433B617B681B0386
:10339C003A6913433B617B6923F0A0037B61BB68F3
:1033AC001B017A6913437B61FB683A699A61FB687C
:1033BC007A691A6200BF1C37BD4680BC704780B466
:1033CC0085B000AF786039607B689B68FB60FB68F8
:1033DC0023F07003FB603A68FB68134343F0070368
:1033EC00FB607B68FA689A6000BF1437BD4680BCEE
:1033FC00704780B487B000AFF860B9607A603B600A
:10340C00FB689B687B617B6923F47F437B613B6832
:10341C001A027B681A43BB6813437A6913437B61B6
:10342C00FB687A699A6000BF1C37BD4680BC704748
:10343C0080B485B000AF786039607B6893F83C301D
:10344C00012B01D1022341E07B68012283F83C204F
:10345C007B68022283F83D207B681B685B68FB60FD
:10346C007B681B689B68BB60FB6823F07003FB6088
:10347C003B681B68FA681343FB607B681B68FA683F
:10348C005A607B681B68144A934209D07B681B689E
:10349C00B3F1804F04D07B681B68104A93420CD167
:1034AC00BB6823F08003BB603B685B68BA6813435E
:1034BC00BB607B681B68BA689A607B68012283F8E2
:1034CC003D207B68002283F83C20002318461437EB
:1034DC00BD4680BC704700BF002C0140000400407A
:1034EC0080B483B000AF786000BF0C37BD4680BCA1
:1034FC00704780B483B000AF786000BF0C37BD4616
:10350C0080BC7047014B1868704700BF500000200A
:10351C0070B500260C4D0D4C641BA410A64209D1AD
:10352C0000F0F6F800260A4D0A4C641BA410A642C3
:10353C0005D170BD55F8043B98470136EEE755F8B8
:10354C00043B98470136F2E7583700085837000813
:10355C00583700085C370008024B0146186800F029
:10356C005FB800BF50000020024B0146186800F005
:10357C000BB800BF5000002003460244934200D118
:10358C00704703F8011BF9E738B50546002943D00D
:10359C0051F8043C0C1F002BB8BFE41800F0AAF83B
:1035AC001E4A1368104633B9636014602846BDE8A0
:1035BC00384000F0A5B8A3420AD92168621893429A
:1035CC0001BF1A685B685218226063600460EDE703
:1035DC001A465B680BB1A342FAD911685018A04285
:1035EC000BD120680144501883421160DED1186859
:1035FC005B68014411605360D8E702D90C232B603F
:10360C00D4E7206821188B4201BF19685B68091840
:10361C00216063605460C9E738BD00BF0801002019
:10362C00F8B5CD1C25F0030508350C2D38BF0C253D
:10363C00002D064601DBA94203D90C233360002080
:10364C00F8BD00F057F821490A6814469CB9204F80
:10365C003B6823B92146304600F03CF838602946D7
:10366C00304600F037F8431C23D10C23304633602E
:10367C0000F046F8E3E723685B1B17D40B2B03D948
:10368C0023601C44256004E06368A2420CBF0B60FD
:10369C005360304600F034F804F10B00231D20F089
:1036AC000700C21ACCD01B1AA350C9E72246646883
:1036BC00CCE7C41C24F00304A042E3D0211A30460A
:1036CC0000F008F80130DDD1CFE700BF0801002081
:1036DC000C01002038B50023054D044608462B602C
:1036EC00FEF7B8FA431C02D12B6803B1236038BD36
:1036FC00C8040020014800F009B800BFD004002025
:10370C00014800F004B800BFD00400207047704797
:10371C00F8B500BFF8BC08BC9E467047F8B500BFB2
:08372C00F8BC08BC9E46704782
:10373400000000000000000001020304060708095D
:1037440002030405060708090A0B0C0D0E0F1010DE
:04375400010200006E
:043758003101000833
:04375C000D01000853
:103760000008014000080140000801400008014035
:1037700000080140000801400008014080000001ED
:1037800000020004000800100020000000010402F4
:103790000400000001010601030000000101010016
:1037A00000127A000100000010000000010000007B
:1037B0005400002000000000000000000000000095
:1037C00000000000000000000000000000000000F9
:1037D00000000000000000000000000000000000E9
:1037E00000000000000000000000000000000000D9
:1037F00000000000000000000000000000000000C9
:1038000000000000000000000000000000000000B8
:0438100000000000B4
:0400000508001EF1E0
:00000001FF
